:020000040000FA
:0600000002010A021E02CB
:03002B0002225B53
:03003B000222742A
:0300430002220690
:03005300021E7812
:03006B0002222C42
:10008300021CF3E5C754F84401F5C77901220000C7
:100093000080FB120086B900030200F4E4792178A2
:1000A30008B800028004F709D8FCE479297802B87B
:1000B30000028004F709D8FCE49002817861790991
:1000C3008002F0A3D8FCD9FA900AE1AA82AB83900C
:1000D300013A785B79048015E493A3AC82AD838AFB
:1000E300828B83F0A3AA82AB838C828D83D8E9D9D8
:1000F300E775821D75839D740312011C75829175CA
:100103008300740012011C75D00075813F7518813E
:10011300751902759F00020096C09FF59FE473D086
:100123009F22D083D082C09FE493C0E0740193C028
:10013300E0740293F59F22FF0000B400002800281A
:1001430000283075A000A000A000A000000800084F
:10015300E001F0001000100010001000100010006B
:1001630050005000500010001000D00700000000A5
:1001730000000F00010005003075070010000100AA
:1001830081FF0000FF9206B0069806FF02020208F4
:10019300025000A0000000E803022E9101000006B7
:1001A30091021691010000360B021091010000B27A
:1001B30002021691010000370B020E91010000C8E4
:1001C30002021691010000380B023E91010000CAA1
:1001D30002021691010000390B020C91080000CBBA
:1001E300020216910100003A0B021A910100003B32
:1001F3000BFF0100FF20022E910100000091021667
:10020300910100009F0B02229100000000000212E6
:10021300910300001803C20CC20CC20CC20CC20C26
:10022300C20CC20CC20CC20CC20CC20CC20CC20C5B
:10023300920FAA0F8C0FFFFF0202020202020202B8
:1002430002010D0000001001022E91010000039134
:10025300021691010000E20B023A910100007807B7
:10026300021691010000E30B023691010000B78FE3
:10027300021691010000E40B023491010000818F0A
:10028300021691010000E50B023291010000BC8EC1
:10029300021691010000E60B023091010000AA8EC4
:1002A300021691010000E70B022C91010000E08E81
:1002B300021691010000E80B022A91010000CE8E84
:1002C300021691010000E90B0228910100008F8FB3
:1002D300021691010000EA0B022691010000EB0BCC
:1002E30001E803053F10FF0001307503020106001A
:1002F30000000000000000000000000000000000FB
:100303000000000000000000000000FFFF06008066
:100313000CE803140953696D706C65424C455065D4
:10032300726970686572616C051208005000020AF8
:10033300000201060302F0FF53696D706C652042F1
:100343004C45205065726970686572616C2A14129D
:100353001430140A4368617261637465726973745B
:100363006963203100024368617261637465726975
:100373007374696320320008436861726163746552
:100383007269737469632033001043686172616337
:10039300746572697374696320340002436861721F
:1003A300616374657269737469632035000A436815
:1003B30061726163746572697374696320360010D6
:1003C300436861726163746572697374696320372A
:1003D30000022E910100000991021691010000FD17
:1003E3000C024291030000AE0A021491010000FEC8
:1003F3000C0216910100000F0D024491010000AFA1
:100403000A021491010000100D021691010000214F
:100413000D024691020000B00A021491010000226D
:100423000D021691010000330D024891000000B146
:100433000A021291030000B20A021491010000346F
:100443000D021691010000450D024A91040000B807
:100453000A021491010000460D0216910100005793
:100463000D024C91030000BD0A02149101000058D3
:100473000D021691010000690D024E91000000CC9F
:100483000A021291030000DB0A0214910100006AC0
:100493000D1201257391031201258A91031201257F
:1004A300B99103120125F291031201251A92031245
:1004B30001254892031201255F92031201257692CA
:1004C300031201258C9203120125B3920312012515
:1004D300C69203120125DC9203120125EF92031247
:1004E3000125149303120125828C02120125818DAB
:1004F30002120125B68D02120125D78D02120125A4
:10050300E78D02120125088E02120125148F0212B3
:100513000125E18F02120125549002120125DA9080
:10052300021201251D910212012554910212012587
:10053300DA9102120125AC92021201250A930212EA
:1005430001252293021201259C93021201259F93F8
:1005530002120125A29302120125499402120125D8
:10056300619402120125919402120125B1940212A1
:1005730001259F950212012555960212012543E29A
:10058300021201256BE20212012599E202120125F2
:10059300D0E20212012538E30212012581E302129F
:1005A3000125CCE3021201250AE40212012547E4E6
:1005B3000212012575E4021201251CE50212012530
:1005C30026E50212012533E50212012566E5021232
:1005D300012528E60212012534E6021201254CE624
:1005E3000212012556E602120125069A031201257D
:1005F300149A031201252C9A03120125449A03121B
:100603000125D8AF0112012576B001120125EEB004
:100613000112012503B2011201253DB20112012588
:10062300E6B201120125BBB3011201251FB5011268
:10063300012576B501120125FDB501120125E4B6A8
:100643000112012531B701120125BFB7011201259E
:10065300E3B701120125B8B901120125F9B9011255
:1006630001251BBA011201259CBA0112012586BB83
:10067300011201254CBC01120125F4C70212012508
:10068300C6C8021201256FC902120125B2C902129E
:1006930001253FCA02120125CBCA02120125ACCBA8
:1006A30002120125DBCB02120125D7CC0212012550
:1006B3001FCD0212012521CE0212012565CE0212A1
:1006C30001258BCE02120125759B0312012561F3CF
:1006D3000212012577F3021201259DF3021201256F
:1006E300C5F402120125CFF40212012528F60212E5
:1006F300012528F70212012500CF0212012535D06A
:100703000212012568D002120125B2D0021201257E
:1007130070D202120125529101120125B5910112E5
:100723000125FA92011201250A93011201252D9345
:10073300011201257893011201251D94011201254F
:10074300139501120125DD9501120125559701121B
:1007530001259797011201253598011201258298E9
:1007630001120125A89801120125969A011201256B
:100773009B9A011201257C9C01120125D09C011238
:100783000125329D011201255A9D01120125FE9D6D
:1007930001120125C09E01120125F19E01120125BE
:1007A300F49E011201253C9F011201257E9F011237
:1007B3000125E59F011201252C89031201253F899B
:1007C30003120125588903120125A3890312012568
:1007D3007E8A031201250D8B03120125588B031208
:1007E3000125E82200120125F422001201252D2300
:1007F300001201257223001201252924001201256C
:10080300AF240012012514250012012540250012F2
:1008130001257925001201258D270012012569295B
:1008230000120125542B001201258B2C00120125E7
:10083300EB2E00120125D72F001201251D310012C6
:1008430001252A32001201254732001201257F3289
:1008530000120125993200120125013300120125EE
:100863009B37001201253C38001201258D380012F8
:100873000125B4380012012502390012012520395F
:10088300001201257439001201254D3A0012012589
:10089300D43B001201255C3C0012012599DD0212B4
:1008A3000125A3DD021201256EDE0212012589DE78
:1008B30002120125AFDE02120125F3DE0212012529
:1008C3002BDF0212012554DF02120125CDDF0212B4
:1008D3000125E2DF02120125F7DF021201252EE0D6
:1008E3000212012542E00212012573E002120125E2
:1008F300ADE002120125D9E0021201251EE1021228
:10090300012583E102120125CCE102120125F6E162
:10091300021201251BE20212012575EF02120125C5
:100923003FF00212012522F10212012598F1021271
:100933000125DAF10212012507F3021201250080D5
:10094300021201252980021201254280021201258B
:100953008781021201256582021201258482021217
:100963000125118302120125548302120125A1845A
:1009730002120125408502120125BF8702120125BB
:100983005688021201252A89021201250C8A0212B5
:100993000125788B021201250B8C02120125E795A4
:1009A30003120125509603120125A4960312012573
:1009B300CB9603120125EBE60212012558E702123A
:1009C3000125A3E70212012598E80212012594E903
:1009D300021201257EEA0212012561A002120125FD
:1009E300A3A0021201257DA10212012556A2021223
:1009F300012551A30212012530A4021201259CA452
:100A03000212012563A502120125CEA502120125BA
:100A130035A60212012560A602120125D1A60212F3
:100A2300012564A702120125CDA702120125E2A721
:100A3300021201252AA80212012543A80212012548
:100A4300A8A802120125ABA8021201254E830312A6
:100A53000125768303120125B483031201257284D1
:100A630003120125DD8403120125F98403120125F4
:100A73002185031201255185031201256085031287
:100A83000125DA8503120125008603120125AFA093
:100A9300011201254CA20112012532A401120125E4
:100AA300FCA40112012543A5011201258AA5011207
:100AB30001259CA501120125DCA5011201250BA628
:100AC3000112012557A6011201258FA60112012546
:100AD300BDA6011201250EA7011201259DA7011232
:100AE30001258BAA0112012565AC01120125A1ACD8
:100AF30001120125FBAD0112012542AE01120125B0
:100B0300B7AE0112012505AF01120125ADAF0112E8
:100B13000125BB7600120125D87600120125727CCF
:100B230000120125747D00120125EE7E00120125BD
:100B33009C7F00120125A35000120125EC500012E6
:100B430001251951001201254C510012012559515B
:100B5300001201256551001201257751001201256C
:100B63004C5200120125AA5200120125DF52001235
:100B730001257B5400120125C85400120125EC54B1
:100B830000120125595500120125FE5500120125B9
:100B9300BA5600120125395700120125FD570012DC
:100BA30001250C58001201258D58001201252C59DE
:100BB300001201255E5900120125F9590012012581
:100BC300575A00120125915A00120125125B001297
:100BD3000125DB5B00120125845C001201250B5DFE
:100BE30000120125635D00120125C45D0012012579
:100BF300ED5D00120125A35E00120125ED5F0012D9
:100C030001253060001201254D60001201256C6042
:100C130000120125B76000120125DC6000120125D6
:100C2300056100120125746100120125B6610012ED
:100C33000125BA62001201255463001201252064C4
:100C430000120125396400120125C0960212012504
:100C53001397021201251F9702120125F49702121E
:100C630001251B9802120125569802120125C298EC
:100C730002120125F698021201252F99021201256D
:100C8300479902120125A09902120125B99902126E
:100C93000125029A02120125159A021201252F9AA3
:100CA30002120125459A02120125619B02120125B8
:100CB300729C02120125BF9D02120125A49E0212FD
:100CC3000125F47F001201257DE701120125B1E71B
:100CD300011201251CEB0112012566EC011201250D
:100CE30030ED01120125BAEE0112012595EF011233
:100CF3000125CFEF01120125F2EF0112012534F096
:100D0300011201253DF00112012587F00112012591
:100D130091F0011201253DF10112012511F2011299
:100D2300012565F201120125C7F2011201251AF30B
:100D33000112012549F30112012588F3011201254E
:100D43006B6400120125C56C00120125CB6C0012E7
:100D530001258672001201256C76001201250080A0
:100D6300031201257680031201258C8003120125CD
:100D7300C980031201250181031201257E8103121B
:100D83000125B981031201253482031201257082E2
:100D9300031201257982031201258582031201259D
:100DA3009F8203120125C48203120125DA820312F2
:100DB30001251E830312012526D40212012539D4ED
:100DC3000212012553D4021201257CD402120125FB
:100DD300BFD402120125FED4021201253CD5021212
:100DE3000125A1D502120125B6D502120125C1D5CF
:100DF30002120125CED502120125E5D502120125E5
:100E0300F3D502120125FED5021201250AD60212DC
:100E130001251DD60212012528D6021201254BD623
:100E230002120125F4D60212012504D7021201256C
:100E33001ED7021201253BD70212012557D70212F2
:100E430001257CD70212012586D7021201259AD7E4
:100E530002120125B9D7021201251AD8021201255F
:100E630020D80212012526D8021201252CD80212FD
:100E7300012538D8021201256BD80212012504CDB1
:100E83000112012586CD011201252FCE0112012564
:100E930077CF0112012585D1011201256BD20112F1
:100EA3000125A0D201120125C2D2011201256BD363
:100EB300011201253BD50112012564D5011201253B
:100EC300DCD5011201250ED6011201251BD6011214
:100ED300012566D6011201258AD601120125DBD828
:100EE30001120125E5D90112012541DA011201257B
:100EF30081BE0112012592BF0112012576C00112A4
:100F0300012580C001120125A2C001120125AEC036
:100F13000112012552C2011201257FC201120125CE
:100F230095C301120125EAC30112012539C5011236
:100F330001250EC6011201256AC601120125D5C677
:100F4300011201250AC7011201254DC7011201250E
:100F530017CA011201252FCA01120125C0CA0112A5
:100F63000125CECA011201251BCB0112012529CB74
:100F73000112012595CB0112012510CC0112012587
:100F830067CC0112012563F40112012585F40112D6
:100F9300012596F60112012555F9011201257FFA63
:100FA300011201253DFB0112012529FC0112012536
:100FB300BA8F03120125DF8F031201255590031207
:100FC3000125D7C002120125E0C002120125E9C0A4
:100FD30002120125C1C10212012572C302120125A9
:100FE300A2C302120125CDC302120125FDC30212C1
:100FF300012528C4021201255CC40212012588C4FC
:1010030002120125CBC402120125F6C402120125E6
:101013003DC50212012592C502120125D4C5021253
:1010230001252EC60212012559C602120125A8C6A2
:1010330002120125D8C60212012503C70212012597
:1010430031C70212012554C70212012581FF011283
:101053000125ADFF01120125DAFF01120125E4FF8D
:1010630001120125F4FF0112012505B10212012528
:101073000FB10212012550B10212012599B10212DA
:101083000125D3B10212012529B2021201254AB268
:1010930002120125F9B40212012502B5021201253B
:1010A30056B5021201257FB50212012589B5021238
:1010B3000125F7B50212012587B602120125E2B612
:1010C3000212012510B70212012598B70212012559
:1010D300D7B7021201250CB8021201251EB802125D
:1010E30001253DB80212012546B80212012508B9AF
:1010F300021201250F9903120125C98D031201253F
:10110300FF8D03120125338E03120125808F0312F5
:101113000125FE9B03120125149C031201251E9C2D
:1011230003120125689C0312012540EB02120125DD
:1011330053EB0212012517EC0212012556EC0212A1
:10114300012573EC02120125ACEC02120125F9EC26
:10115300021201252BED0212012562ED0212012577
:101163002693031201254993031201257893031251
:1011730001251094031201252894031201256A9472
:10118300031201254886031201256D8603120125EA
:10119300978603120125C79C03120125C33C001245
:1011A3000125A13E00120125404000120125EB401C
:1011B300001201256B4100120125F04100120125A7
:1011C300194200120125F445001201256B46001255
:1011D3000125824700120125BC4700120125FD4766
:1011E300001201254449001201259A4900120125E4
:1011F300E34900120125524A00120125BE4A00129A
:101203000125EF4A00120125074B00120125204C4E
:1012130000120125304C00120125E64D0012012574
:10122300FD4D001201252F4E00120125D14F001252
:1012330001256550001201253E9E03120125709D74
:1012430003120125AF9D031201252B9E03120125D5
:10125300DD9A03120125ED9A03120125059B031262
:1012630001256B9B031201250D980312012592980A
:1012730003120125F69803120125FC96031201259A
:101283001E97031201257F9703120125CF9703129F
:101293000125FDFA0212012512FB0212012556FC5B
:1012A30002120125D2FC0212012546FD021201257C
:1012B30060FD0212012577FD021201258AFD02124B
:1012C3000125A4FD02120125BBFD02120125E1FD4A
:1012D3000212012532FE021201254F9E031201253F
:1012E30032F702120125C2F7021201254BF802124E
:1012F3000125E7F80212012578F90212012528FADF
:101303000212012536FA02120125B4FA021201254E
:10131300C7FA02120125DDFA02120125E7FA0212C9
:101323000125FAFA02120125B3940312012523952C
:10133300031201252E95031201253E950312012563
:1013430049950312012565950312012567FE0212D3
:101353000125B9FE021201252CFF0212012599FF76
:1013630002120125828B03120125AC8B0312012586
:101373007B8C03120125578D03120125CFA802127E
:1013830001259BA902120125DCA90212012516AA37
:101393000212012574AA02120125C8AA021201250C
:1013A30026AB02120125BCAB02120125C4AC02120A
:1013B30001254EAE02120125ECAE0212012553AFF8
:1013C3000212012566AF021201255AB0021201254D
:1013D300A3B0021201258EDA01120125C0DD01122C
:1013E300012551DF01120125A8DF01120125C5DF07
:1013F3000112012545E001120125C1E10112012578
:1014030090E201120125FDE501120125E7E6011233
:10141300012536B90212012574B9021201256EBCE9
:1014230002120125F9BC02120125B5BD02120125E4
:10143300EABE0212012502C00212012584C0021273
:101443000125E8D80212012538D90212012555D900
:10145300021201257DDA02120125F6DA02120125B4
:10146300CEDB0212012560DD02120125B99D0312B4
:101473000125BE7F00120125E59D031201250D9E66
:1014830003E066701008A3E066700A08A3E06670C4
:101493000408A3E06622C3E7960809E7960809E76C
:1014A300960809E79622C3E09608A3E09608A3E00E
:1014B3009608A3E09622C008C3E096F50808A3E0C7
:1014C30096420808A3E096420808A3E096450870F0
:1014D30001D3D00822080808EAC0E0EBC0E086F098
:1014E300E7A4FA180986F0E7A42AFA180986F0E7B0
:1014F300A42AFA180986F0E7A42AFA1986F0E7A4C1
:10150300FBE5F02AFA190886F0E7A42BFBE5F03A8D
:10151300FA190886F0E7A42BFBE5F03AFA18180944
:1015230086F0E7A4C5F02BFBE43AFA1908E7C5F007
:10153300C6A426F6E5F03BFBE43AFA1886F0E7A4E6
:10154300F6E5F00826F6E43B08F6E43A08F6D0E0C0
:10155300FBD0E0FA22E4CFC0E0E4CEC0E0E4CDC0AB
:10156300E0E4CCC0E075F020C3E633F608E633F6DA
:1015730008E633F608E633F6181818EC33FCED33B7
:10158300FDEE33FEEF33FFC3EC9709ED9709EE97BA
:1015930009EF97191919400FFFEC97FC09ED97FD17
:1015A30009EE97FE191906D5F0BEECF709EDF70918
:1015B300EEF709EFF7191919D0E0FCD0E0FDD0E000
:1015C300FED0E0FF226016080808C6C313C618C67B
:1015D30013C618C613C618C613C6D5E0EA22700987
:1015E300080808226016181818C6C333C608C6337D
:1015F300C608C633C608C633C6D5E0EA22E627F6D0
:101603000809E637F60809E637F60809E637F62249
:10161300E026F608A3E036F608A3E036F608A3E0D2
:1016230036F622E026F008A3E036F008A3E036F011
:1016330008A3E036F022C3E697F60809E697F60812
:1016430009E697F60809E697F622C3E096F008A3A1
:10165300E096F008A3E096F008A3E096F022E056A7
:10166300F608A3E056F608A3E056F608A3E056F6FC
:1016730022E056F008A3E056F008A3E056F008A3D2
:10168300E056F022E0F608A3E0F608A3E0F608A38C
:10169300E0F622E6F008A3E6F008A3E6F008A3E6E6
:1016A300F022E0FAA3E0FBA3E0FCA3E0FD22EAF0D2
:1016B300A3EBF0A3ECF0A3EDF022CAC0E0E6F0A3A5
:1016C30008DAFAD0E0FA22CAC0E0E0A3C582CCC5AA
:1016D30082C583CDC583F0A3C582CCC582C583CD26
:1016E300C583DAE6D0E0CA22C3E498F8E499F91294
:1016F300172C8026C3E49AFAE49BFBE920E7E9125E
:10170300172CE498F8E499F922C3E498F8E499F9DA
:1017130012172CE498F8E499F9C3E49AFAE49BFBD2
:1017230022EB20E7CFE920E7E0B90010BB0008E88F
:101733008AF084F8AAF022E4FBC8FA22EB70227B39
:1017430010C833C8C933C9335007C39AC3DBF28007
:10175300069A50012ADBEAC833F4C8C933F4C9FA3C
:101763002275F008E4C833C8C933C933C99AC99B81
:101773005004C92AC93BD5F0ECFBC833F4C8E4C90B
:10178300FA22600D08C6A2E713C618C613C6D5E031
:10179300F322600C08C6C313C618C613C6D5E0F4FB
:1017A30022700422600D18C6C333C608C633C6D5DB
:1017B300E0F41822251810AF08F518400215198017
:1017C30008F51840021519D2AF22C0D0251810AF62
:1017D30008F518500205198008F51850020519D2AA
:1017E300AFD0D0222518F58210AF08F518400215A6
:1017F300198008F51840021519D2AF8519832225DF
:1018030018F582E43519F58322E4732518C582C0DF
:10181300E0E51934FFC583C0E0E518C3958224F8D9
:1018230010AF0885831985821880088583198582FE
:1018330018D2AFCEF0A3E520F0A37808E608F0A312
:10184300DEFAEFF0A3E58124FAF8E608F0A3E60850
:10185300F0A3E608F0A30808E608F0A3E608F0A35F
:1018630015811581D0E0FED0E0F815811581158131
:10187300E8C0E0EEC0E0222518C582C0E0E51934D7
:10188300FFC583C0E0E518C3958224F910AF08852E
:1018930083198582188008858319858218D2AFCE73
:1018A300F0A3E520F0A37808E608F0A3DEFAEFF052
:1018B300A3E58124FBF8E608F0A3E608F0A30808F3
:1018C300E608F0A3E608F0A315811581D0E0FED069
:1018D300E0F815811581E8C0E0EEC0E022851983A8
:1018E300851882E0A3FEE0A3F5207808E0A3F608BC
:1018F300DFFAE0A3FFE0A3C0E0E0A3C0E0E0A3C001
:10190300E0E0A3C0E0E0A3C0E010AF088582188543
:1019130083198008858218858319D2AFD083D0823A
:10192300020122851983851882E0A3FEE0A3F52036
:101933007808E0A3F608DFFAE0A3FFE0A3C0E0E045
:10194300A3C0E0E0A3C0E0E0A3C0E010AF0885823D
:10195300188583198008858218858319D2AFD083AF
:10196300D08222C0D02518C582C0E0E51934FFC556
:1019730083C0E0E518C3958224F310AF088583196B
:101983008582188008858319858218D2AFC8F0A391
:10199300E9F0A3EAF0A3EBF0A37908E709F0A3D8F1
:1019A300FAECF0A3EDF0A3EEF0A3EFF0A3D0E0F098
:1019B300A3D0E0F0A3D0E0F0A3E520F0A3E5F0F09E
:1019C300A322851983851882E0C0E0A3E0F9A3E090
:1019D300FAA3E0FBA37808E0F608A3DFFAE0FCA390
:1019E300E0FDA3E0FEA3E0FFA3E0C0E0A3E0C0E0CE
:1019F300A3E0F5D0A3E0F520A3E0A3F5F010AF0832
:101A03008583198582188008858319858218D2AF4A
:101A1300D082D083D0E0F8D0E03274048006740220
:101A230080027401C0E0F4041217E7D0E01216BD7F
:101A3300227404800474028000CCC0E0EDC0E0E5B1
:101A430018C39CCCAD1950011D10AF068C188D190D
:101A530080068C188D19D2AF1216CAD0E0FDD0E0E3
:101A6300FC22D083D082E9C0E0E493A3C386F0C50F
:101A7300F095F0F908E493A386F0C5F095F0700BA8
:101A8300E493A3C3994005E9048002A3E475F0023B
:101A9300A42582F582E5F03583F583D0E0F9E4935C
:101AA300A3C0E0E493C0E022D083D082ECC0E0ED99
:101AB300C0E0E493A3FCE493A3FDED4C600D121A84
:101AC300F7EC24FFFCED34FFFD80EFE493A3FCE48B
:101AD30093A3FDED4C600D121B36EC24FFFCED349B
:101AE300FFFD80EFD0E0FDD0E0FCE493A3C0E0E491
:101AF30093C0E022C0E0C3E4939608740193961860
:101B0300400FE493667008087401936618700070C0
:101B130019A3A3C3E49396087401939618A3A3404F
:101B23000DD0E0D0E0D0E0021AE7A3A3A3A3A3A3C0
:101B3300D0E022C0E0C0F088F0E493667008087437
:101B4300019366187000A8F0A3A3700BD0F0D0E047
:0E1B5300D0E0D0E0021AE7A3A3D0F0D0E02249
:101B640074F512187AEAFEEBFFEE2434F8EF340031
:101B7400F988088909EE2435121C9CF8EE243712E2
:101B84001C9CF50AEC850AF0A4FCAAF0850AF0ED89
:101B9400A42AFDE82CF8E43DF97A257B0012172CE1
:101BA400EA850882850983F05407F87401B80002B5
:101BB4008004C333D8FCC0E0E0131313541FF8EEC1
:101BC40028F8EF3400F9E8245DF582E93400F58360
:101BD400D0E0F8E0586008850882850983801DEE0E
:101BE4002436121C9CF5F0EA84A8F0EE28F8EF34B1
:101BF40000F9E82438F582E93400F583E0F97F043C
:101C040002192674F512187AEAFEEBFFEE24341258
:101C14001C9CC0E0EE2435F582EF3400F583D0E05F
:101C2400F08E828F83A3A3A3A3A3E0FAA3E0FB8E89
:101C3400828F83A3A3A3A3A3A3A3E0FCA3E0FDEC4F
:101C4400C39AF50AED9BF50BEE2480F508EF3400FA
:101C5400F509850882F583E06401702BEE2481F593
:101C640082EF3400F583121A38121CA5740212177D
:101C7400CDE960137CFD7D04EEFAEFFB120BF085D9
:101C84000882850983E4F0AC0AAD0BEEFAEFFB128F
:101C94001B641221F8021C02F582EF3400F583E084
:101CA40022C082C083851882851983E0F8A3E0F9F5
:101CB400C3EA9CEB9D5012C3EC98ED994019C3EA1A
:101CC40098EB99501279018010C3EA98EB9940F58A
:101CD400C3EC98ED9950EE7900D083D08222EAC308
:101CE4009CFAEB9DFB2200008521878522C622C039
:101CF400E074EF121966759B00906182E0A2E640E1
:101D040003021DB4E591A2E64003021DB47591BF20
:101D14009003C2E064057008120D8E120D9A8003C0
:101D2400120D94752100120E00E99003C3F079009E
:101D3400120DF4120B5A7A017B009003C1E0F912E0
:101D440010CA907803E064426003021DFD90055FB1
:101D5400E014F06003021DFDC2AF121D6100782A79
:101D6400D0E0F618D0E0F6E59F5407F9700590909E
:101D74009080039090947808121687E9C4C0E078A4
:101D840029E65508F50808E65509F509740B78089D
:101D9400121795D0E02508F8906270E0A2E740F8A9
:101DA400E8C333906272F0906270E0D2E0F0804950
:101DB400E0A2E55024E591A2E5501E7591DF900361
:101DC400C2E0640D70139003E4E004F06428700230
:101DD400E4F07A00E0F9120E72906181E0A2E3501F
:101DE40009E5E9A2E3500375E9F7A3E0A2E7500986
:101DF400E591A2E7500375917F7F040219C5C0E005
:101E0400C0D0C082C083906183E0A2E05009E5BFE6
:101E1400A2E0500375BFFEE0A2E15009E5BFA2E1D4
:101E2400500375BFFDE0A2E25009E5BFA2E25003F2
:101E340075BFFBE0A2E35009E5BFA2E3500375BF01
:101E4400F7E0A2E45009E5BFA2E4500375BFEFE058
:101E5400A2E55009E5BFA2E5500375BFDFE0A2E6A5
:101E64005009E5BFA2E6500375BFBFD083D082D02E
:101E7400D0D0E032C0E074F2121966E5A7A2E450B3
:101E84000FE5A1A2E4500953A7EF75A1EF121ECCF0
:101E9400E5A7A2E5500CE5A1A2E5500653A7DF751E
:101EA400A1DFE5A7A2E15009E5A1A2E1500375A1D4
:101EB400FDE5A7A2E2500CE5A1A2E2500653A7FB60
:101EC40075A1FB7F010219C574F812187A752101F6
:101ED4009003C2E0640670077A007B00120D76A2BC
:101EE400AFE433FED2AF9003C8E0640170187A20E7
:101EF4007B009003C1E0F912114E7A207B0090031D
:101F0400C1E0F91210D0906182E0D2E6F090055E53
:101F1400E0602185C62280169003C7E06401700842
:101F2400E5C654F84405F5C653BEFC121CEC740116
:101F3400652160E4EEA2E092AF7F01021926000061
:101F44008E238F248582288583278518828519838B
:101F5400E0CEA3E0CF852882852783EBC9EAC8EDCC
:101F6400CBECCA75F010C3E833C8E933C9EA33CA05
:101F7400EB33CBC3EA9EF526EB9FF525B35004ABB8
:101F840025AA26EC33CCED33CDD5F0DAAE23AF243D
:101F94002274F112187A8A088B098C0A8D0B740F3B
:101FA400121802780C1216879090CC7808121661D9
:101FB4009090CC780C1216617808790C1214995010
:101FC400157808790C1216399090DC78081214B937
:101FD400401579018013780C79081216399090DC39
:101FE400780C1214B940EB79007F0802192674EDBD
:101FF40012187A8A088B098C0A8D0B741312180232
:10200400780C1216879090CC78081216619090CCB8
:10201400780C121661780C7908121499401178081A
:10202400790C121639AA08AB09AC0AAD0B802275DB
:1020340010007511007512007513017810790C12D7
:10204400163978107908121600AA10AB11AC12AD2B
:10205400137F0C0219269090CC78081216878A8276
:102064008B8378081216747F0402192674F51218EB
:102074007A8C828D8378081216878A828B837808FB
:1020840012164D1220C4C3E098F0A3E0991220B6B2
:10209400401E9090C878081216878A828B8378082D
:1020A4001216268E828F83E02420F0A3E0344EF0B3
:1020B40080A4F08E828F83C3E09420A3E0944E2208
:1020C400EA2404F8EB3400F9E8FEE9FF8C828D83FE
:1020D400A3A3A3A3E0F8A3E0F98E828F832274F56F
:1020E40012187AE9FE900514E0FAA3E0FBEEC3337C
:1020F400F8E433F9741528F582748F39F583E02AEE
:10210400F508A3E03BF5097808121A219090C4124F
:1021140016A5121F4474021217CD8A088B098C0A63
:102124008D0B741078081215C8AA08AB097F040235
:10213400192674F112187A8A0C8B0D8C0E8D0F747B
:102144000F121802E0FAA3E0FB7411121802E0F572
:1021540008A3E0F5097413121802E0FEA3E0FF7867
:1021640008121A21EA2401F508EB3400F509E4F514
:102174000AF50B780C79081214D89090EC780812B0
:102184001687780C79081214D8AA0CAB0DAC0EADD6
:102194000F121F4474021217CD8B09EA450960041B
:1021A4007A0180027A00EC2AFCED3400FDECF8EDB3
:1021B400F97A717B0212172C88088909E4F50AF56B
:1021C4000B8E828F837808121696ECF8EDF97A71EB
:1021D4007B0212172C8A088B09740578081217A43D
:1021E4008E828F83A3A3A3A3E508F0A3E509F07F60
:1021F40008021926C082C083E9906000F0D083D021
:102204008222C0E074F2121966A2AFE433FED2AFA8
:10221400C2C0E5D1A2E4500653D1EF121322EEA2BC
:10222400E092AF7F010219C5C0E074F2121966A2F0
:10223400AFE433FED2AFE589A2E04006E589A2E12E
:10224400500312128C758900758900C2C5EEA2E094
:1022540092AF7F010219C5C0E0C0D0E8C0E0E5A894
:10226400D2AFC2C7A2E792AFD0E0F8D0D0D0E0326C
:10227400C0E0C0D0E8C0E0E9C0E0C008C009C08246
:10228400C083A2AFE433F9D2AF9009E0E0F8A3E051
:10229400687008539AFBA374018026C2E99009E090
:1022A400E0F50874012508F074602508F5827409C6
:1022B4003400F583E0F5C19009E0E0C39480400266
:1022C400E4F0E9A2E092AFD083D082D009D008D064
:0A22D400E0F9D0E0F8D0D0D0E032FD
:1022E000FFFFFFFFFFFFFFFFC082C083E9900B9E4F
:1022F000F002256C74F712180EE99002E0F07C18D9
:102300007D037AFF7BFF1208729002E174FFF0A355
:10231000F0A3E4F0A3F079051207FA9002E0E0F9E7
:102320001207227A907B08120A5202327A74F4124F
:10233000180E8A088B09EB548060309002E0E0F9B7
:102340001210B28A0A8B0BAE0AAF0BEE4F60138EDF
:10235000828F83E064B07003120812EEFAEFFB1272
:1023600010A0AA08E5096480FB80047A007B0002C3
:10237000253B74F212180E74FC1217B7EAFEEBFF3D
:102380007412121802123761EE4F70030224157492
:1023900002121802EEF0A3EF122776ECF0A3ED1272
:1023A0002776AA82AB8312071CE9F50A706AE50852
:1023B000450960648E828F83123747EE4F60567AEC
:1023C000067B001211068A0C8B0DA80CA90DE8499A
:1023D0007005750A13804188828983E4122422EEF5
:1023E000F0A3EF123772E508F0A3E509F09002E6DA
:1023F0001224A99002E67005123224801B123212B8
:102400008003EAFCEBFD8C828D831224A970F38C8F
:10241000828D8380E3750A02A90A74041217CD0223
:102420003961F0A3123718A32274F212180E890A28
:10243000E975F017A4FEAFF09002E5E4F09002E336
:102440001224A9600A12110C9002E3E4F0A3F0EE4A
:10245000FAEFFB1211068A088B09EA4509602FEE94
:10246000FCEFFD79001210889002E3E508F0A3E587
:1024700009F07B008008122493E4F0A3F00BEBC377
:10248000950A40F2E50A9002E5F07900800279139E
:10249000023961EB75F017A4F8A9F09002E3E02887
:1024A000FAA3E0398A82F58322122EB6EA4B22740F
:1024B000F412180E740C12180212373CFEE9FF7564
:1024C0000800750900800CE5082401F508E50934C9
:1024D00000F509C3E5089CE5099D503285080A8589
:1024E000090B7403780A1217A4EA250AF8EB350BD6
:1024F000F988828983A3A3A3A3A3A31232F9EE656B
:102500000A7003EF650B70BFE8FAE9FB80047A00FC
:102510007B00802774F412180E7900EAA2E0501BA9
:102520007508517509907808121A217C047D007A8B
:10253000A07B0B1207F474021217CD7F040218E07F
:10254000C082C0839002E6122573601C8882898352
:10255000A3A3E06A7003A3E06B8882898370E8A379
:10256000A3A3A3122EB280047A007B00D083D08272
:10257000020122123A47E8492274EE12180E74FC46
:102580001217B7EAFEEBFF851882851983E4F0A3E2
:10259000F0EE2402123204EE240512371FEE24045A
:1025A000F50EEF122B2BE024FE603924FC6046244C
:1025B000FE605224FE605E24FE700302268C24FE20
:1025C00070030226F024FE70030226FF24FE70032F
:1025D00002270E24FC700302271D24FE700302272D
:1025E0002C0227699002FF7417F0A3E412277E12D1
:1025F000049A022769851882851983AC82AD8312FB
:102600000818022739851882851983AC82AD831298
:10261000081E022739850C08850D0974021218025C
:10262000AC82AD83850882850983122EB2120740E1
:102630008A0C8B0DAC0CAD0DEC4D603BE4F50CF54C
:102640000D780C121A21750CFF750D02780C121AF8
:1026500021750C00750D03780C121A2174081218DC
:1026600002121A38123BC31217CDE9F50C700B1287
:102670002EA81204B2800F750C018508828509838B
:1026800012276C123224850C0802273C740212189F
:1026900002AC82AD83850C82850D83122C7D603C5B
:1026A000850C82850D83A3A3121A387510FF75114E
:1026B000027810121A217510007511037810121A81
:1026C000217408121802121A38123BC31217CDE9EE
:1026D000F509700B122EA81204B8800F7509018538
:1026E0000C82850D8312276C123224850908804CD8
:1026F000851882851983AC82AD83120824803A85BF
:102700001882851983AC82AD8312082A802B851824
:1027100082851983AC82AD83120830801C851882B3
:10272000851983AC82AD83120836800D85188285A9
:102730001983AC82AD8312083CE9F508E5086029ED
:102740008E828F83A3E06414601F850E82850F83C1
:10275000E09002FF122776123A43900300123224CF
:10276000E508A312277E120494023113123A47851A
:10277000188285198322F085188285198322F07CBE
:10278000FF7D02850A82850B83122EB62274EE121B
:10279000180E74FC1217B78A0A8B0B8C0E8D0FEA79
:1027A0002405F508EB3400F5097C157D0079007AE5
:1027B000FF7B02121088E5082402F50CE5091237A8
:1027C00022851882851983858210858311781012DD
:1027D0001A21850882850983A3A3A3A3122C74124E
:1027E0001A21E5082405F510E5093400F5117810E3
:1027F000121A21850C82850D83122FC912073A7493
:10280000061217CD8A108B11AE10AF11E50A240203
:10281000F50AE50B123207EE4F700302294B8017C1
:102820007402121802122EB288828983EAF0A3EB96
:10283000F09002FFE004F09002FFE0C39405400333
:1028400002294BE4F510F5117810121A217510E8E1
:102850007511027810121A217510E975110278109D
:10286000121A217406121802121A387910EEFCEFAF
:10287000FD123BC51217CDE9705E8508828509837C
:10288000A3A3A3A3A3A3A3E0F89002E8E068704881
:10289000122C74121A217CE97D02E5082408FAE55D
:1028A000093400FB12108274021217CDE960298EE0
:1028B000828F83A3A3A3A3122EB29002FFE0F51090
:1028C000740278101217A474002510F58274033571
:1028D00011F583EAF0A3EBF074021218028582105E
:1028E0008583117810121A217402121802121A38F4
:1028F000850C82850D83122ED81217CD8A108B116C
:10290000AE10AF119002FFE0F5107511007402785F
:10291000101217A474FF2510F874023511F988827B
:102920008983A31224A97003022817E82403080846
:1029300008E93400F9EE4F60030228208882898379
:1029400074FFF0A3F09002FFE004F09002FFE0605B
:102950000A122EA81204A67900800B850882850928
:102960008312321B790A02311374EA12180E74FEB4
:102970001217B78C128D13EA2405F50CEB123BAD40
:1029800012374B750800750900EA2402F510EB3484
:1029900000F51185188285198385820A85830B7855
:1029A0000A121A21850C82850D83A3A3A3A3122BDF
:1029B00041121A21E50C2405F50AE50D12320778BB
:1029C0000A121A21850C82850D83122B4512073AB3
:1029D00074061217CD8A0A8B0BEA450B7003022A84
:1029E000E6EA2404F50EEB122B2B12374B8A828B6E
:1029F00083A3A3A3E0F9851082851183122EBC6006
:102A000003022AE6E4F514F5157814121A21751458
:102A1000E87515027814121A217514E975150278F3
:102A200014121A217406121802121A387913AC0AF9
:102A3000AD0B851082851183123BCB1217CDE9F5C2
:102A4000096003022AE69002E8E0F8E5087009E070
:102A50002402900300F08014900300E0FCE82402BC
:102A6000FAE43400FBEA6C7001EB707E850882AA00
:102A700082122C6B9414122C63506B850E82850F7E
:102A800083E0C0E074012A122B22D0E0F005088513
:102A90000E82850F83A3E0C0E085080A7401250A31
:102AA000122B22D0E0F005089002E8122B41121AF6
:102AB000217CE97D0285080A7401250A122B351252
:102AC00017CD9002E8E02508F50874FF6E700374D6
:102AD000FF6F6012EE24010EEF3400FFE508C3948F
:102AE000145003022993E5086013122EC685108244
:102AF000851183122EB21204AC79008014E509709E
:102B00000375090A851282851383EEF0A3EFF0A9FD
:102B10000974021217CD7F0E0218E085080C7401AB
:102B2000250CF58274033400F583223400F50F85FB
:102B30000E82F58322FA74033400FB1210707402C3
:102B40002212378122A3A3122B4B22123212FDEE46
:102B5000FAEFFB2274EE12180E74FE1217B78C0EE9
:102B60008D0FEA2405F50CEB123722750B0090024D
:102B7000FFE4F0F50AEA2402F508EB3400F50980D9
:102B8000449002FFE0FA9002E8E0F8122C6B9417F0
:102B9000122C63400D9002FFE0F87416C398900267
:102BA000E8F0122C74121A217CE97D0274002AFAD2
:102BB0007403122B381217CD9002E8E0F89002FF50
:102BC000E028F0050AE50C2416F582E50D122B2607
:102BD000E0F8E50AC39850749002FFE0C3941650E1
:102BE0006BE50AC333F8E433F9E50C28FEE50D394B
:102BF000FF851882851983AC82AD838E828F831204
:102C00002C7D7008750B011232178050E4F510F519
:102C1000117810121A217510E87511027810121A25
:102C2000217510E97511027810121A217406121814
:102C300002121A387916850882850983123BCB1255
:102C400017CDE9F50B7003022B8180BB7CFF7D0261
:102C5000850882850983122EB21204BEA90B740264
:102C6000023115E99400C365D03322EA28F8E43430
:102C700000F9E822E0F51075110078102212310AEF
:102C80008A108B11AC10AD11EC4D2274EA12180EA3
:102C900074FC1217B78A0C8B0D8C128D13EA240565
:102CA000F50AEB123207750800750900E50A2402DF
:102CB000F510E50B3400F511740212180285820E2E
:102CC00085830F780E121A21850A82850B83A3A3B0
:102CD000A3A3123727121A21E50A2405F50EE50BE6
:102CE0003400F50F780E121A218510828511831297
:102CF000320D122EAC12073A74061217CD8A0E8BC3
:102D00000FAE0EAF0FE50C2402F50EE50D3400F505
:102D10000F80388882898374FFF00508122B1B749A
:102D2000FFF005089002E8E0F50C750D00780C1234
:102D30001A217CE97D0285080C7401250C122B35C3
:102D40001217CD9002E8E02508F508EE4F60278EB7
:102D5000828F83A3A3A3E0F9850E82850F83122EB1
:102D6000BCEE240412371FE96027850C82850D8391
:102D7000122E9E123224E5087003022E84122EC6F3
:102D8000850E82850F83122EB21204C47900022EA2
:102D900099E4F514F5157814121A217514E87515CF
:102DA000027814121A217514E97515027814121A92
:102DB000217408121802121A387911EEFCEFFD8501
:102DC0000E82850F83123BCB1217CDE9F509709A5D
:102DD000850882AA82EA9002E87009E02404900340
:102DE00000F08025E0F8900300E0F514E82404FCEE
:102DF000E43400FDEC65147001ED7081122C6B94CD
:102E000012122C634003022D7D850C82850D83E018
:102E1000C0E074012A122B22D0E0F00508850C8254
:102E2000850D83A3E0C0E0122B1BD0E0122EE185BC
:102E3000820C85830D780C121A2174041218021268
:102E40001A38851082851183122ED81217CD8A0C5C
:102E50008B0DAE0CAF0D85080C7401250CF87403B6
:102E60003400F9EE4F7003022D1385188285198303
:102E7000E088828983122EE1A3E0C0E0122B1BD0F0
:102E8000E0022D21E509700375090A850A82850B88
:102E900083122E9E123224A9097404022B13123AB3
:102EA00047851282851383227CFF7D02850A8285F5
:102EB0000B83122EB622E0FAA3E0FB22122EB612EA
:102EC0000728E9F50922900300E0F5F0E508849071
:102ED00002FFF07CFF7D0222122B4B120746740486
:102EE00022F005088518828519832274EC12180EC9
:102EF00074FE1217B78A088B098C0E8D0FEA240511
:102F0000FEEB3400FF1230F4EE241812371FEA45AE
:102F10000B7003022F971230DD5029122FBC8A103C
:102F20008B11EA4511606B7912AC0AAD0B850882F2
:102F3000850983122EB285108285118312180CE93F
:102F4000F50A7058E4F50AF50B780A121A218E82F8
:102F50008F83A3A3E0F50A780A121A21EE24031244
:102F60003204780A121A218E828F83122FC9120816
:102F70006074061217CDE9F50A7021850C82850D63
:102F800083E0701F850882850983122EB21204CA5D
:102F90008011750A0E8009750A018004E50A600334
:102FA000123217850C82850D83E06004790080025F
:102FB000A90A74021217CD7F0C0218E085188285C9
:102FC0001983122EB612084E22123212FD85088283
:102FD000850983122EB62274EE12180E74FE121793
:102FE000B78A088B098C0C8D0DEA2405FEEB3400A2
:102FF000FF750E001230F4EA450B70030230BB126D
:1030000030DD502C122FBC8A0E8B0FEA450F604A20
:103010007912AC0AAD0B850882850983122EB28520
:103020000E82850F8312180CE9F50E60030230BE84
:103030008508828509831232F9AA0AFB1230CF7003
:10304000147AFF7BFF1230CF606C88828983E50A97
:10305000F0A3E50BF0750A008007750E0E805F0582
:103060000A9002E5E0FAE50AC39A504AE50A75F0CB
:1030700017A4FAABF088828983A3A3E02AFAA3E01D
:103080003BFB8A828B8312320DEC4D70D2750A178E
:10309000750B00780A121A21EEFCEFFD1210707405
:1030A000021217CDEEFCEFFD850882850983122EF2
:1030B000B21204D08014750E098003750E01123A05
:1030C0003F850C82850D83123224A90E022C5E12DC
:1030D00008428A108B11A810A911E84922E508249A
:1030E00002F508E5093400F5098A828B83A3A3A3BE
:1030F000E0A2E522851882851983AC82AD838E8299
:103100008F8312310A8A0A8B0B22E0FAA3E0FB12AA
:1031100007402274041217CD7F0A0218E074EC12E3
:10312000180E8C108D11EA2405F50CEB1237227560
:103130000F00EA2402F50AEB123207850A82F583B2
:10314000122EB2123C5170030231F9750E008071DB
:10315000850C82850D83E06401704F8E828F83A37E
:10316000A3121A388E828F83A3A3A3A3E0F512754E
:1031700013007812121A21EE2405F512EF3400F52F
:10318000137812121A21122EAC120860740612174C
:10319000CDE9F50F6014850C82850D83E4F0123AB9
:1031A0003F8510828511831232247C177D007900BF
:1031B000EEFAEFFB1210888E828F83E4F0A3F00505
:1031C0000E9002E5E0F8E50EC398501EE50E75F08E
:1031D00017A4F8A9F0850882850983A3A3123BB739
:1031E00012320DEC4D60030231508508828509834F
:1031F00074FFF0A3F0E50F7006122EAC1204D6A9EE
:103200000F022FB7F50AEF3400F50B22A31232128A
:10321000FD22E0FCA3E0228E828F83123A47850EC6
:1032200082850F83E8F0A3E9F022C082C083900278
:10323000E1E06A7003A3E06B70067AE17B02800430
:103240007A007B0002256C74F712180E7F00EF7570
:10325000F003A4F8A9F0EC28F8ED39F98882898305
:10326000E06A7003A3E06B7006E8FAE9FB800B0FDD
:10327000EFC3940240D87A007B007F010218E0740B
:10328000F612180E12383070067A007B008007A301
:10329000A3A3A3122EB20238F174F212180EE9FEA3
:1032A000740E1218021232F97410121802123761D9
:1032B0008C828D83E06402703BA3123A438882893A
:1032C00083E0F50CA3E0F9A80C740268700374297C
:1032D000697021750C02750D00780C121A2178089E
:1032E000121A21780A121A21EEF9120884740612B1
:1032F00017CD80027901023961E0F50AA3E0F50BF0
:103300002274E812180E74FB1217B7E9851882852B
:103310001983F08A168B178C0E8D0F741F121802EA
:1033200012376174211218021232F9742312180232
:1033300012374B7510008C828D83A3A3A3E0A2E407
:10334000502A741D121802122FC28A828B83E582C2
:103350004583700302340D790AAC0EAD0FAA16AB8B
:103360001712180CE9F5106003023410850E8285DF
:103370000F83E0640260030236C6A3123A43850855
:1033800082850983A3858212858313E50E2406F5C1
:103390000CE50F12372288828983E0FAA3E0F9EA6C
:1033A0002400F514E439F5157814121AAB01000065
:1033B000280128D53307000228AC3403281C340028
:1033C00029D6350129FE350229A5350329D635042C
:1033D000296736C636EE4F703E850C82850D831206
:1033E000373CFAE9FB8A828B83E0850A82850B836E
:1033F000123778121A218A828B83A3123212FDAA05
:1034000008AB0912107074021217CD800375100EEC
:10341000A9107405023BA575100B80F4EE4F70F7F0
:10342000850A82850B837401F012375185088285E5
:103430000983F07C007D00850E82850F83A3A3A302
:10344000A3E02401FAA3E03400FB120740EA4B603A
:10345000418A828B83E02402F8850A82850B83E00F
:1034600028F0EA2404F8EB3400F988828983E085A7
:10347000128285138312378A123778121A218A82B0
:103480008B8312320CE5082403FAE5093400FB02B1
:103490003403850A82850B83E02404F07C047D00DC
:1034A0007900AA12AB13121088023410EE4F600399
:1034B000023417123751FEA3E0FF850A82850B8381
:1034C0007404F0EE850882850983F0EF8512828509
:1034D0001383F07403121802AC82AD83EEFAEFFB93
:1034E00012381E70030235828A828B83A3A312379F
:1034F00047740112180285820E85830F780E121A06
:10350000217405121802121A387CFF7DFF1207463B
:1035100074041217CD8B0FEA450F7033850C82852A
:103520000D83123727121A21850C82850D83A31271
:103530001A387C027D007A187B911205727404128D
:1035400017CDE9700A740112180274FFF0A3F08E0F
:10355000828F83E064027034750C02750D00780C64
:10356000121A218E828F8312320CE5082404FAE5A8
:1035700009122B381217CD850A82850B83E02402AD
:1035800080097401121802EEF0A3EFF07401121812
:1035900002123738F07401121802A3123730A3A3B5
:1035A000A3F0023410EE4F6003023417850C8285BD
:1035B0000D8312320DAA16AB17120878850A828580
:1035C0000B837402F0EA850882850983F0851282F4
:1035D000851383EB80CBEE4F600302341712375113
:1035E000F8A3E0F9850A82850B837402F0E8850868
:1035F00082850983F0E985128285138380A3850C77
:1036000082850D83122EB212106AEAFC8C82A88287
:10361000C39EE49F404BE86E7001EF70047C008015
:103620001F851882851983E0FAEE2AFAEF3400FB31
:10363000C3EA98EB94005003E08004EECCC39CFCFA
:10364000EC850A82850B83F08C0A750B00780A12D0
:103650001A21850C82850D83E02EFCA3E03F023306
:10366000FE751007023410EE4F6003023417850C0C
:1036700082850D83123A43850A82850B837407F095
:1036800088828983123730123718E08512828513B9
:1036900083F0E82402FAE93400FB8A828B83123734
:1036A00030123769123738A3123772123741F0E8F7
:1036B0002405F8E93400F988828983123741A3127E
:1036C000378AA302359E741D12180212382970031E
:1036D00002340D123A43880C890DE8450D7003023F
:1036E000340D8E108F117810121A21780A121A21B7
:1036F0007808121A217406121802E0F9AC0EAD0F08
:10370000AA16AB17850C82850D8312180C7406124D
:1037100017CDE9F510023410F088828983A322F5D1
:103720000CEF3400F50D22E0F50E750F00780E2237
:10373000E08508828509832212379122123A47E8F0
:1037400022123791A3A322A3A3A3A3E0FEA3E0FF29
:1037500022850C82850D83E0F8A3E0F5838882E062
:1037600022E0F508A3E0F50922A3A3F08A828B8367
:10377000A322122424A3A322F08A828B83123781EE
:1037800022E0F50A750B00780A22123718123791D9
:1037900022E0850882850983A3A32274EE12180E05
:1037A00074FE1217B78A0A8B0BECFAEDFB74141235
:1037B0001802E0F510A3E0F5117416121802E0FEED
:1037C0007418121802E0F50EA3E0F50F8518828533
:1037D0001983AC82AD8312381E603E85188285192C
:1037E00083123829602FA3A3123761E508450960C9
:1037F00024780E121A217810121A21EEF9AC0CADB1
:103800000DAA0AAB0B85088285098312180C740473
:103810001217CD8006790E80027901022C5E120704
:10382000408A0C8B0DEA450D22122EB6123830223A
:1038300012080C8A828B83E58245832274F6121863
:103840000E74FE1217B7740C12180212373C85184A
:1038500082851983F07401121802E9F0E4F508F585
:10386000097808121A217508027808121A217404BE
:103870001218028582088583097808121A21120815
:103880006074061217CD74021217CD806474F7129B
:10389000180EEAFEEBFF89087C187D03120878EA0F
:1038A0005402600BA908EEFAEFFB1207348002798C
:1038B0000102327A74F612180E74FF6A700374FFF4
:1038C0006B701C7B00EB75F003A4F8A9F0EC28F8F2
:1038D000ED39F91238F60BEBC39402501480E6125E
:1038E00008488A088B09A808A909E8496003123822
:1038F000F67F020218E08882898374FF122422E492
:10390000F02274F612180E1208488A828B83E58220
:1039100045836006A3A3E0FA80027A007B0080D191
:1039200074F212180E8A088B09ECFEEDFF740E1269
:103930001802E0F50A123966701CEEFCEFFD7AFF02
:103940007BFF12396670047911801688828983E5BD
:1039500008F0A3E509F088828983A3A3E50AF0793A
:10396000007F060218E01208488A0C8B0DA80CA9EB
:103970000DE8492274EE12180EEAFEEBFF8C088D5A
:1039800009890C7412121802123A437414121802A4
:1039900012320D7416121802122EB2750D00EC4D73
:1039A0006003023A377402650C6003023A3288827F
:1039B0008983123212F9EC2400F50EE439F50FEA8E
:1039C000F4F8EBF4F9EC58F8E50F59F9E849705DB3
:1039D000E5082406F8E5093400F9880A890B88828D
:1039E000F583122B471208788A108B11E50E6510AB
:1039F0007004E50F65116042780E121A21850A8263
:103A0000850B83122B4712087E74021217CDE9F53D
:103A10000D7027780E121A21850882850983A3A3C9
:103A2000122B4512089674021217CD800D750D8069
:103A30008008750D0D8003750D0BA90D0231188ED0
:103A4000828F83123A4722E0F8A3E0F92274E81249
:103A5000180E74E71217B7851882851983EAF0A348
:103A6000EBF08C168D17890E7431121802E0F512E6
:103A7000A3E0F5137433121802E0F514A3E0F51572
:103A80007435121802E0F50F750800750900E50994
:103A900075F003A4F8A9F0851882851983123BB745
:103AA000E0F47003A3E0F47003023B95EE2402F50A
:103AB0000CEF123BADE07003023B9585160A8517AB
:103AC0000B780A121A21AC14AD15AA12AB13120806
:103AD0000074021217CD8A0A8B0BEA450B700302A1
:103AE0003B95E4F510F5117810121A21740612189E
:103AF000028582108583117810121A217409121818
:103B0000028582108583117810121A218512828510
:103B10001383A3A3A3A3121A387914AC0AAD0B8E96
:103B2000828F83123BCB1217CDE97069850A82859B
:103B30000B83A3A3A3A3123A4374021218021232F6
:103B400024850C82850D83E0A2E05018A90E740232
:103B5000121802AC82AD838E828F83122EB21207AE
:103B600058E94208850C82850D83E0A2E15026E5E4
:103B70000FF50A780A121A25A90E7403121802AC5E
:103B800082AD838E828F83122EB21207527401127D
:103B900017CDE942080509E509C394025003023A2A
:103BA0008EA90874191217CD7F100218E03400F5A1
:103BB0000D850C82F58322E028FEA3E039FF8E827A
:103BC0008F83227916850A82850B83122EB61208FE
:103BD0005A74082274F212180EEAFEEBFF890B7475
:103BE00001650B600E7402650B70637901120A7037
:103BF000E9705BEEFAEFFB123C516047750A0080FA
:103C00000B7C177D007900121088050A9002E5E010
:103C1000F8E50AC3985021E50A75F017A4F8A9F051
:103C2000850882850983A3A3E028FAA3E039FB8AEB
:103C3000828B8312257370C985088285098374FF7E
:103C4000F0A3F07C187D03EEFAEFFB120872023944
:103C5000611208428A088B09EA45092274F2121897
:103C60000E8A088B09ECFEEDFF740E121802123258
:103C7000F9900B9EE0F4603D7A097B0012109AEAFD
:103C80004B60328A828B8374B1F0A3E412376BA34A
:103C9000123769A3E508F0A3E509123CB8EEF0A3DA
:103CA000EF123CB8A3A3E50AF0A3E50BF0900B9E3E
:103CB000E0F91210A6023961F08A828B83A3A3A3D4
:103CC000A3A32274F412180EE9FF7E008A088B0960
:103CD0007808121A6500040D743EF63C123D273D2B
:103CE0003C3D513D663D823D9B3DAD3DDB3DFD3D57
:103CF000193E353E533E74016F70128C828D83E005
:103D0000C394035008E0900C8AF0023E927E1802A1
:103D10003E9274026F70F68C828D831245D0900CA7
:103D20008BE8F0A3E980E274016F70E18C828D83EF
:103D3000E0C3940250D7E090078180CD74016F708A
:103D4000CC8C828D83E0C3940550C2E090078280C2
:103D5000B874016F70B78C828D83E0C3940250AD4C
:103D6000E090078380A374106F70A27508108E090D
:103D70007808121A217A847B071249941217CD020F
:103D80003E9274016F70868C828D83E0C3940240F2
:103D900003023D0DE0900794023D0974016F60033A
:103DA000023D0D8C828D83E0900C8E808D74046FAB
:103DB0006003023D0D9090C478081216878D838CA5
:103DC0008278081214A94003023D0D8C828D831263
:103DD00016A59007961216B1023E92EF6003023DBF
:103DE0000D1206E0E9700E12120279501213D01271
:103DF00011F6023E929008297401023D0974016F88
:103E00006003023D0D8C828D83E0C3940240030267
:103E10003D0DE0900795023D0974016F6003023D7E
:103E20000D8C828D83E0C3940A4003023D0DE09027
:103E30000C8D023D0974016F6003023D0D8C828D73
:103E400083E024F9C3940A4003023D0DE0900C8FF7
:103E5000023D0974016F6003023D0D900828E0F8EF
:103E60008C828D83E0900828F0E87026E064017071
:103E700021023DEFC3EA9426EB9400501374026FC5
:103E8000700E8C828D831245CA12057EE9FE800277
:103E90000E0EEEF9023E9C740E1217CD7F0402182E
:103EA000E074F012180E74CC1217B78C0A8D0B74D4
:103EB00044121802E0FE7420121802AC82AD837521
:103EC000839075825D74061216CA7420121802ACB3
:103ED00082AD831211A8E9F508C3940A4003024099
:103EE0000575F006E9A4F5097426121802AC82AD36
:103EF000837A0E74202509124A4C70097432121804
:103F000002E0FF80027F00900C8AE064027004747B
:103F1000018001E4F50D780D121A25EEFDEFFCA9E4
:103F200008AA0AAB0B12122C74011217CD7C147D57
:103F3000007900740C121802AA82AB8312108874E4
:103F40000C121802AC82AD837A1074242509124A2F
:103F50004C70377C1079FF740C121802124779707C
:103F600029741C121802AC82AD837A0474252509C9
:103F7000F91213CA740C121802AC82AD83EFA2E0DE
:103F8000E433F9AA0AAB0B12060885188285198357
:103F9000AC82AD837A0C74702508124A4C7055853A
:103FA0001882851983AA82AB831211D8750800E59F
:103FB0000875F003A4F8A9F0851882851983E582B5
:103FC00028F8E5831247B51245CAEC4D601D88827A
:103FD0008983A3A3E0F50E750F00780E121A21AAAB
:103FE0000AAB0B12086674021217CD0508E508C368
:103FF000940440BBEFA2E1500C900780E0F9AA0ABC
:10400000AB0B12086C74046E702A900C8AE0640288
:104010007022900794E060047A0180027A00900791
:1040200081E06004780480027800E84AF9AA0AABCB
:104030000B1206C8790074341217CD7F080218E0FD
:1040400074F012180EEAFEEBFF8C088D09750A0A4F
:10405000E9600C14600914602E14607F0240E612BF
:1040600011EAE9F50AC3940A507CE508450960762F
:10407000750E06750F00780E121A21EEFCEFFD1278
:1040800049901217CD805F750B00750E06750F00F5
:10409000780E121A21EEFCEFFDE50B75F00EA4F878
:1040A000A9F074A228FA740739FB12108274021264
:1040B00017CDE9601B850B0AE50AC3940A5027E572
:1040C0000845096021AA08AB09A90A1211E4801663
:1040D000050BE50BC3940A500D80AF1211F0E9F502
:1040E0000AC3940A40D9A90A02403B74F412180E7C
:1040F000890875091574FF6A700374FF6B70277E59
:1041000000AC087A027B00EEF91211C6E960037573
:1041100009000EEEC3940A40E8E50860497A1A7B6C
:1041200012120A828040120A648A0A8B0BAE0AAF0E
:104130000BEE4F602E7C007D00EE2405FAEF34007C
:10414000FB8E828F831241E2500CAC087A027B0016
:104150001211C6750900E508600CEEFAEFFB1212A9
:104160001A8003750914A909023E9C74F212180EF4
:10417000ECFEEDFF740E1218021245BD75081574A1
:10418000FF6A700374FF6B7021750900AC0AAD0BF8
:10419000EEFAEFFBA9091211CCE9600375080005DE
:1041A00009E509C3940A503580E2120A648A828BB9
:1041B00083E582458360237C007D00E5822405FA47
:1041C000E5833400FB1241E25013AC0AAD0BEEFA6A
:1041D000EFFB1211CC7508008003750814A90802C2
:1041E0004FBBA3A3A3A3E0F91211A8E9C3940A2229
:1041F000C082C08390079AEAF0A3EBF0900780E0BA
:10420000FC7D007A257B0012057E900780E0F91284
:1042100007E2D083D08202012274EA12180E74ECF5
:104220001217B7EAFEEBFFEE240CF514EF3400F59D
:1042300015EE240AF510EF3400F511EE2405F50E05
:10424000EF3400F50FEE2409F50AEF3400F50BEE1C
:104250002403F508EF3400F5098E828F83A3A3E0D1
:1042600024FA700302458624FD70030244B51470DD
:104270000302430414601024FD700302448614708A
:10428000030244EA0245A41245E9604AE0F5838846
:10429000821245D0880C890DE8450D60398514825D
:1042A000851583E0F50E780E121A25EE240BF582A3
:1042B000EF3400F583E0F9850A82850B831245CA45
:1042C0000A0A0AAB09850C82850D8312180C740149
:1042D0001217CD0245A4850A82850B83121A3890E5
:1042E00007961216A512061A74021217CDE970036A
:1042F0000245A47901850A82850B83124DE01206DE
:10430000140245A48E828F83A3858212858313E0D5
:10431000600302445F850E82850F83E0A2E04003C4
:1043200002445F7C0E7D007900851882851983AA7E
:1043300082AB83121088EE2408F50AEF3400F50BE7
:10434000850A82F5831245EC6019750C06750D001F
:10435000780C121A21850A82850B83E02410FCA3B5
:10436000E0801A1245AEEA4B70030245A4750C06B4
:10437000750D00780C121A21EA2405FCEB3400FDBF
:104380007402121802AA82AB831249941217CD85C7
:104390000E82850F83E0A2E25004D2F08002C2F0C8
:1043A000A2F0E433F8740C121802E048F085108291
:1043B0008511831245EC6015851082851183E024F8
:1043C00010F8A3E03400F98882898380039090C8B4
:1043D000780C1216878510828511831245EC600FC8
:1043E000851082851183E0F510A3E0F51180067534
:1043F0001000751100850A82850B831245EC600B55
:10440000850A82850B831245BD8006750A00750BEF
:1044100000780C121A1D7810121A21780A121A212B
:10442000851482851583121A388E828F83A31245D4
:10443000C5740A121802AA82AB831211DE740A1222
:1044400017CD8508828509831245D090082AE8F0A7
:10445000A3E9F07A017B00900780E0F91210CA12FC
:1044600045E970030245A41245D670030245A485B0
:104470001282851383E0FC7901124DDA8E828F83DC
:1044800012180C0245A41245E970030245A4E0F598
:10449000838882A3A31245D0890BE8450B700302E1
:1044A00045A48E828F83A3E0FC7902124DDA8882C4
:1044B000850B8380CB7C007D00EE2404FAEF340072
:1044C000FB850882850983E0F91211A8E9F8C394F5
:1044D0000A40030245A4AC10AD117A0475F006E859
:1044E000A42425F91213C40245A4900795E0600E98
:1044F000900C8DE0F98508828509830242FB900CBF
:104500008AE07004790580ED1245AE8A0C8B0DA807
:104510000CA90DE82404F50CE93400F50D8E828F0A
:1045200083A3A3A3A3A3A3A3E0A2E05036E849601A
:1045300073850C82850D83E0FE6028850A82850BD9
:1045400083E05410701D740E121802AC82AD83E823
:104550002405FAE93400FBEEF91211A8E970047998
:10456000038092AC0EAD0F850C82850D83E0F912AD
:104570004DDA1212261245E9602A1245D660257CD2
:104580000079000244791206E0E97018900829E0E9
:1045900064017008121202900829E4F07950121395
:1045A000D01211F674141217CD7F0E0218E0850890
:1045B00082850983E0FAA3E0FB120A6422E0F50A8F
:1045C000A3E0F50B22A3A3A3A3A3E0FCA3E0FD2299
:1045D000E0F8A3E0F922E0F5838882A3A3E0F8A342
:1045E000E0F9E8FEE9FFEE4F2290079AE0F8A3E039
:1045F000F9E8492274F412180E74F21217B7EAFEA1
:104600008C0B75F006E9A42420F50885188285191D
:1046100083AC82AD837A0E124A4C704A7C061247F4
:10462000717043740C1218021245D0E8F509E50BBD
:104630006005EE42098004EEF45209850982AA82DF
:10464000E86A7001E9601B740C121802EAF0A3E436
:10465000F0851882851983AC82AD837A0EA9081281
:1046600013C4790180027900023E9774F212180E89
:1046700074E61217B7890A8A088B09ECFEEDFF74FD
:104680000C121802124A3F60030247257C0679FF8C
:10469000740C1218021247796003024725747025C2
:1046A0000AF50B851882851983AC82AD837A0C12CA
:1046B0004A4C600302476A851882851983AA82AB37
:1046C000831211D8E508450970217C0C7900124746
:1046D00073600302476A7C0C7D007900851882852F
:1046E0001983AA82AB83121088806185188285198C
:1046F00083AC82AD83AA08AB091211D28A0C8B0D50
:10470000A80CA90DE849702CEE4F60198518828518
:104710001983AC82AD837A007B001211D2EAF8EBE8
:10472000F9EA4B70047900804388828983E508F0B8
:10473000A3E509F01247F1FAEE6A7001EF602BEE83
:10474000F04F700888828983E4F0A3F08518828591
:104750001983AA82AB831211D8851882851983AC7C
:1047600082AD837A0CA90B1213C47901741A024F1B
:10477000B879FF851882851983AA82AB831210EE5F
:10478000E92274F712180E7F00EF75F003A4F8A960
:10479000F0EC28F8ED1247B5E06A7003A3E06B7007
:1047A00006E8FAE9FB800B0FEFC3940440DB7A00C4
:1047B0007B00024AEA39F9888289832274F7121849
:1047C0000E7E00EE75F003A4F8A9F0EA28F8EB12CB
:1047D00047B5E0F4FCA3E0F4FD88828983ECF0A304
:1047E000EDF01247F1F4F00EEEC3940440D5024A06
:1047F000EAE82402F582E93400F583E02274EE123F
:10480000180E74F41217B7EAFEEBFF8C0A8D0B74C6
:104810001E121802E0F50CA3E0F50D742012180228
:10482000E0F508A3E0F5097422121802E0F510A3E0
:10483000E0F511EE4F7005790A0249221211EAE9FA
:10484000F50EC3940A4023750F007C0679FFE50F2F
:1048500075F00EA4FAABF0749C2AFA74073BFB12B5
:10486000477D700302492C850F0EE50EC3940A4064
:104870000302492075F006E50EA4F50FEEFCEFFDEE
:104880007A0E742012493DE50A450B600BAC0AAD67
:104890000B7A1B742112493DE50C450D600BAC0CE5
:1048A000AD0D7A1B742212493DE5084509600BAC39
:1048B00008AD097A10742312493DE5104511601BBB
:1048C000AC10AD117A10742412493D7424121802F0
:1048D000AC82AD837A04742512493D7C0C7D00794D
:1048E000FF1250497A0C7470250EF91213C4750822
:1048F0000E7509007808121A21EEFCEFFDE50E7521
:10490000F00EA4F8A9F0749C28FA740739FB124938
:10491000941217CD900828E0600312123212122070
:10492000A90E740C1217CD7F0A0218E0050FE50FCF
:10493000C3940A500302484A750E0A80E3250FF912
:104940001213C42274F412180E74F21217B7EAFE8E
:10495000EBFFE9C3940A5004EE4F70047902802DF6
:10496000851882851983124A3FF508701E750A065C
:10497000750B00780A121A217402121802AC82AD6B
:1049800083EEFAEFFB1249941217CDA908023E9765
:10499000AA08AB0912107074022274F412180EEAFD
:1049A000FEEBFF750800750A06750B00780A121AEF
:1049B00021EEFCEFFDE50875F00EA4F8A9F0749C5B
:1049C00028FA740739FB12108274021217CDE960BD
:1049D00004A908800B0508E508C3940A40C8790AB1
:1049E000023E9C74F712180E74F01217B7EAFEEB31
:1049F000FF750800851882851983AC82AD837A1013
:104A000075F006E508A42423124A4C701F7C10128E
:104A100047717018EEFCEFFD851882851983AA8214
:104A2000AB831205EAE97004A908800B0508E508C4
:104A3000C3940A40BF790A74101217CD024AEAAC37
:104A400082AD837A0E75F006E9A42420F91213CA08
:104A5000E92274F712180E750800E50875F00EA427
:104A6000F8A9F0749C28FE740739FFEEFCEFFD7A7C
:104A70000E75F006E508124A49602C7C067D007927
:104A8000FFEEFAEFFB1210887C067D0079FFEE2422
:104A900006FAEF3400FB121088EE240CF582EF3496
:104AA00000F583E4F0A3F00508E508C3940A40AAE2
:104AB000900828E06003121232121220802C74F742
:104AC00012180E7E007F007C0679FFEF75F00EA4B1
:104AD000FAABF0749C2AFA74073BFB12477D700115
:104AE0000E0FEFC3940A40DFEEF97F010218E07465
:104AF000F712180E7E00EEF91212080EEEC3940A99
:104B00005003E960F180E374F312180E74CB1217AE
:104B1000B7E9FF75F006A4F50874202508FE742790
:104B2000121802AC82AD837A0EEE124A4C60030278
:104B30004C097C0679FF742712180212477960032A
:104B4000024C097C0E7D0079FF7427121802AA829C
:104B5000AB831210887C1B7D0079FF740C12180245
:104B6000AA82AB831210887C0C7D0079FF851882A5
:104B7000851983AA82AB831210887427121802AC9D
:104B800082AD837A0EEEF91213C4E9F509740C12A2
:104B90001802AC82AD837A1B7421124C18FE740C7F
:104BA000121802AC82AD837A1B7422124C18F50ADB
:104BB000740C121802AC82AD837A107423124C1854
:104BC000F50B740C121802AC82AD837A10742412A7
:104BD0004C18F50C740C121802AC82AD837A047474
:104BE00025124C18F508851882851983AC82AD838F
:104BF0007A0C74702FF91213C4E9F8EE450A450BCC
:104C0000450C45084842098003750900A909743517
:104C10001217CD7F050218E02508F91213C4E92206
:104C200074F712180EE9900780F01211F6024AEAA2
:104C300074F212180E74FB1217B78A088B09EB5422
:104C4000807003024CD4900780E0F91210B28A0AF7
:104C50008B0BA80AA90BE8FEE9FFE849606CEE247B
:104C600004F8EF3400F98E828F83E024506038140A
:104C7000600624E1604A804B88828983E070448E1C
:104C8000828F83A3A3A3A3A3A3A3121A388E828F18
:104C9000831245C58E828F83A3A3124DE01211B4F7
:104CA00074021217CD801C88828983E0641E701301
:104CB00079008E828F83A3A3124DE01211AE800380
:104CC0001211C0EEFAEFFB1210A0AA08E5096480E9
:104CD000FB024DD5EAA2E04003024DD190082A1212
:104CE00045BD740312180285820C85830D780C1261
:104CF0001A21750C02750D00780C121A21750C1210
:104D0000750D91780C121A217CFF7DFF7A017B00D2
:104D100012073A74061217CD024DB9E4F50CF50DE1
:104D2000780C121A21740412180285820C85830DE6
:104D3000780C121A21740412180285820C85830DD6
:104D4000780C121A217409121802121A387902EE1C
:104D5000FCEFFDAA0AAB0B12085A74081217CDE932
:104D60007035851882851983E0FA7401121802E003
:104D7000F9EA2400F50CE439F50DEA450D601878E0
:104D80000C121A218E828F831245C6AA0AAB0B120F
:104D900011B474021217CDE4F50CF50D780C121A4B
:104DA000217405121802121A387CFF7DFFEEFAEF0B
:104DB000FB12074674041217CD8A0C8B0DAE0CAF94
:104DC0000DEE4F6003024D1BE5086401FAAB09804C
:104DD000047A007B007405024FB885088285098338
:104DE000E0FAA3E0FB22C082C083900780E0F98A4A
:104DF000828B83A3124DE012086C024212C082C063
:104E00008374FF1217B71211FCE9C394028518824C
:104E1000851983400474028002740AF0AC82AD8369
:104E20007A0179051206F874011217CD0242127444
:104E3000F212180E74E81217B7EAFEEBFF890A8C1B
:104E4000088D097C187D007900125051EEF0A3EF17
:104E5000F0900782E0C0E07402121802D0E0F090F7
:104E60000783E0C0E07403121802D0E0F0900C8FCA
:104E7000E0C0E07417121802D0E0F07415121802A6
:104E8000E054FEF8A3E0F9900C8EE0A2E0E433FADF
:104E9000E84AF87415121802124FC7A2E15004D262
:104EA000F08002C2F0E854FDFAA2F0E43333F8EAED
:104EB00048F87415121802124FC7A2E35004D2F03A
:104EC0008002C2F0E854F7FAA2F0E433F50C750D55
:104ED000007403780C1217A4124FC0121802124F5C
:104EE000C7A2E45004D2F08002C2F0E854EFFAA264
:104EF000F0E433F50C7404780C1217A4124FC012AE
:104F00001802124FC7A2E55004D2F08002C2F0E8A6
:104F100054DFFAA2F0E433F50C7405780C1217A4F0
:104F2000124FC0121802124FC7A2E25004D2F080F2
:104F300002C2F0E854FBFAA2F0E433F50C740278F4
:104F40000C1217A4124FC0121802E8F0A3E9F09057
:104F50000783E0601B750C10780C121A217C847D8D
:104F6000077406121802AA82AB831249941217CD55
:104F7000900794E06011E50A60097415121802E0C8
:104F80004402F07801800278007414121802E0489C
:104F9000F0900781E06004780480027800741412B5
:104FA0001802E048F0AC08AD09851882851983AA7B
:104FB00082AB8312060E74181217CD7F060218E01A
:104FC000EA450CF8741522E8F0A3E9F0900C8EE0A5
:104FD0002274F312180E74E51217B7EAFEEBFF8C79
:104FE000098D0A7428121802E0F50C75F006E9A480
:104FF000F87408650A700474228002742128F50B85
:105000007C1B7D0079001250497A1BA90B124A4D76
:105010007032741A121802E024F9C3940A5025E57C
:105020000CF50B780B121A257401121802AC82AD24
:1050300083E509A2E0E433F9EEFAEFFB12062074EF
:10504000011217CD741B024C10125051AC82AD836B
:1050500022851882851983AA82AB8312108885184D
:10506000828519832274F712180E1208DE75080063
:10507000E50875F00EA4F8A9F0749C28FE740739B1
:10508000FF7C0679FFEEFAEFFB12477D7009EEFA1E
:10509000EFFB79001208E40508E508C3940A40D044
:1050A000024AEAC082C0839061907404F0A37448FD
:1050B000F0A3E4F09061807440F09061BC7407F05C
:1050C0009061877469F09061B67416F07900120BE4
:1050D000607902120B669022E0E493F46006E49398
:1050E000F9120B3C7905120E540254E5C082C083BC
:1050F000E9540FF9906185E0696012E5C654804477
:1051000049F5C6E59E547F644970F8E9F053C680BE
:10511000E59E547F70FA0254E574F712180EE5A864
:10512000FE53A87E120B48C2BA539AFEC289759BE1
:1051300000C2C2120B4E75A91175B905120B54D2DB
:10514000BA439A0174805E42A8025A72C082C08338
:10515000906181E4F0A30254E275E9007591007555
:10516000BF00020122C082C083906181E4F0A37479
:10517000C0F0A3E40254E4C082C08374F81217B7ED
:105180009003C4125954E849700302522E9003C48C
:10519000E0544060237908851882851983AA82AB80
:1051A00083120C56851882851983AA82AB83120953
:1051B000029003C4E054BFF0E054806010790C7A90
:1051C000807B05120C569003C4E0547FF0E0A2E00F
:1051D0005008790012523654FEF0E054026008790B
:1051E0000112523654FDF0E0540460087900125266
:1051F0004154FBF0E054086008790112524154F721
:10520000F0E054106008790212524154EFF0E0547B
:10521000206008790312524154DFF0A3E05401608A
:105220000D120B721209149003C5E054FEF07408BD
:105230001217CD0254E5120B601209089003C4E066
:1052400022120B6612090E9003C4E022C082C083B2
:10525000E9600514602A804F90619A7433F0A3745A
:1052600055F09061A0743AF090055CE0640170091B
:10527000C2919003C67467802D9003C67461802626
:1052800090619A743FF0A3745AF09061A0747FF01B
:1052900090055CE064017009D2919003C67471803E
:1052A000059003C6746AF00254E5C082C083E960C9
:1052B0000B14600D14600F14601180209022E480A4
:1052C000159022E580109022E6800B90055CE0644A
:1052D0000160F39022E7E493906186F00254E57454
:1052E000EE12180E74F41217B7851882851983AC64
:1052F00082AD8375839075828C74041216CA9022D5
:10530000E493F46003025471907808E0C39402506F
:10531000030254517404121802AC82AD8375839059
:1053200075822074081216CAF97AFF7BFF7FFF7E10
:10533000008982858210801874086E7003025406FA
:1053400074096E7003025406740A6E7003025406E8
:10535000E510C333FCE433FD7404121802E5822C1B
:10536000F582E5833DF583E0F50EA3E0F50F8E08A9
:10537000750900740278081217A474482508FC7493
:10538000783509FD8C828D83780812168774087829
:10539000081215C885080C85090D8C828D83780844
:1053A000121687741878081215C8E50C4508F50818
:1053B000E50DF509C3E50E9508E50F95098C828D7D
:1053C0008378081216878C828D837808121687746A
:1053D00018780840141215C8E50C4508FCAD0DE519
:1053E0000EC39CFCE50F9D800F1215C8E50C450807
:1053F000C3950EFCE50D950FFDC3EC9AED9B500691
:10540000ECFAEDFBEEFF0EEEC3941350030253389B
:1054100074FF6A700374FF6B602D8F087402780844
:105420001217A4744812610074783509F58378085E
:10543000121687851882851983E5822510F582E585
:1054400083125E8DE508F009E9C39404500302530A
:10545000297508017509007808121A2174021218BA
:1054600002AC82AD837AB97B0812126E74021217F5
:10547000CD740C1217CD7F0A0218E0C082C0839051
:105480006186E0F89022E7E4936870099022E6E4F0
:1054900093906186F09061AE7468F0A3746AF090A6
:1054A000624574FBF0A304F053F4FD43FE02900543
:1054B0005C7401F09061A0E0643A700479008002AD
:1054C0007901120B600254E5C082C08390050EE0A2
:1054D0006401700A900513E06004790C8002790081
:1054E0008003F0A3F0D083D082020122C082C08367
:1054F00075E1F1900511E0604D14600814605114DD
:1055000060498051120B84900507E0F97A087B0509
:10551000120DD69090801216A5120E0C9090BC120F
:1055200016A5120DE2900512E0F9120DEE790112A6
:105530000E48900505E0241612567A749CF0A37468
:105540000BF07900809F120B8A80BC120B9080B701
:10555000120B9680B2791280EB74F412180E75D982
:105560000D9004F6E0A2E0E4331313F81255E64878
:105570004401F5D9780012566440FB78008808741D
:10558000F7126100740412566E40F275E1959004B2
:10559000F6E0F97AF77B04120DDC900BC07412F080
:1055A000A3740B1256891256A91256A01257E11273
:1055B00055F0780812168790908478081216139088
:1055C00090CC7808121661125674780812169690CC
:1055D0000505E0241412567A7413F09003C2740285
:1055E000F07F040218E0900507E0C4333354C02272
:1055F000900505E0F8A3E0F5838882A3A32274F662
:1056000012180E1257B28AD9780012566440FB78ED
:10561000008006125718125864E8C39940F51257D3
:10562000A412566440FB780080081260FC740512D6
:105630005864E8C39940F375E195900BC0741EF06F
:10564000A3740B1256891256931216A51256741291
:1056500016B1900505E0241412567A7412F09003E6
:10566000C2025A4F880874082508F5827405125939
:10567000C0940622900505E0240EF8A3E01256819E
:10568000223400F988828983221257CA7418F0A341
:10569000740B221256A91256A01257E59090C822F8
:1056A000F0A37430F0A3740B221256AD221256B13F
:1056B00022F0A374C2F0A3740C2274F612180E1216
:1056C000570D1255E64402F5D9780012566440FB96
:1056D00078008006125718125864E8C39940F5758F
:1056E000E195900BC0125723F0A312572312569640
:1056F0001216A51256741216B1900505E024141264
:10570000567A7414F09003C27404025A519005172B
:10571000E0F9740729F5D922880874182508F5825C
:10572000740522742A125730125730F0A3740B22DA
:10573000F0A3740BF0A3742A2274F612180E1257F9
:10574000B274064AF5D9780012566440FB7800809E
:1057500006125718125864E8C39940F51257A4125C
:10576000566440FB780080081260FC74051258648F
:10577000E8C39940F375E195900BC07424F0A374CD
:105780000B1257C01256931216A51256741216B168
:10579000900505E0241412567A7415F09003C27433
:1057A00003025A5190053712571074044AF5D978FC
:1057B000002212570D900507E0C4333354C0FA227B
:1057C0001257CA74C2F0A3740C221257CE22125779
:1057D000DB74C2F0A3740C1257DB221256B1F0A393
:1057E000221257E522F0900BCE74C2F0A3740C1273
:1057F00057CE74C2F0A3740C1256ADF022C082C012
:10580000831255F0A3A3A3A3E40254E274F7121881
:105810000E126342F8740339F9E82405FAE93400FA
:10582000FB8A828B831260B188828983A3A3A3A39E
:10583000A3A3A3A3A3ECF0A3EDF088828983A3A381
:10584000A3A3A3A3A3E024FFF8A3E034FFF98A8273
:105850008B83E8F0A3E9F0025A7288087460250887
:10586000F5827405125FD8F5D90822EAFEEBFF90A5
:1058700061D0E0F87480C398FAEE24832212588332
:10588000940422125E9BE0F5D90AEAC32274F61250
:10589000180EEAFEEBFF9061D0E0707575D90E75B9
:1058A000D90375D9047A008A08EE250812641024F9
:1058B0008C12592640F17A008A08EE2508126410ED
:1058C000248412587D40F175E1957908EE248C12FC
:1058D000591F24841259167C008C82AA82C3E49A30
:1058E000F895E0F9EE28F8EF39F9E8248BF582E92C
:1058F000125FD4C0E0EE2A12641024ABF582E912E4
:105900005E8DD0E0F00CECC3940840CD1259DC80E1
:10591000027900025A52FAEF3400FB120C4A2212AA
:1059200059167904EE22125883940822C082C0834B
:1059300075D90275D90375D90575E195EA2470F515
:1059400082EB125951EA2472F582EB1259EE02549D
:10595000E5125E9E12595822E0F8A3E0F92274F68F
:1059600012180EEAFEEBFF90056074061259CA1277
:105970001A217C017903125CF61217CD75D90675D0
:10598000D90378001259B040FB75E1959003C2E04D
:1059900064087017EE2470F582EF125951EE2472EC
:1059A000F582EF125E8DE8F0A3E9F07901025A5218
:1059B000880874602508F58274051259C094052280
:1059C000125E9EE0F5D908E8C322F07508607509FB
:1059D0000578082275E1957904120E12EE2470F50F
:1059E00082EF125E9E125958EE2472F582EF125E1B
:1059F0009EE8F0A3E9F079012274F612180EEAFE8F
:105A0000EBFF9061D0E070437901900560740BF07A
:105A10009003C2E06407701775086075090578087F
:105A2000121A217C010909125CF61217CD7905744E
:105A30000129F5D975D9037800800312585AE8C3B3
:105A40009940F875E1951259DC8002790080037461
:105A500001F07F020218E074F712180EEAFEEBFF65
:105A600075D90375D90375D90DEE24DE125A771254
:105A700059D47F010218E0F582EF125FD8F5D922E0
:105A80007F030218E07401250AF5D975D90378005F
:105A90002274F512180E125B0660047804800278F6
:105AA00000E8240BF8EAC3984041750A09900560A4
:105AB0007409F07908125AEF6014750860750905C9
:105AC0007808121A21125CEE1217CD750A0D125ABF
:105AD00085800312585AE8C3950A40F775E1957915
:105AE00004120E12125C6B7901800279008091EE33
:105AF00024E3FCEF3400FD7A617B05120C44850839
:105B000082850983E02212586BF8EF1260A5F583B5
:105B1000E02274F312180E8A088B09125D01FAE56F
:105B2000082483F50AEB125BD060047804800278C5
