:020000040000FA
:0600000002010A021D4A84
:03002B00021FB2FF
:03003B00021FCBD6
:03004300021F5D3C
:03005300021DC0CB
:03005B000220354B
:03006B00021F83EE
:10008300021C3BE5C754F84401F5C779012200007F
:100093000080FB120086B900030200F4E4791A78A9
:1000A30002B800028004F709D8FCE4791C7802B88E
:1000B30000028004F709D8FCE4900281786D79107E
:1000C3008002F0A3D8FCD9FA9011EDAA82AB8390F9
:1000D300013A78E479018015E493A3AC82AD838A75
:1000E300828B83F0A3AA82AB838C828D83D8E9D9D8
:1000F300E77582497583C2740312011C7582917579
:100103008300740012011C75D00075813F7518813E
:10011300751902759F00020096C09FF59FE473D086
:100123009F22D083D082C09FE493C0E0740193C028
:10013300E0740293F59F22A303B503DF03A903FF32
:100143000000B4000028002800283075A000A0009B
:10015300A000A00000080008E001F000100010005B
:10016300100010001000100050005000500010004C
:100173001000D0070000000000000F000100050080
:10018300307507001000010081FF0000FF0202022A
:100193000A92010000F99102029201000043120247
:1001A300FE91010000B1020202920100004412021A
:1001B3000892010000C702FFFF0100FF20020A921C
:1001C300010000F691020292010000721202FC91FA
:1001D3000000000000020092030000A4038F0B8FB5
:1001E3000B8F0B8F0B8F0B8F0B8F0B8F0B8F0B8F3C
:1001F3000B8F0B8F0B8F0BA50DC30D9F0DFFFF01F6
:10020300E803053F1002FF000B7C0CD78138F31085
:100213002C02E2900D152FDE033412012595B9034C
:10022300120125ABB903120125D8B9031201250820
:10023300BA031201251FBA0312012540BA031201A2
:100243002571BA03120125C2BA03120125D9BA03D3
:10025300120125C2B403120125D9B40312012508E2
:10026300B50312012541B50312012569B503120136
:100273002597B503120125AEB503120125C5B503B4
:10028300120125DBB50312012502B6031201251560
:10029300B6031201252BB60312012553B60312012F
:1002A3002557A80212012556A90212012580A90289
:1002B300120125D5A902120125F6A9021201250F63
:1002C300AA0212012511AA0212012532AA02120161
:1002D3002535AB02120125F2AB02120125BFAC0298
:1002E30012012523AD02120125BAAD02120125BD6B
:1002F300AD0212012543AE0212012586AE021201A0
:1003030025D8AE02120125DBAE0212012512AF027F
:1003130012012539AF02120125CFAF021201255870
:10032300B002120125A1B002120125AEB0021201E2
:1003330025B1B0021201250FB10212012527B10226
:10034300120125A1B102120125A4B102120125C790
:10035300B102120125CAB10212012571B2021201C2
:100363002594B202120125ACB202120125DCB202BD
:10037300120125E9B202120125ECB202120125583D
:10038300B30212012546B402120125FCB402120184
:100393002574B50212012554B602120125D4B60202
:1003A300120125F4B60212012532B7021201258586
:1003B300B702120125EDB7021201257EB802120120
:1003C3002549B90212012558BC02120125C4BD02F8
:1003D300120125E7BD02120125569D03120125E7EF
:1003E3009E03120125389F03120125979F031201D3
:1003F30025A59F03120125CE9F03120125777A00BD
:100403001201259F7A00120125CD7A0012012504DD
:100413007B001201256C7B00120125B57B001201C4
:1004230025007C001201253E7C001201257B7C0007
:10043300120125A97C00120125507D001201255AC5
:100443007D00120125677D001201259A7D001201AE
:10045300255C7E00120125687E00120125807E0046
:100463001201258A7E00120125087F00120125252D
:10047300C00312012533C0031201254BC00312012F
:100483002563C0031201257BC00312012522E50168
:10049300120125C0E50112012538E6011201254D9F
:1004A300E70112012587E70112012530E801120156
:1004B3002505E90112012569EA01120125C0EA01B6
:1004C30012012547EB011201252EEC011201257BB8
:1004D300EC0112012509ED011201252DED01120197
:1004E3002502EF0112012543EF0112012565EF01FA
:1004F3001201252AF001120125F0F0011201252530
:10050300F301120125D49503120125EA9503120183
:1005130025109603120125389703120125429703EC
:100523001201259B98031201259B9903120125D5DE
:100533008403120125778503120125AA850312017D
:1005430025F48503120125AE8703120125189201B4
:10055300120125969201120125A692011201258905
:100563009301120125939301120125C193011201F5
:1005730025CC9301120125A59401120125079501AC
:10058300120125A39501120125A797011201255EEA
:100593009901120125DA9901120125B79A01120175
:1005A30025E59D01120125839E01120125E09F018E
:1005B30012012553A101120125FCA10112012545B8
:1005C300A2011201257CA20112012521A30112011E
:1005D300259FA301120125A2C701120125F7C70117
:1005E3001201253CC9011201254CC9011201256FD5
:1005F300C901120125BAC9011201255FCA011201FD
:100603002555CB011201251FCC0112012597CD01E0
:10061300120125D9CD0112012577CE011201259DA5
:10062300CE011201258BD00112012590D0011201B8
:100633002571D201120125C5D20112012527D3014B
:100643001201254FD301120125F3D301120125B560
:10065300D401120125E6D401120125E9D4011201C6
:100663002531D50112012573D501120125DAD501F2
:100673001201256BFD011201257EFD011201258763
:10068300FD01120125A0FD01120125EBFD0112015F
:1006930025C6FE0112012555FF01120125A0FF0108
:1006A300120125E02000120125F02000120125533C
:1006B3002100120125982100120125482200120170
:1006C300252123001201254A23001201257A230044
:1006D3001201258E25001201256A27001201254AE1
:1006E3002900120125822A00120125FB2C00120188
:1006F30025E72D001201252D2F001201253A300088
:100703001201257C3000120125B43000120125CEE0
:100713003000120125363100120125D035001201B7
:1007230025713600120125C53600120125EC36006D
:100733001201252A37001201254937001201259D90
:100743003700120125A538001201252E39001201A8
:10075300259CED02120125A6ED0212012542EE02AF
:100763001201250DEF021201252CEF021201255271
:10077300EF0212012591EF02120125C9EF021201C6
:1007830025F2EF021201252CF00212012541F0029D
:100793001201250EF10212012531F1021201255336
:1007A300F10212012568F102120125F2F102120190
:1007B300252CF202120125A0F202120125E9F20210
:1007C30012012513F30212012538F302120125E861
:1007D3009103120125B2920312012595930312018D
:1007E300250B94031201254D94031201257A9503D9
:1007F30012012500800212012529800212012542DF
:1008030080021201258781021201256582021201ED
:1008130025848202120125118302120125548302C9
:100823001201258C8402120125F88402120125EE9F
:1008330086021201257C89021201250F8A02120108
:1008430025E38A02120125868B02120125998C0267
:100853001201252F8D021201251FBD0312012588C8
:10086300BD03120125DCBD031201250BBE031201DA
:1008730025518903120125BE8903120125098A0323
:10088300120125FE8A03120125FA8B03120125E4C6
:100893008C0312012516E0021201255DE00212010C
:1008A3002536E10212012531E20212012510E3028D
:1008B3001201257CE30212012598E402120125FFAF
:1008C300E40212012502E5021201252DE5021201BF
:1008D300259EE50212012541E60212012556E60294
:1008E3001201259EE602120125B7E602120125BA7E
:1008F300E602120125E6A00312012522A10312013B
:100903002560A1031201252AA2031201259DA2033A
:10091300120125D8A20312012516A30312012546AD
:10092300A3031201256DA303120125D8A30312010A
:10093300251AA4031201256B66001201252D6800F8
:10094300120125C569001201256C6A00120125B345
:100953006A00120125F76A00120125096B001201D2
:1009630025496B00120125786B00120125C36B002A
:10097300120125036C00120125316C00120125823E
:100983006C001201250F6D00120125586E00120133
:10099300254C6F00120125017100120125A4750079
:1009A300120125ED75001201253476001201254A46
:1009B300780012012542FD02120125B4FD02120145
:1009C300250AFE021201254EFE021201256EFE02C9
:1009D300120125BBFE0212012503FF021201255657
:1009E300FF02120125A7FF0212012595390012010A
:1009F30025DE39001201250B3A001201253E3A008B
:100A03001201254E3A001201255A3A001201256BB4
:100A13003A00120125403B001201259E3B001201C2
:100A230025D33B001201256F3D00120125C13D0076
:100A33001201250F3E001201256B3E0012012567AE
:100A43003F00120125ED4000120125C441001201AF
:100A530025D44100120125F04100120125F3410084
:100A6300120125AD42001201257643001201251C17
:100A730044001201257B44001201250345001201A5
:100A830025684500120125F74500120125C04600DF
:100A93001201255D4700120125E447001201253BA1
:100AA30048001201259C4800120125D64800120176
:100AB300258449001201257C4B00120125CC4B00F3
:100AC3001201250F4C00120125844C001201251040
:100AD3004D001201255B4D00120125804D001201CE
:100AE30025D14D00120125F34D00120125384E008A
:100AF300120125A74E00120125E94E00120125E936
:100B03004F001201257150001201254251001201BC
:100B1300255B51001201251FBF0212012572BF027E
:100B23001201257EBF0212012553C0021201257A4C
:100B3300C002120125B5C00212012521C102120112
:100B43002555C1021201258EC102120125A6C1023B
:100B5300120125FFC10212012518C20212012561EB
:100B6300C20212012574C2021201258EC2021201B1
:100B730025A4C202120125C0C302120125D1C40259
:100B83001201251EC60212012503C702120125D533
:100B93002000120125008003120125728303120134
:100BA300258A8403120125359B0212012528A102FF
:100BB3001201252EA102120125AEA3021201256006
:100BC300F3021201250BF402120125BBF4021201F8
:100BD30025E0F402120125D7F6021201252AF802B4
:100BE30012012553A40112012587A401120125DB5B
:100BF300AC0112012527AE0112012544AF011201F8
:100C030025CEB001120125B0B101120125EAB101CF
:100C13001201250DB2011201254FB20112012599CE
:100C2300B201120125A3B2011201254FB301120132
:100C33002523B40112012577B401120125D9B4018A
:100C43001201252CB5011201255BB5011201259A6C
:100C5300B501120125CCA70312012542A8031201F5
:100C63002558A80312012595A803120125CDA80331
:100C73001201254AA90312012585A90312012500A2
:100C8300AA031201253CAA0312012545AA03120156
:100C93002551AA031201256BAA0312012590AA0369
:100CA300120125A6AA03120125EAAA03120125DED1
:100CB300E602120125F1E6021201250BE7021201F9
:100CC3002534E70212012577E702120125B6E70270
:100CD300120125F4E70212012559E8021201256EDB
:100CE300E80212012585E80212012593E8021201A8
:100CF30025A2E802120125B7E802120125CCE80279
:100D0300120125D7E802120125E3E802120125F0BA
:100D1300E80212012503E9021201250EE90212017C
:100D23002533E902120125DCE902120125F1E9026A
:100D330012012506EA0212012520EA021201253BCF
:100D4300EA0212012558EA0212012563EA0212019E
:100D5300251FEB021201250BEC0212012530EC02D8
:100D63001201253AEC021201254EEC021201256D07
:100D7300EC02120125CEEC02120125D4EC02120181
:100D830025DAEC02120125E0EC02120125ECEC025B
:100D93001201251FED0212012534F3011201256012
:100DA300F30112012544F401120125DEF6011201BB
:100DB30025F4F70112012511F901120125B4F901F6
:100DC3001201255AFA01120125AB8D021201252DBC
:100DD3008E02120125D68E021201251E90021201E7
:100DE300252C920212012512930212012547930228
:100DF300120125699302120125129402120125E2C0
:100E030095021201250B9602120125839602120107
:100E130025B59602120125C296021201250D9702ED
:100E23001201253197021201258299021201258CA4
:100E33009A02120125E89A02120125A4D601120191
:100E430025B5D70112012599D801120125A3D8018F
:100E5300120125C5D801120125D1D801120125752A
:100E6300DA01120125A2DA01120125B8DB01120110
:100E7300250DDC011201255CDD0112012531DE01A6
:100E83001201258DDE01120125F8DE011201252D47
:100E9300DF0112012570DF011201253AE20112017F
:100EA3002552E201120125E3E201120125F1E201DB
:100EB3001201253EE3011201254CE301120125B87D
:100EC300E30112012533E4011201258AE401120131
:100ED3002509B3031201252EB303120125A4B3037D
:100EE30012012527D90212012530D9021201253911
:100EF300D90212012511DA02120125C2DB02120105
:100F030025F2DB021201251DDC021201254DDC0254
:100F130012012578DC02120125ACDC02120125D86E
:100F2300DC021201251BDD0212012546DD0212013E
:100F3300258DDD02120125E2DD0212012524DE02E8
:100F43001201257EDE02120125A9DE02120125F817
:100F5300DE0212012528DF0212012553DF021201EE
:100F63002576DF02120125B1C103120125DDC1037C
:100F73001201250AC20312012514C20312012524FA
:100F8300C203120125F6D00212012500D10212017B
:100F93002541D1021201258AD102120125C4D102B1
:100FA3001201251AD2021201253BD202120125EAAF
:100FB300D402120125F3D40212012547D5021201EE
:100FC3002570D5021201257AD502120125E8D50232
:100FD30012012578D602120125D3D602120125016A
:100FE300D70212012589D702120125C8D70212019F
:100FF30025FDD7021201250FD8021201252ED80292
:1010030012012537D802120125F9D8021201252E23
:10101300BF0312012518B1031201254EB1031201BA
:101023002582B103120125CFB20312012511C30397
:1010330012012527C30312012531C303120125A67B
:101043008D03120125B98D031201257D8E03120133
:1010530025BC8E03120125D98E03120125128F039D
:101063001201255F8F03120125918F03120125C8F9
:101073008F03120125DB9103120125997F001201D1
:1010830025FDB70312012520B8031201254FB8032C
:10109300120125E7B803120125FFB8031201254108
:1010A300B90312012561F802120125A3F802120106
:1010B300252AF9021201257FF902120125C4F9023A
:1010C3001201251FFA021201256EFA02120125C828
:1010D300FA02120125D5FB02120125CDFC021201F1
:1010E300250AFD02120125A2C2031201258D51001A
:1010F3001201258B5300120125285500120125D515
:101103005500120125555600120125D7560012012C
:10111300250057001201255257001201258B5B0051
:10112300120125025C00120125195D0012012553ED
:101133005D00120125945D00120125DB5E001201A2
:10114300250A5F00120125605F00120125A95F00D7
:10115300120125156000120125896000120125B7CF
:101163006000120125CF6000120125E86100120121
:1011730025F86100120125B36300120125CA63003B
:10118300120125FC63001201259965001201252D2A
:10119300660012012536C4031201257BC303120125
:1011A30025BAC303120125E8FF0212012514C10366
:1011B30012012524C1031201253FC103120125A7F2
:1011C300C1031201252CBE03120125B1BE03120176
:1011D3002515BF031201250EBC0312012530BC03E4
:1011E30012012591BC03120125E1BC031201256202
:1011F300A40312012577A403120125BBA503120141
:101203002537A603120125ABA603120125C5A603A4
:10121300120125DCA603120125EFA60312012509FD
:10122300A70312012520A70312012546A7031201D4
:101233002597A703120125A59903120125BC99033C
:10124300120125369A031201251A9B03120125F177
:101253009C031201251AAB03120125B4AB0312013F
:101263002550AC03120125E1AC0312012591AD0316
:101273001201259FAD031201251DAE031201253373
:10128300AE031201253DAE03120125F0BA0312018C
:101293002560BB0312012570BB031201258CBB0320
:1012A30012012565B603120125B7B6031201252ADB
:1012B300B70312012597B70312012540AE031201AC
:1012C300256AAE0312012539AF0312012515B003B8
:1012D300120125A6B003120125C0C8021201258CF4
:1012E300C902120125CDC90212012507CA02120142
:1012F3002565CA02120125B9CA0212012517CB02BC
:10130300120125ADCB02120125B5CC021201253FF6
:10131300CE02120125DDCE0212012544CF021201B5
:101323002557CF021201254BD00212012594D0027A
:1013330012012572B60112012577B701120125D9D1
:10134300B801120125A4BA011201253DBB01120106
:1013530025A6BB0112012540BD0112012563BD0174
:101363001201252DC20112012581C2011201251F7F
:10137300C30112012560C50112012505C601120131
:10138300258CC6011201258FC6011201252EC20329
:1013930012012536C203120125C4C303120125CA53
:1013A300FF01120125F0C30312012518C403E066EF
:1013B300701008A3E066700A08A3E066700408A32F
:1013C300E06622C3E7960809E7960809E796080945
:1013D300E79622C3E09608A3E09608A3E09608A345
:1013E300E09622C008C3E096F50808A3E0964208F9
:1013F30008A3E096420808A3E09645087001D3D0FD
:101403000822080808EAC0E0EBC0E086F0E7A4FA87
:10141300180986F0E7A42AFA180986F0E7A42AFA3D
:10142300180986F0E7A42AFA1986F0E7A4FBE5F089
:101433002AFA190886F0E7A42BFBE5F03AFA190813
:1014430086F0E7A42BFBE5F03AFA18180986F0E7D3
:10145300A4C5F02BFBE43AFA1908E7C5F0C6A426A5
:10146300F6E5F03BFBE43AFA1886F0E7A4F6E5F07C
:101473000826F6E43B08F6E43A08F6D0E0FBD0E0B1
:10148300FA22E4CFC0E0E4CEC0E0E4CDC0E0E4CC97
:10149300C0E075F020C3E633F608E633F608E6331A
:1014A300F608E633F6181818EC33FCED33FDEE338B
:1014B300FEEF33FFC3EC9709ED9709EE9709EF971A
:1014C300191919400FFFEC97FC09ED97FD09EE97E9
:1014D300FE191906D5F0BEECF709EDF709EEF70989
:1014E300EFF7191919D0E0FCD0E0FDD0E0FED0E011
:1014F300FF226016080808C6C313C618C613C61809
:10150300C613C618C613C6D5E0EA22700908080830
:10151300226016181818C6C333C608C633C608C6D1
:1015230033C608C633C6D5E0EA22E627F60809E63D
:1015330037F60809E637F60809E637F622E026F615
:1015430008A3E036F608A3E036F608A3E036F62251
:10155300E026F008A3E036F008A3E036F008A3E0A5
:1015630036F022C3E697F60809E697F60809E697E8
:10157300F60809E697F622C3E096F008A3E096F092
:1015830008A3E096F008A3E096F022E657F60809D0
:10159300E657F60809E657F60809E657F622E05635
:1015A300F608A3E056F608A3E056F608A3E056F6BD
:1015B30022E056F008A3E056F008A3E056F008A393
:1015C300E056F022E066F608A3E066F608A3E066BC
:1015D300F608A3E066F622E0F608A3E0F608A3E027
:1015E300F608A3E0F622E6F008A3E6F008A3E6F087
:1015F30008A3E6F022E0FAA3E0FBA3E0FCA3E0FDEE
:1016030022EAF0A3EBF0A3ECF0A3EDF022CAC0E0D2
:10161300E6F0A308DAFAD0E0FA22CAC0E0E0A3C5F4
:1016230082CCC582C583CDC583F0A3C582CCC582D8
:10163300C583CDC583DAE6D0E0CA22C3E498F8E4D3
:1016430099F912167F8026C3E49AFAE49BFBE920FA
:10165300E7E912167FE498F8E499F922C3E498F8CD
:10166300E499F912167FE498F8E499F9C3E49AFA35
:10167300E49BFB22EB20E7CFE920E7E0B90010BBB6
:101683000008E88AF084F8AAF022E4FBC8FA22EB07
:1016930070227B10C833C8C933C9335007C39AC3F8
:1016A300DBF280069A50012ADBEAC833F4C8C93357
:1016B300F4C9FA2275F008E4C833C8C933C933C979
:1016C3009AC99B5004C92AC93BD5F0ECFBC833F433
:1016D300C8E4C9FA22600D08C6A2E713C618C613E8
:1016E300C6D5E0F322600C08C6C313C618C613C6DA
:1016F300D5E0F422700422600D18C6C333C608C6B1
:1017030033C6D5E0F41822251810AF08F5184002A7
:1017130015198008F51840021519D2AF22C0D0253B
:101723001810AF08F518500205198008F518500273
:101733000519D2AFD0D0222518F58210AF08F518BD
:10174300400215198008F51840021519D2AF851902
:1017530083222518F582E43519F58322E4732518CD
:10176300C582C0E0E51934FFC583C0E0E518C39521
:101773008224F810AF088583198582188008858331
:1017830019858218D2AFCEF0A3E520F0A37808E63E
:1017930008F0A3DEFAEFF0A3E58124FAF8E608F0F7
:1017A300A3E608F0A3E608F0A30808E608F0A3E61A
:1017B30008F0A315811581D0E0FED0E0F81581155E
:1017C300811581E8C0E0EEC0E0222518C582C0E0A3
:1017D300E51934FFC583C0E0E518C3958224F910E9
:1017E300AF08858319858218800885831985821837
:1017F300D2AFCEF0A3E520F0A37808E608F0A3DE8D
:10180300FAEFF0A3E58124FBF8E608F0A3E608F07D
:10181300A30808E608F0A3E608F0A315811581D014
:10182300E0FED0E0F815811581E8C0E0EEC0E022CB
:10183300851983851882E0A3FEE0A3F5207808E0EC
:10184300A3F608DFFAE0A3FFE0A3C0E0E0A3C0E053
:10185300E0A3C0E0E0A3C0E0E0A3C0E010AF0885D0
:1018630082188583198008858218858319D2AFD0A1
:1018730083D082020122851983851882E0A3FEE0CA
:10188300A3F5207808E0A3F608DFFAE0A3FFE0A3BE
:10189300C0E0E0A3C0E0E0A3C0E0E0A3C0E010AF7D
:1018A300088582188583198008858218858319D253
:1018B300AFD083D08222C0D02518C582C0E0E519FD
:1018C30034FFC583C0E0E518C3958224F310AF0845
:1018D3008583198582188008858319858218D2AF7C
:1018E300C8F0A3E9F0A3EAF0A3EBF0A37908E709B2
:1018F300F0A3D8FAECF0A3EDF0A3EEF0A3EFF0A37E
:10190300D0E0F0A3D0E0F0A3D0E0F0A3E520F0A373
:10191300E5F0F0A322851983851882E0C0E0A3E0F7
:10192300F9A3E0FAA3E0FBA37808E0F608A3DFFA43
:10193300E0FCA3E0FDA3E0FEA3E0FFA3E0C0E0A37F
:10194300E0C0E0A3E0F5D0A3E0F520A3E0A3F5F029
:1019530010AF0885831985821880088583198582CD
:1019630018D2AFD082D083D0E0F8D0E032740480B4
:1019730006740280027401C0E0F40412173AD0E046
:10198300121610227404800474028000CCC0E0EDAF
:10199300C0E0E518C39CCCAD1950011D10AF068CF7
:1019A300188D1980068C188D19D2AF12161DD0E030
:1019B300FDD0E0FC22D083D082E9C0E0E493A3C34E
:1019C30086F0C5F095F0F908E493A386F0C5F09589
:1019D300F0700BE493A3C3994005E9048002A3E4E8
:1019E30075F002A42582F582E5F03583F583D0E016
:1019F300F9E493A3C0E0E493C0E022D083D082EC67
:101A0300C0E0EDC0E0E493A3FCE493A3FDED4C60E0
:101A13000D121A4AEC24FFFCED34FFFD80EFE49332
:101A2300A3FCE493A3FDED4C600D121A89EC24FF93
:101A3300FCED34FFFD80EFD0E0FDD0E0FCE493A3A8
:101A4300C0E0E493C0E022C0E0C3E49396087401CD
:101A5300939618400FE49366700808740193661810
:101A630070007019A3A3C3E49396087401939618A6
:101A7300A3A3400DD0E0D0E0D0E0021A3AA3A3A381
:101A8300A3A3A3D0E022C0E0C0F088F0E493667083
:101A9300080874019366187000A8F0A3A3700BD014
:101AA300F0D0E0D0E0D0E0021A3AA3A3D0F0D0E027
:101AB3002274F51217CDEAFEEBFFEE2434F8EF346F
:101AC30000F988088909EE2435121BECF8EE243757
:101AD300121BECF50AEC850AF0A4FCAAF0850AF0C7
:101AE300EDA42AFDE82CF8E43DF97A257B001216D3
:101AF3007FEA850882850983F05407F87401B800EA
:101B0300028004C333D8FCC0E0E0131313541FF85E
:101B1300EE28F8EF3400F9E8245DF582E93400F5A6
:101B230083D0E0F8E0586008850882850983801D2A
:101B3300EE2436121BECF5F0EA84A8F0EE28F8EF59
:101B43003400F9E82438F582E93400F583E0F97FBD
:101B53000402187974F51217CDEAFEEBFFEE243474
:101B6300121BECC0E0EE2435F582EF3400F583D090
:101B7300E0F08E828F83A3A3A3A3A3E0FAA3E0FBE9
:101B83008E828F83A3A3A3A3A3A3A3E0FCA3E0FD5F
:101B9300ECC39AF50AED9BF50BEE2480F508EF34C0
:101BA30000F509850882F583E06401702BEE24813A
:101BB300F582EF3400F58312198B121BF5740212B0
:101BC3001720E960137CE27D07EEFAEFFB120AAB04
:101BD300850882850983E4F0AC0AAD0BEEFAEFFBCE
:101BE300121AB4121F4F021B52F582EF3400F58311
:101BF300E022C082C083851882851983E0F8A3E0C0
:101C0300F9C3EA9CEB9D5012C3EC98ED994019C3BC
:101C1300EA98EB99501279018010C3EA98EB994046
:101C2300F5C3EC98ED9950EE7900D083D082220071
:101C330000851A87851BC622C0E074EF1218B97598
:101C43009B00906182E0A2E64003021CFCE591A2A6
:101C5300E64003021CFC7591BF900499E064057093
:101C630008120C85120C918003120C8B751A00124A
:101C73000CFDE990049AF07900120CDF120A0F7A36
:101C8300017B00900498E0F9120FE5907803E0647B
:101C9300426003021D45900817E014F06003021D23
:101CA30045C2AF121CA900781DD0E0F618D0E0F6AB
:101CB300E59F5407F97005909186800390918A7887
:101CC300081215DAE9C4C0E0781CE65508F50808DF
:101CD300E65509F509740B78081216E8D0E02508D3
:101CE300F8906270E0A2E740F8E8C333906272F0C4
:101CF300906270E0D2E0F08049E0A2E55024E591E3
:101D0300A2E5501E7591DF900499E0640D70139065
:101D130004BBE004F064287002E4F07A00E0F912F6
:101D23000D8D906181E0A2E35009E5E9A2E3500340
:101D330075E9F7A3E0A2E75009E591A2E75003751F
:101D4300917F7F04021918C0E0C0D0C082C0839085
:101D53006183E0A2E05009E5BFA2E0500375BFFE36
:101D6300E0A2E15009E5BFA2E1500375BFFDE0A287
:101D7300E25009E5BFA2E2500375BFFBE0A2E350C6
:101D830009E5BFA2E3500375BFF7E0A2E45009E5FC
:101D9300BFA2E4500375BFEFE0A2E55009E5BFA27F
:101DA300E5500375BFDFE0A2E65009E5BFA2E650A8
:101DB3000375BFBFD083D082D0D0D0E032C0E074EF
:101DC300F21218B9E5A7A2E4500FE5A1A2E4500965
:101DD30053A7EF75A1EF121E14E5A7A2E5500CE57A
:101DE300A1A2E5500653A7DF75A1DFE5A7A2E15045
:101DF30009E5A1A2E1500375A1FDE5A7A2E2500CFC
:101E0300E5A1A2E2500653A7FB75A1FB7F010219CE
:101E13001874F81217CD751A01900499E0640670CE
:101E2300077A007B00120C6DA2AFE433FED2AF90B1
:101E3300049FE0640170187A207B00900498E0F915
:101E43001210637A207B00900498E0F9120FEB9054
:101E53006182E0D2E6F0900816E0602185C61B801F
:101E63001690049EE064017008E5C654F84405F535
:101E7300C653BEFC121C347401651A60E4EEA2E082
:101E830092AF7F0102187974F11217CD8A088B097A
:101E93008C0A8D0B740F121755780C1215DA90916A
:101EA3007678081215A1909176780C1215A178080E
:101EB300790C1213C650157808790C121566909197
:101EC300C278081213E6401579018013780C79085B
:101ED3001215669091C2780C1213E640EB79007FDD
:101EE3000802187974ED1217CD8A088B098C0A8DB4
:101EF3000B7413121755780C1215DA909176780833
:101F03001215A1909176780C1215A1780C7908120C
:101F130013C640117808790C121566AA08AB09ACF0
:101F23000AAD0B8022751000751100751200751330
:101F3300017810790C1215667810790812152DAAFC
:101F430010AB11AC12AD137F0C021879C082C083A1
:101F5300E9906000F0D083D08222C0E074F21218BE
:101F6300B9A2AFE433FED2AFC2C0E5D1A2E45006BA
:101F730053D1EF121285EEA2E092AF7F010219183E
:101F8300C0E074F21218B9A2AFE433FED2AFE58910
:101F9300A2E04006E589A2E150031211E975890028
:101FA300758900C2C5EEA2E092AF7F01021918C085
:101FB300E0C0D0E8C0E0E5A8D2AFC2C7A2E792AFC5
:101FC300D0E0F8D0D0D0E032C0E0C0D0E8C0E0E943
:101FD300C0E0C008C009C082C083A2AFE433F9D215
:101FE300AF901061E0F8A3E0687008539AFBA37404
:101FF300018026C2E9901061E0F50874012508F01C
:1020030074E12508F582740F3400F583E0F5C1907F
:102013001061E0C394804002E4F0E9A2E092AFD003
:1020230083D082D009D008D0E0F9D0E0F8D0D0D066
:10203300E032C0E074EF1218B975C0001220BA94F0
:10204300D1E99407402E9010EDE064037026790ADD
:102053009011DA78081215DAAC08AD097AF87B8F9B
:1020630012129D9011D6E4F0A3F09011DAF0A3F0D0
:10207300A3F0A3F01220BA9459E9941B40349011B1
:10208300D6E4F0A3F09011D8E064017002A3E070ED
:10209300219010ECE0701B9010EDE0C394035012FC
:1020A3009010AAE4F09010EC04F07B00FA7903128C
:1020B30010B77F040219189011D6E0F8A3E0F9E8ED
:1020C3002401FAE93400FB9011D6EAF0A3EBF0C344
:1020D300E822020122FFFFFFFFFFFFFFFFC082C0D4
:1020E30083E9901271F0D083D08202012274F61238
:1020F3001761E9900364F07CA47D037AFF7BFF12F0
:10210300072D7A008A08750900740278081216F7F9
:1021130074652508F87403350912213FA3F00AEA10
:10212300C3940340DF79051206BB900364E0F91200
:1021330005E37A457B071208FB0236C0F9888289DA
:102143008374FF12214CE4F022F0A312354DA32235
:1021530074F41217618A088B09EB54806030900382
:1021630064E0F9120FCD8A0A8B0BAE0AAF0BEE4F68
:1021730060138E828F83E064B070031206CDEEFA93
:10218300EFFB120FBBAA08E5096480FB80047A0009
:102193007B0002231C74F212176174FC12170AEA03
:1021A300FEEBFF7412121755123596EE4F700302B1
:1021B300223B7402121755EEF0A3EF122577ECF0D1
:1021C300A3ED122577AA82AB831205DDE9F50A7028
:1021D3006AE508450960648E828F83123577EE4F76
:1021E30060567A067B001210218A0C8B0DA80CA96D
:1021F3000DE8497005750A13804188828983E412CA
:10220300214CEEF0A3EF1235A7E508F0A3E509F0A2
:102213009003721223169003727005123034801BE0
:102223001230228003EAFCEBFD8C828D831223168D
:1022330070F38C828D8380E3750A02A90A740412F9
:10224300172002378A74F2121761890AE975F0457B
:10225300A4FEAFF0900371E4F090036712231660BD
:10226300281210277900890875090074027808126A
:1022730016F774672508F58274033509F583E4F0CE
:10228300A3F009E9C3940340DDEEFAEFFB1210213A
:102293008A088B09EA45096075EEFCEFFD790012A7
:1022A3000FA37D008D0C750D007402780C1216F7C8
:1022B3007467250CF87403350DF9E50AF5F0EDA400
:1022C30075F017A4FAABF0E5082AFAE5093BFB8899
:1022D300828983EAF0A3EBF07E00801BEE75F01792
:1022E300A4FAABF088828983E02AFCA3E03B8C82CA
:1022F300F583E4F0A3F00EEEC3950A40DF0DEDC3C2
:10230300940340A0E50A900371F0790080027913E9
:1023130002378A122CC6EA4B227F0402183374F464
:102323001217617900EAA2E0501B750849750991FB
:1023330078081219747C047D007A737B121206B537
:10234300740212172080D2C082C0839003721235A8
:102353009149601C88828983A3A3E06A7003A3E088
:102363006B8882898370E7A3A3A3A3122CC2800482
:102373007A007B000220E974EE12176174FC1217D5
:102383000AEAFEEBFF851882851983E4F0A3F0EED9
:102393002402123014EE2405123554EE2404F50EF3
:1023A300EF122921E024FE603924FC604624FE60FC
:1023B3005224FE605E24FE700302248D24FE70030B
:1023C3000224F124FE700302250024FE700302257B
:1023D3000F24FC700302251E24FE700302252D0228
:1023E300256A90038B7417F0A3E412257F12025918
:1023F30002256A851882851983AC82AD831206D3C0
:1024030002253A851882851983AC82AD831206D9D9
:1024130002253A850C08850D097402121755AC8202
:10242300AD83850882850983122CC21206018A0CAA
:102433008B0DAC0CAD0DEC4D603BE4F50CF50D785C
:102443000C121974750C8B750D03780C12197475B5
:102453000C8C750D03780C1219747408121755122D
:10246300198B123894121720E9F50C700B122CB843
:10247300120271800F750C0185088285098312256C
:102483006D123034850C0802253D7402121755ACC9
:1024930082AD83850C82850D83122A74603C850C82
:1024A30082850D83A3A312198B75108B7511037885
:1024B3001012197475108C75110378101219747435
:1024C3000812175512198B123894121720E9F509BF
:1024D300700B122CB8120277800F750901850C82DC
:1024E300850D8312256D123034850908804C8518BB
:1024F30082851983AC82AD831206DF803A85188208
:10250300851983AC82AD831206E5802B85188285FD
:102513001983AC82AD831206EB801C851882851962
:1025230083AC82AD831206F1800D851882851983F1
:10253300AC82AD831206F7E9F508E50860298E82BF
:102543008F83A3E06414601F850E82850F83E09060
:10255300038B12257712386C90038C123034E50804
:10256300A312257F120253022F231238708518827B
:1025730085198322F085188285198322F07C8B7D4F
:1025830003850A82850B83122CC62274EE1217610F
:1025930074FC12170A8A0A8B0B8C0E8D0FEA240522
:1025A300F508EB3400F5097C157D0079007A8B7B07
:1025B30003120FA3E5082402F50CE509123557852C
:1025C30018828519838582108583117810121974F6
:1025D300850882850983A3A3A3A3122A6B12197406
:1025E300E5082405F510E5093400F51178101219F2
:1025F30074850C82850D83122DD91205FB74061286
:1026030017208A108B11AE10AF11E50A2402F50AC8
:10261300E50B123017EE4F700302274C801774023C
:10262300121755122CC288828983EAF0A3EBF0902B
:10263300038BE004F090038BE0C39405400302276F
:102643004CE4F510F51178101219747510747511A6
:102653000378101219747510757511037810121917
:1026630074740612175512198B7910EEFCEFFD12D4
:102673003896121720E9705E850882850983A3A323
:10268300A3A3A3A3A3E0F8900374E0687048122AFD
:102693006B1219747C757D03E5082408FAE5093487
:1026A30000FB120F9D7402121720E960298E828F9E
:1026B30083A3A3A3A3122CC290038BE0F51074028F
:1026C30078101216F7748C2510F58274033511F502
:1026D30083EAF0A3EBF07402121755858210858309
:1026E300117810121974740212175512198B850C74
:1026F30082850D83122CE81217208A108B11AE10DD
:10270300AF1190038BE0F51075110074027810126D
:1027130016F7748B2510F874033511F988828983B1
:10272300A31223167003022618E82403080808E9F5
:102733003400F9EE4F60030226218882898374FFF7
:10274300F0A3F090038BE004F090038BE0600A1297
:102753002CB81202657900800B85088285098312E3
:10276300302B790A022F2374EA12176174FE1217B1
:102773000A8C128D13EA2405F50CEB12387E123500
:102783007B750800750900EA2402F510EB3400F5A7
:102793001185188285198385820A85830B780A122D
:1027A3001974850C82850D83A3A3A3A31229371261
:1027B3001974E50C2405F50AE50D123017780A1291
:1027C3001974850C82850D8312293B1205FB74064F
:1027D3001217208A0A8B0BEA450B70030228ECEAD6
:1027E3002404F50EEB12292112357B8A828B83A3F5
:1027F300A3A3E0F9851082851183122CCC60030218
:1028030028ECE4F514F5157814121974751474751D
:102813001503781412197475147575150378141249
:102823001974740612175512198B7913AC0AAD0B70
:1028330085108285118312389C121720E9F50960EF
:10284300030228EC900374E0F8E5087009E0240221
:1028530090038CF0801790038CE0FCE82402FAE4E8
:102863003400FBEA6C7001EB60030228F0850882F8
:10287300AA82122A629414122A5A506D850E8285F6
:102883000F83E0C0E0122C92D0E0F00508850E82A1
:10289300850F83A3E0C0E085080A748D250AF582BD
:1028A30074033400F583D0E0F00508900374122913
:1028B300371219747C757D0385080A748D250A12F5
:1028C300292B121720900374E02508F50874FF6E76
:1028D300700374FF6F6012EE24010EEF3400FFE506
:1028E30008C394145003022794E5086013122CD6EE
:1028F300851082851183122CC212026B7900801419
:10290300E509700375090A851282851383EEF0A326
:10291300EFF0A90974021217207F0E021833340056
:10292300F50F850E82F58322FA74033400FB120F30
:102933008B7402221235B622A3A31229412212302C
:1029430022FDEEFAEFFB2274EE12176174FE1217EA
:102953000A8C0E8D0FEA2405F50CEB123557750B17
:102963000090038BE4F0F50AEA2402F508EB340047
:10297300F509804490038BE0FA900374E0F8122A7F
:10298300629417122A5A400D90038BE0F87416C311
:1029930098900374F0122A6B1219747C757D03747A
:1029A3008C2AFA740312292E121720900374E0F86C
:1029B30090038BE028F0050AE50C2416F582E50D5B
:1029C3003400F583E0F8E50AC398507490038BE074
:1029D300C39416506BE50AC333F8E433F9E50C28C6
:1029E300FEE50D39FF851882851983AC82AD838E90
:1029F300828F83122A747008750B0112302780505E
:102A0300E4F510F51178101219747510747511032B
:102A130078101219747510757511037810121974E2
:102A2300740612175512198B791685088285098346
:102A330012389C121720E9F50B700302297780BB2B
:102A43007C8B7D03850882850983122CC212027D4B
:102A5300A90B7402022F25E99400C365D03322EA3F
:102A630028F8E43400F9E822E0F510751100781035
:102A730022122F1A8A108B11AC10AD11EC4D227457
:102A8300EA12176174FC12170A8A0C8B0D8C128DD3
:102A930013EA2405F50AEB123017750800750900CF
:102AA300E50A2402F510E50B3400F5117402121740
:102AB3005585820E85830F780E121974850A8285D7
:102AC3000B83A3A3A3A312355C121974E50A24058F
:102AD300F50EE50B3400F50F780E1219748510828C
:102AE30085118312301D122CBC1205FB74061217BC
:102AF300208A0E8B0FAE0EAF0FE50C2402F50EE508
:102B03000D3400F50F80388882898374FFF005083F
:102B1300122C9E74FFF00508900374E0F50C750DFC
:102B230000780C1219747C757D0385080C748D254F
:102B33000C12292B121720900374E02508F508EED8
:102B43004F60278E828F83A3A3A3E0F9850E82852E
:102B53000F83122CCCEE2404123554E96027850C24
:102B630082850D83122CAE123034E5087003022CDB
:102B730078122CD6850E82850F83122CC212028303
:102B83007900022C8DE4F514F51578141219747577
:102B93001474751503781412197475147575150367
:102BA3007814121974740812175512198B7911EECF
:102BB300FCEFFD850E82850F8312389C121720E9E6
:102BC300F509709A850882AA82EA9003747009E075
:102BD300240490038CF08025E0F890038CE0F51436
:102BE300E82404FCE43400FDEC65147001ED70810D
:102BF300122A629412122A5A4003022B74850C8201
:102C0300850D83E0C0E0122C92D0E0F00508850C1E
:102C130082850D83A3E0C0E0122C9ED0E0122CF13C
:102C230085820C85830D780C121974740412175560
:102C330012198B851082851183122CE81217208AB2
:102C43000C8B0DAE0CAF0D85080C748D250CF87430
:102C5300033400F9EE4F7003022B0A85188285199D
:102C630083E088828983122CF1A3E0C0E0122C9EBA
:102C7300D0E0022B18E509700375090A850A8285DD
:102C83000B83122CAE123034A9097404022919746F
:102C93008D2AF58274033400F5832285080C748D24
:102CA300250CF58274033400F583221238708512E3
:102CB30082851383227C8B7D03850A82850B831295
:102CC3002CC622E0FAA3E0FB22122CC61205E9E986
:102CD300F5092290038CE0F5F0E5088490038BF06E
:102CE3007C8B7D0322122941120607740422F0050E
:102CF300088518828519832274EC12176174FE12F9
:102D0300170A8A088B098C0E8D0FEA2405FEEB3413
:102D130000FF122F04EE2418123554EA450B7003FA
:102D2300022DA7122EED5029122DCC8A108B11EAF9
:102D33004511606B7912AC0AAD0B85088285098356
:102D4300122CC285108285118312175FE9F50A7070
:102D530058E4F50AF50B780A1219748E828F83A34F
:102D6300A3E0F50A780A121974EE240312301478DA
:102D73000A1219748E828F83122DD912071B7406BF
:102D8300121720E9F50A7021850C82850D83E07006
:102D93001F850882850983122CC21202898011754E
:102DA3000A0E8009750A018004E50A6003123027C0
:102DB300850C82850D83E0600479008002A90A7482
:102DC300021217207F0C021833851882851983128B
:102DD3002CC612070922123022FD85088285098339
:102DE300122CC62274EE12176174FE12170A8A0897
:102DF3008B098C0C8D0DEA2405FEEB3400FF750E58
:102E030000122F04EA450B7003022ECB122EED5055
:102E13002C122DCC8A0E8B0FEA450F604A7912AC27
:102E23000AAD0B850882850983122CC2850E828523
:102E33000F8312175FE9F50E6003022ECE85088219
:102E430085098312312EAA0AFB122EDF70147AFF32
:102E53007BFF122EDF606C88828983E50AF0A3E58D
:102E63000BF0750A008007750E0E805F050A90034C
:102E730071E0FAE50AC39A504AE50A75F017A4FA15
:102E8300ABF088828983A3A3E02AFAA3E03BFB8A01
:102E9300828B8312301DEC4D70D2750A17750B00AF
:102EA300780A121974EEFCEFFD120F8B74021217DD
:102EB30020EEFCEFFD850882850983122CC21202E5
:102EC3008F8014750E098003750E01123868850C06
:102ED30082850D83123034A90E022A551206FD8A0B
:102EE300108B11A810A911E84922E5082402F5085E
:102EF300E5093400F5098A828B83A3A3A3E0A2E545
:102F030022851882851983AC82AD838E828F8312CA
:102F13002F1A8A0A8B0B22E0FAA3E0FB1206012286
:102F230074041217207F0A02183374EC1217618C91
:102F3300108D11EA2405F50CEB123557750F00EAD5
:102F43002402F50AEB123017850A82F583122CC28C
:102F53001239237003023009750E008071850C82CB
:102F6300850D83E06401704F8E828F83A3A31219B2
:102F73008B8E828F83A3A3A3A3E0F512751300782E
:102F830012121974EE2405F512EF3400F5137812BA
:102F9300121974122CBC12071B7406121720E9F5C0
:102FA3000F6014850C82850D83E4F0123868851058
:102FB300828511831230347C177D007900EEFAEF9D
:102FC300FB120FA38E828F83E4F0A3F0050E900310
:102FD30071E0F8E50EC398501EE50E75F017A4F8DE
:102FE300A9F0850882850983A3A312388812301DAE
:102FF300EC4D6003022F6085088285098374FFF01E
:10300300A3F0E50F7006122CBC120295A90F022D36
:10301300C7F50AEF3400F50B22A3123022FD22E09C
:10302300FCA3E0228E828F83123870850E82850F77
:1030330083E8F0A3E9F02274F61217617C008C0890
:10304300750900740278081216F712306C6A70035F
:10305300A3E06B7006E8FAE9FB800B0CECC3940366
:1030630040DC7A007B000236C074652508F87403DF
:103073003509F988828983E02274F71217617F008A
:10308300EF75F003A4F8A9F0EC28F8ED39F988827C
:103093008983E06A7003A3E06B7006E8FAE9FB80BA
:1030A3000B0FEFC3940440D87A007B007F01021812
:1030B3003374F612176112366570067A007B00804E
:1030C30007A3A3A3A3122CC20236C074F212176182
:1030D300E9FE740E12175512312E74101217551281
:1030E30035968C828D83E06402703BA312386C8822
:1030F300828983E0F50CA3E0F9A80C7402687003DD
:103103007429697021750C02750D00780C121974FD
:103113007808121974780A121974EEF912073F74B9
:10312300061217208002790102378AE0F50AA3E02C
:10313300F50B2274E812176174FB12170AE985185C
:1031430082851983F08A168B178C0E8D0F741F12CC
:103153001755123596742112175512312E742312F6
:10316300175512357B7510008C828D83A3A3A3E0C2
:10317300A2E4502A741D121755122DD28A828B8312
:10318300E58245837003023242790AAC0EAD0FAA81
:1031930016AB1712175FE9F5106003023245850E6F
:1031A30082850F83E0640260030234FBA312386C50
:1031B300850882850983A3858212858313E50E24FE
:1031C30006F50CE50F12355788828983E0FAA3E0F0
:1031D300F9EA2400F514E439F51578141219FE01FF
:1031E30000002801280A3207000228E1320328518F
:1031F3003200290B34012933340229DA3303290B32
:103203003404299C34FB34EE4F703E850C82850DCB
:1032130083123591FAE9FB8A828B83E0850A8285E2
:103223000B831235AD1219748A828B83A312302259
:10323300FDAA08AB09120F8B7402121720800375C5
:10324300100EA910740502387675100B80F4EE4F3A
:1032530070F7850A82850B837401F0123581850826
:1032630082850983F07C007D00850E82850F83A310
:10327300A3A3A3E02401FAA3E03400FB120601EAAE
:103283004B60418A828B83E02402F8850A82850B96
:1032930083E028F0EA2404F8EB3400F98882898378
:1032A300E08512828513831235BF1235AD1219746E
:1032B3008A828B8312301CE5082403FAE509340063
:1032C300FB023238850A82850B83E02404F07C04F8
:1032D3007D007900AA12AB13120FA3023245EE4F01
:1032E300600302324C123581FEA3E0FF850A82851A
:1032F3000B837404F0EE850882850983F0EF851251
:1033030082851383F07403121755AC82AD83EEFAF2
:10331300EFFB12365370030233B78A828B83A3A366
:10332300123577740112175585820E85830F780E37
:10333300121974740512175512198B7CFF7DFF1235
:10334300060774041217208B0FEA450F7033850CA0
:1033530082850D8312355C121974850C82850D8369
:10336300A312198B7C027D007A147B92120385745D
:1033730004121720E9700A740112175574FFF0A3A1
:10338300F08E828F83E064027034750C02750D0039
:10339300780C1219748E828F8312301CE508240472
:1033A300FAE50912292E121720850A82850B83E07C
:1033B300240280097401121755EEF0A3EFF0740193
:1033C30012175512356DF07401121755A312356596
:1033D300A3A3A3F0023245EE4F600302324C850CE7
:1033E30082850D8312301DAA16AB17120733850A87
:1033F30082850B837402F0EA850882850983F08550
:103403001282851383EB80CBEE4F600302324C12A2
:103413003581F8A3E0F9850A82850B837402F0E80D
:10342300850882850983F0E985128285138380A349
:10343300850C82850D83122CC2120F85EAFC8C82C7
:10344300A882C39EE49F404BE86E7001EF70047C3A
:1034530000801F851882851983E0FAEE2AFAEF347B
:1034630000FBC3EA98EB94005003E08004EECCC366
:103473009CFCEC850A82850B83F08C0A750B007823
:103483000A121974850C82850D83E02EFCA3E03F9C
:10349300023233751007023245EE4F600302324C9D
:1034A300850C82850D8312386C850A82850B8374A3
:1034B30007F08882898312356512354DE0851282C3
:1034C300851383F0E82402FAE93400FB8A828B83B4
:1034D30012356512359E12356DA31235A71235715B
:1034E300F0E82405F8E93400F988828983123571FC
:1034F300A31235BFA30233D3741D12175512365EC0
:10350300700302324212386C880C890DE8450D7045
:10351300030232428E108F117810121974780A1236
:10352300197478081219747406121755E0F9AC0E61
:10353300AD0FAA16AB17850C82850D8312175F7426
:1035430006121720E9F510023245F088828983A319
:1035530022F50CEF3400F50D22E0F50E750F00781F
:103563000E22E0850882850983221235C622123590
:10357300C6A3A322A3A3A3A3E0FEA3E0FF22850C7B
:1035830082850D83E0F8A3E0F5838882E022123878
:1035930070E822E0F508A3E0F50922A3A3F08A82EC
:1035A3008B83A32212214EA3A322F08A828B831240
:1035B30035B622E0F50A750B00780A2212354D1252
:1035C30035C622E0850882850983A3A32274EE12FF
:1035D300176174FE12170A8A0A8B0BECFAEDFB745F
:1035E30014121755E0F510A3E0F5117416121755D0
:1035F300E0FE7418121755E0F50EA3E0F50F8518D9
:1036030082851983AC82AD83123653603E8518825E
:1036130085198312365E602FA3A3123596E50845FC
:10362300096024780E1219747810121974EEF9AC2B
:103633000CAD0DAA0AAB0B85088285098312175FAF
:1036430074041217208006790E80027901022A552C
:103653001206018A0C8B0DEA450D22122CC6123676
:1036630065221206C78A828B83E58245832274F61C
:1036730012176174FE12170A740C12175512359142
:10368300851882851983F07401121755E9F0E4F562
:1036930008F5097808121974750802780812197464
:1036A30074041217558582088583097808121974E2
:1036B30012071B740612172074021217207F0202CE
:1036C300183374F7121761EAFEEBFF89087CA47DB7
:1036D30003120733EA5402600BA908EEFAEFFB1258
:1036E30005F5800279010230AF74F612176174FF99
:1036F3006A700374FF6B701B7B00EB75F003A4F817
:10370300A9F0EC28F8ED3912213F0BEBC3940450D8
:103713001480E71207038A088B09A808A909E84956
:103723006003122140809674F61217611207038A10
:10373300828B83E58245836006A3A3E0FA80027A45
:10374300007B000236C074F21217618A088B09EC01
:10375300FEEDFF740E121755E0F50A12378F701C39
:10376300EEFCEFFD7AFF7BFF12378F700479118037
:103773001688828983E508F0A3E509F088828983A6
:10378300A3A3E50AF079007F060218331207038A20
:103793000C8B0DA80CA90DE8492274EE121761EAEF
:1037A300FEEBFF8C088D09890C7412121755123821
:1037B3006C741412175512301D7416121755122CEF
:1037C300C2750D00EC4D60030238607402650C6035
:1037D3000302385B88828983123022F9EC2400F5D6
:1037E3000EE439F50FEAF4F8EBF4F9EC58F8E50FC9
:1037F30059F9E849705DE5082406F8E5093400F94C
:10380300880A890B8882F58312293D1207338A10AF
:103813008B11E50E65107004E50F65116042780E9B
:10382300121974850A82850B8312293D1207397494
:1038330002121720E9F50D7027780E121974850806
:1038430082850983A3A312293B12074B7402121723
:1038530020800D750D808008750D0D8003750D0B8F
:10386300A90D022F288E828F8312387022E0F8A3CD
:10387300E0F9221217207F100218333400F50D856A
:103883000C82F58322E028FEA3E039FF8E828F832A
:10389300227916850A82850B83122CC612071574AA
:1038A300082274F2121761EAFEEBFF890B740165BB
:1038B3000B600E7402650B70647901120919E970CB
:1038C3005CEEFAEFFB1239236048750A00800B7C2B
:1038D300177D007900120FA3050A900371E0F8E544
:1038E3000AC3985022E50A75F017A4F8A9F08508D1
:1038F30082850983A3A3E028FAA3E039FB8A828B9C
:10390300831235914970C885088285098374FFF055
:10391300A3F07CA47D03EEFAEFFB12072D02378A96
:103923001206FD8A088B09EA45092274F21217610F
:103933008A088B09ECFEEDFF740E12175512312E17
:10394300901271E0F4603D7A097B00120FB5EA4BE7
:1039530060328A828B8374B1F0A3E41235A0A31280
:10396300359EA3E508F0A3E50912398AEEF0A3EF2B
:1039730012398AA3A3E50AF0A3E50BF0901271E0D4
:10398300F9120FC102378AF08A828B83A3A3A3A300
:10399300A322C082C0839061907404F0A37448F0A2
:1039A300A3E4F09061807440F09061BC7407F090E0
:1039B30061877469F09061B67416F07900120A1584
:1039C3007902120A1B9020D8E493F46006E493F979
:1039D3001209F17905120D6F023DFBC082C083E924
:1039E300540FF9906185E0696012E5C6548044493B
:1039F300F5C6E59E547F644970F8E9F053C680E547
:103A03009E547F70FA023DFB74F7121761E5A8FE1E
:103A130053A87E1209FDC2BA539AFEC289759B0050
:103A2300C2C2120A0375A91175B905120A09D2BADD
:103A3300439A0174805E42A8024CFEC082C0839008
:103A43006181E4F0A3F0A3F0023DFB75E9007591F9
:103A53000075BF00020122C082C083906181E4F03F
:103A6300A374C0F0A3E480DFC082C08374F812178C
:103A73000A90049B124471E8497003023B229004AC
:103A83009BE0544060237908851882851983AA82B4
:103A9300AB83120B23851882851983AA82AB831209
:103AA30007B790049BE054BFF0E054806010790C9A
:103AB3007A387B08120B2390049BE0547FF0E0A23A
:103AC300E050087900123B2A54FEF0E054026008EB
:103AD3007901123B2A54FDF0E05404600879001286
:103AE3003B3554FBF0E0540860087901123B355430
:103AF300F7F0E0541060087902123B3554EFF0E020
:103B0300542060087903123B3554DFF0A3E05401DD
:103B1300600D120A271207C990049CE054FEF0744A
:103B230008121720023DFB120A151207BD90049BD1
:103B3300E022120A1B1207C390049BE022C082C03A
:103B430083E9600514602A804F90619A7433F0A36F
:103B53007455F09061A0743AF0900814E064017019
:103B630009C29190049D7467802D90049D746180B7
:103B73002690619A743FF0A3745AF09061A0747F09
:103B8300F0900814E064017009D29190049D74715F
:103B9300800590049D746AF0023DFBC082C083E9F6
:103BA300600B14600D14600F14601180209020DCF2
:103BB30080159020DD80109020DE800B900814E0AB
:103BC300640160F39020DFE493906186F0023DFB93
:103BD30074EE12176174F412170A8518828519831B
:103BE300AC82AD8375839175828E740412161D9019
:103BF30020DC93F46003023D65907808E0C39402EF
:103C03005003023D457404121755AC82AD8375838E
:103C13009175822D740812161DF97AFF7BFF7FFFC1
:103C23007E008982858210801874086E7003023CBE
:103C3300FA74096E7003023CFA740A6E7003023C54
:103C4300FAE510C333FCE433FD7404121755E5821F
:103C53002CF582E5833DF583E0F50EA3E0F50F8EA9
:103C630008750900740278081216F774482508FCD1
:103C730074783509FD8C828D8378081215DA7408FF
:103C830078081214F585080C85090D8C828D8378CC
:103C9300081215DA741878081214F5E50C4508F5BE
:103CA30008E50DF509C3E50E9508E50F95098C8226
:103CB3008D8378081215DA8C828D8378081215DAD1
:103CC3007418780840141214F5E50C4508FCAD0D82
:103CD300E50EC39CFCE50F9D800F1214F5E50C4522
:103CE30008C3950EFCE50D950FFDC3EC9AED9B50B3
:103CF30006ECFAEDFBEEFF0EEEC394135003023C09
:103D03002C74FF6A700374FF6B602D8F0874027844
:103D1300081216F7744812497F74783509F58378C9
:103D2300081215DA851882851983E5822510F58234
:103D3300E5831248BDE508F009E9C3940450030282
:103D43003C1D750801750900780812197474021274
:103D53001755AC82AD837A377B081211CB740212EC
:103D63001720740C1217207F0A021833C082C083F5
:103D7300906186E0F89020DFE4936870099020DE7C
:103D8300E493906186F09061AE7468F0A3746AF076
:103D930090624574FBF0A304F053F4FD43FE0290DC
:103DA30008147401F09061A0E0643A700479008013
:103DB300027901120A15023DFB7F04021833C08207
:103DC300C0839007F2E0640170179007F8E0F8747D
:103DD30001686009E8700AA3E064017004790C804B
:103DE30012900809E06401700890080FE064016014
:103DF300EC79008003123F58D083D0820201221253
:103E030044C9940622E0C4333354C022C082C08321
:103E13009007FC7425F09007FA7401F0A3E4F07A9C
:103E230001FB120CEB9007E8E02416123E5C744B86
:103E3300F0A3740AF09007F9E0640170169007F894
:103E4300E070107901120D4B120D1B120D45790014
:103E5300120D57023DFBE02414F8A3E0123E632247
:103E63003400F9888289832274F612176174FA1276
:103E7300170A9007F1E064017008120A339007F102
:103E8300E4F075E1F19007E8E02415123E5C74015B
:103E9300F09007F3E064017053909143C08285185A
:103EA30082851983AC82AD83758391D082740612A7
:103EB300161D75D90D9007EA123E084403F5D9780B
:103EC30000880874EB12497F7407123E0240F278AF
:103ED300008808851882851983E58212497FE58366
:103EE300123E0240EC75E195790180027900120CD3
:103EF300F1901293123F5E74C5F0A3740BF0A312FA
:103F03003F5E123F5E1240BD74CBF0A3740B1240B0
:103F1300D29007EAE0F97AEB7B07120CCD9007FC0D
:103F2300123F587901120CF790916A1215F8120D8D
:103F33000F9091921215F8120CD97900120D63901B
:103F430007E8123E597416F09004997405F00412B0
:103F5300172002455AE0F9121F4F2274BFF0A374D1
:103F63000BF0A32274F41217618908A8081240A168
:103F7300900801E0F97A027B08120CCD90080FE05B
:103F8300701A7900120D2D9007DBE0700B79007A1F
:103F9300DC7B07120CD38009790180F37901120DC0
:103FA3002D75E1F175D923900801123E084405F5FA
:103FB300D97800880A7402250AF5827408123E0231
:103FC30040F175D90075D90075D90075D90075D937
:103FD3000075D9007A0012512D24221243EC40F6C9
:103FE3007A0012512D2426F582E91245620AEAC3AA
:103FF300940340EEEE242B12455F7A0012512D24D8
:104003002C1243F240F67A0012512D242E1243F261
:1040130040F67A0012512D24301243F240F67A0012
:1040230012512D24321243F240F67A008A0AEE2509
:104033000AF8EF12496D1243FF940540EFEE24375F
:10404300124BBF541FF8EE242A124BBFC43354E063
:1040530048F5D975E1959012937495F0A3740BF01C
:10406300A3749BF0A3740B1240B474A1F0A3740B5C
:104073001240D290080E123F5890916A1215F8120E
:104083000D0F9091921215F8120CD990600DE4F077
:104093007901120D639004997406F0023DBCE87532
:1040A300F006A4C8AAF02AF974C928FE740439FFDB
:1040B30022F0A31240BD1240BD221240C122748FD0
:1040C300F0A3740BF0A3748FF0A3740BF0A322126C
:1040D30040D622F09012A11240E2A31240E2221233
:1040E30040C1748FF0A3740BF02274EC121761902B
:1040F30007FF124C7578101215DA900810E0FAF8E1
:1041030075F006A4C8ACF02CF974F728F582740492
:1041130039F583E0FEA3E0FFEEC333FEEF33FF8EFA
:104123000CF50D750E00750F0085100885110985B6
:10413300120A85130B9091CA780812154078081259
:10414300197085100885110985120A85130B7808E3
:10415300790C12152D7810790C121485E4F50EF5EF
:104163000F7808790C1215668A0C750D00740378A4
:104173000C1216F77808790C12152D9091767808A1
:104183001215A1AA08AB09AC0AAD0B121EE7740401
:104193001217208A088B09A808A909C3EE98EF997A
:1041A3005006E82EF8E93FF9E890600EF0E9A3F035
:1041B300EEA3F0EFA3F090600D74C1F07F0C021832
:1041C30033C082C0839007E81241E49007FC023DAC
:1041D300F8C082C0839007FF1241E490080E023DAD
:1041E300F8124C79A3A3A3A3E4F0A3F022020122C3
:1041F30074F212176112433EF50AEF1246B56004DA
:10420300780480027800E8240EF8EAC39850030289
:10421300429C75080C900818E4F0EE2477124BBF0B
:10422300900819F07902EE2478FCEF3400FD7A1A35
:104233007B08120B117902EE247A1242A1247C121C
:1042430042A1247EFCEF3400FD120B11EE24751203
:104253004354850A82850B83E06016750818750937
:104263000878081219747C0C1247C91217207508B4
:104273001074012508F5D975D90378008009880AD7
:104283007418250A124333E8C3950840F175E19584
:104293007904120D15790180027900024968FCEF57
:1042A3003400FD120B117902EE2274F2121761121F
:1042B300433EF508EF3400F509850882F583E06095
:1042C30004780480027800E8240AF8EAC398405589
:1042D300750A089008187401F079057CE27D077A65
:1042E300197B08120B11EE24811243548508828531
:1042F3000983E0601675081875090878081219749F
:104303007C081247C9121720750A0C1245BC80039A
:1043130012432DE8C3950A40F775E1957904120D10
:104323001579018002790002496888087418250804
:10433300F5827408124BC6F5D9082212434222EAC9
:10434300FEEBFF9061D0E0F87480C398FAEE24830B
:1043530022FCEF3400FD8E828F83A3A3A3A3A312B9
:1043630044758C828D83E028F0A3E039F079021242
:104373000B112274F6121761EAFEEBFF9061D0E095
:10438300706275D91875D90375D9037A008A08EE56
:104393002508125132249C12441640F17A008A08EF
:1043A300EE250812513224A41243F240F17A008A16
:1043B30008EE2508125132249412441640F17A0073
:1043C3008A08EE250812513224881243EC40F17515
:1043D300E1957908EE249412440F248812440612BE
:1043E30044E18002790002455A1243F894042212F0
:1043F30043F8940222F582E93400F583E0F5D90A03
:10440300EAC322FAEF3400FB120B17221244067997
:1044130004EE221243F894082274F6121761EAFE9E
:10442300EBFF90081874061244D41219747C0179B6
:10443300031247CF12172075D90675D903780012D6
:1044430044B940FB75E195900499E064087017EE58
:104453002470F582EF12446EEE2472F582EF124857
:10446300BDE8F0A3E9F0790102455A12497A1244F2
:104473007522E0F8A3E0F92274F6121761EAFEEB65
:10448300FF9061D0E0702A900818740A1244D41285
:1044930019747C0179031247CF12172075D9067559
:1044A300D90378001244B940FB75E1951244E680C4
:1044B30002790002455A880874182508F5827408A1
:1044C3001244C99405223400F583E0F5D908E8C302
:1044D30022F075081875090878082275E1957904A2
:1044E300120D15EE2470F582EF12497A124475EE1F
:1044F3002472F582EF12497AE8F0A3E9F0790122F8
:1045030074F6121761EAFEEBFF9061D0E070437915
:1045130001900818740BF0900499E0640770177504
:10452300081875090878081219747C0109091247DB
:10453300CF1217207905740129F5D975D9037800AD
:10454300800312432DE8C39940F875E1951244E6C0
:10455300800279008001F07F02021833F582EF12A6
:104563004BC6F5D92274F51217611245EB60047836
:104573000480027800E8240BF8EAC3984036750AF1
:10458300099008187408F0F91245D46014750818D6
:1045930075090878081219741247C7121720750A8B
:1045A3000D1245BC800312432DE8C3950A40F71250
:1045B30044DE800279000248367401250AF5D97574
:1045C300D903780022EE241DF582EF1248CFA3F021
:1045D30022EE24E5FCEF3400FD7A197B08120B115F
:1045E300850882850983E022124342F8EF124D4980
:1045F300F583E02274F31217618A088B091247DAF4
:10460300FAE5082483F50AEB1246B56004780480C2
:10461300027800E82408F8EAC39850030246AE750E
:104623000C06900818740CF09004B6E0900819F08A
:104633007402C0E0F97CB77D047A1A7B08120B116F
:10464300D0E0F97CB97D04120B11850A82850B83B6
:10465300E0601C750A18750B08780A1219747C0639
:104663007903AA08AB091247CF121720750C0A74F5
:1046730001250CF5D975D90378008009880A7418C7
:10468300250A124333E8C3950C40F175E19579048B
:10469300120D15E5082470F582E50912446EE5084C
:1046A3002472F582E5091244F8800279007F05023D
:1046B30018333400F50B850A82F583E02274F61271
:1046C3001761EAFEEBFF1247DAFCEE2483F8EF12E0
:1046D30047D560047A0480027A00EA2404FAECC322
:1046E3009A405E7A02900818EAF0EE24F7F582EF1A
:1046F300124750601975081875090878081219745B
:104703007C027903EEFA1247CF1217207A0674015E
:104713002AF5D975D9037800800312432DE8C39A8B
:1047230040F875E195EE2474124749EE2480124750
:10473300491245C87904120D15EE240D1244E9807F
:1047430002790002455AF582EF1248CF22124BC676
:10475300900819F088828983E02274F61217611297
:1047630047DAFEEA2483F8EB1247D560047C048021
:10477300027C00EC2404FCEEC39C40437C029008C2
:10478300187407F0EA24F8F582EB124750601575A8
:104793000818750908780812197479031247CF129B
:1047A30017207C0674012CF5D975D9037800800392
:1047B30012432DE8C39C40F875E195790180027995
:1047C3000002455A7C097903EEFAEFFB120B83745E
:1047D3000222123E63E0229061D0E0F87480C39815
:1047E3002274F5121761E9FEA2AFE433F50AC2AFF2
:1047F3007F00EA246FF8EB3400F980010F88828987
:1048030083E0FCEFC39C50188F08EA2508FCEB34C7
:1048130000FDEC246BF582ED124BC26E70DE800D51
:10482300EA2CFAEB124B52EE12475604F0E50AA2B9
:10483300E092AF7F0302183374F6121761A2AFE45C
:1048430033FFC2AFEA246FF8EB125134FCE9FD8C5D
:10485300828D83E014F07E00801E8E08EA2508F81E
:10486300EB125134246CF582E9124BC2C0E0E82408
:104873006B1248BAD0E0F00E8C828D83E0F8EEC361
:104883009840D7EA246EF582EB1248BD74FF1248B4
:10489300C1EFA2E092AF02455AC082C083E5A8F8F7
:1048A300C2AFEA246BF582EB1248BDE91248C1E8B6
:1048B300A2E792AF023DFBF582E912497A22F0EAC0
:1048C300246AF582EB1248CF22F582E93400F5839E
:1048D300E4F02274F21217618C828D83A3A3A3A345
:1048E300E0541FF0EA2436124E7C8E828F83E4F06C
:1048F300F50C850C8285820AEC250AF8ED124D45EC
:10490300F583E0C0E0EA250AF8EB12496DD0E0F048
:10491300750D00850882850983E0F50A750B00E5AE
:104923000D780A1216D8E50AA2E05027E50C3333B6
:104933003354F8250DC0E08E828F83E0F8EA28F81F
:10494300EB12513424381248BAD0E0F08E828F83B0
:10495300E004F0050DE50DC3940840B7050CE50C24
:10496300C39405408D7F060218333400F9E8245DB3
:1049730012497722F582E93400F583222508F5826E
:104983002274F61217619004C5E0640370077A007D
:104993007B0002455A7C00ECF875F006A4C8AAF027
:1049A3002AF974CB28F582740439F583E060030295
:1049B3004B36124DBE124B64E4F0E82404FAE9349A
:1049C30000FBEAFEEBFFEC8E828F83F0E824621299
:1049D3004B432465124B7324681248BA124B64A3E9
:1049E300A3E4F0A3124C08A3124B77240F124B43FA
:1049F3002435124B4B1215F8E824181248BA121634
:104A030004E8241C124B5F241D124B732480124BA9
:104A13005F2474124B5F24691248BA7480F0E8244F
:104A23006A124B5F246F124B5F2467124B5F24EDB6
:104A3300124B5F24EE124B5F24EF124B5F24F012F4
:104A43004B5F24F1124B7324F3124B7324F6124B76
:104A53005F2483124B5F24D3124B5F24D4124B4B3E
:104A63001215F8E824D51248BA1216049091DE12F2
:104A730015F8E824D91248BA121604E824DF124BB9
:104A83005F24E1124B5F24DD124B5F24E2124B5F84
:104A930024E3124B5F24F9124B7324FB124B732450
:104AA300FD124B7324FFF582E91245CEFC8C08E816
:104AB3002508FAE9124B5274FFF00CECC39404403E
:104AC300EC7C008C82AA8274E22AF5827407124B72
:104AD300C2C0E0E82AFAE93400FBEA245DF582EB80
:104AE3001248BDD0E0F00CECC3940540D67C008C9A
:104AF30082AA8274AD2AF5827404124BC2C0E0E824
:104B03002AFAE93400FBEA24E5F582EB1248BDD02A
:104B1300E0F00CECC3940840D69004C5E004F064C4
:104B23000170098E828F83E09004C7F0E8FAE9FBF5
:104B33000249950CECC39403400302499102499A3C
:104B43001249777401F0E8221248CC9091DE2234A6
:104B530000FBEA246BF582EB12497A221248CCE877
:104B6300227401124B6A22F088828983A3A3A322B1
:104B7300124977E4F0A3F0E822C082C083EA240359
:104B8300F582EB124BC26008E4F09004C6E014F027
:104B93009004C5E014F070069004C774FFF08A8295
:104BA3008B83A3A3E4F09007E7E0700D9004C6E0C5
:104BB300640170057900120CDF023DFBF582EF12F0
:104BC3004BC6223400F583E022C082C0837B00EB16
:104BD300F875F006A4C8AAF02AF974C528F8740475
:104BE300124DC8A3A3A3A3A3E4124C08F00BEBC379
:104BF300940340DB9004C5E4F0A3F0A374FFF075C5
:104C0300E1F1023DFB124B6AA3A3A32274F5121731
:104C130061750800750900750A00A80A1240A18E83
:104C2300828F83A3A3A3E0602DE5084509700AEEF4
:104C3300F8EFF988088909801D85088285098312A0
:104C43004C75121987124C711215F8121E8A7404CE
:104C5300121720E960D9050AE50AC3940340BB850E
:104C63000882850983A3A3A3A3E0F90248368E82B1
:104C73008F83124C7922E0F8A3E0F5838882A3A303
:104C83002274F712176178FF79FF7F00EFFC75F04C
:104C930006A4CCAEF02EFD74C92CFC74043DFD8C2F
:104CA300828D83A3A3A3E06040EC2474F582ED120C
:104CB3004BC2FE74FF68700374FF69701574016E54
:104CC300700BEC247AF582ED12446E801CEC242EDA
:104CD30080F374016E700AEC247A124D03500A803B
:104CE300E1EC242E124D0340E40FEFC39403409CE8
:104CF300C3EA98EB994004E8FAE9FB7F0102183311
:104D0300F582ED12497AC3E098A3E0992274F61272
:104D13001761EAFEEBFF120AB7EE2465F8EF124DB6
:104D230045124D53EC4D60109004C712506985082D
:104D330082850983E4F0A3F0EEFAEFFB120C07027D
:104D4300455A124D49223400F9880889098882227C
:104D5300F583E0FCA3E0FD2274F7121761EAFEEB92
:104D6300FF8E828F83A3A3A3A3E0FA7B00120835EF
:104D7300EEFAEFFB120ACF120BE9024CFEC082C01F
:104D8300837B00EBF875F006A4C8AAF02AF9124D4C
:104D9300BEA3E0601AE8246FF582E9124BC2600FEC
:104DA300E8246BF582E9124BC27004790180090B88
:104DB300EBC3940340CD7900023DFB74C928F8741A
:104DC30004124DC82239F988828983A3A32274F679
:104DD3001217617800880874AD12497F7404124772
:104DE3004C08E8C3940840ED9004AD7401024559A2
:104DF300C082C08374FC12170A9091DE1215F885E5
:104E03001882851983121604120B1DE985188285F1
:104E13001983F0120B1D7401121755E9F0120B1DC3
:104E23007402121755E9F08518828519831215F853
:104E33007404023B2474F6121761EA240D124E7CAB
:104E4300EC2403F8ED3400F988088909EC2407F809
:104E5300ED125134FCE9FD124E8612167F8E828FBD
:104E630083E8F0A3E9F0124E8612167F8B09EA4518
:104E7300096003124E9902455AF8EB3400F9E8FE33
:104E8300E9FF228C828D831244758508828509830C
:104E9300E0FAA3E0FB228E828F83E02401F0A3E0FB
:104EA3003400F02274F6121761EA242EF582EB34F3
:104EB30000124D53EA2470124E7C780079FAECFA12
:104EC300EDFB12167F8E828F83E8F0A3E9F0780062
:104ED30079FAECFAEDFB12167F8B09EA45096003B8
:104EE300124E9902455A74F0121761EAFEEBFF74F1
:104EF3001012175578081215DA120C9D8A0C8B0DB7
:104F03008C0E8D0F9091EA780C1215409091767863
:104F13000C1215A1780C121970124C711215F8129B
:104F23001E8A7404121720E96003024FCD8E828F0C
:104F330083E02402F8A3E0125134FAE9FB8A828B5E
:104F430083780812155390917678081215DA8A82BD
:104F53008B8378081215B4EE240BF582EF1248BD4B
:104F6300C082C0838E828F83A3A3A3A3A3E0240163
:104F7300F8A3E03400F9D083D082E0687003A3E0A3
:104F830069700479018045EE2407F8EF123E63123D
:104F93004E9DEE24741251397014EE2475124FD4C1
:104FA3007003A3E06D70078A828B83124E9DEE24FB
:104FB300801251397014EE2481124FD47003A3E090
:104FC3006D70078A828B83124E9D79007F080218C9
:104FD30033FAEF3400FB8A828B83E0FCA3E0FD8885
:104FE300828983E06C2274F31217619004C7E0F89E
:104FF3001240A2EE2404F50AEF3400F50BEE24650B
:10500300F508EF3400F5098010124D5585088285A7
:105013000983E4F0A3F012506385088285098312A3
:105023004D55EC4D6030EE2464124BBFF50C780CFB
:10503300121978EE2463124BBFF9EEFAEFFB120B51
:10504300057401121720E985088285098360BA1265
:105053004471E84970077C007D001250630246B03A
:10506300850A82850B83E0FA7B001207ED2274F236
:10507300121761EAFEEBFF890A740E121755E0FA64
:10508300EE246212513960030251281247DAF50CFB
:10509300EE2483124BBFFB600478048002780089FE
:1050A30008E928F8E412513424020808E93400F925
:1050B300E50C98E499A2D265D0334065EA70057592
:1050C3000B028003750B01EB60337509007808123E
:1050D30019747A187B08120B4D7402121720750885
:1050E300187509087808121974AC0AA90B1247CB72
:1050F3001217207404250AF50A7C187D087401250B
:105103000AF5D9850BD97800800A8808EC12497F03
:10511300ED124337E8C3950A40F075E195790080B5
:10512300067907800279FF0249688A0AEE250AF8A0
:10513300EF3400F9E822F582EF124BC6640122C076
:1051430082C0838003125170E9F874FF2819047038
:10515300F4ECFAEDFB023DFBC082C08380031251E5
:1051630070E9F874FF28190470F4023DFB8C828DFA
:1051730083E08A828B83F08C828D83A3AC82AD83A0
:105183008A828B83A3AA82AB832274F4121761E908
:10519300FF7E008A088B0978081219B800040F5E95
:1051A30053C451E051F5510A521F523452505269BF
:1051B300527B52A952CB52E752035321535E5342BF
:1051C3005374016F70128C828D83E0C39403500873
:1051D300E09012B5F002537C7E1802537C74026F88
:1051E30070F68C828D83125B6D9012B6E8F0A3E9A2
:1051F30080E274016F70E18C828D83E0C39402506E
:10520300D7E0900DDC80CD74016F70CC8C828D83E0
:10521300E0C3940550C2E0900DDD80B874016F7057
:10522300B78C828D83E0C3940250ADE0900DDE8095
:10523300A374106F70A27508108E09780812197480
:105243007ADF7B0D125F5A12172002537C74016FB1
:1052530070868C828D83E0C3940240030251DBE0AD
:10526300900DEF0251D774016F60030251DB8C8202
:105273008D83E09012B9808D74046F60030251DB5B
:105283009091A278081215DA8D838C827808121314
:10529300D640030251DB8C828D831215F8900DF1F9
:1052A30012160402537CEF60030251DB120517E967
:1052B300700E12115F795012132D12115302537C89
:1052C300900E8474010251D774016F60030251DBA5
:1052D3008C828D83E0C3940240030251DBE0900D86
:1052E300F00251D774016F60030251DB8C828D830E
:1052F300E0C3940A40030251DBE09012B80251D795
:1053030074016F60030251DB8C828D83E024F9C347
:10531300940A40030251DBE09012BA0251D77401A0
:105323006F60030251DB900E83E0F88C828D83E083
:10533300900E83F0E87042E06401703D0252BD7448
:10534300016F60030251DB8C828D83E0C3940440C0
:10535300030251DBE09012BB0251D7C3EA9426EB60
:105363009400501374026F700E8C828D83125B78DD
:105373001203FDE9FE80020E0EEEF9025386740E4F
:105383001217207F0402183374F212176174DA12B1
:10539300170A890AECFEEDFF7434121755E0F50B7A
:1053A3007420121755AC82AD8375839175825B743B
:1053B3000612161D7420121755AC82AD831210F914
:1053C300E9F508C3940A40030254DE12113BE9F5E0
:1053D300099012B5E06402700474018001E4F50CD5
:1053E300780C121978AD0BAC09A908EEFAEFFB1291
:1053F300118974011217207C147D007900740C123A
:105403001755AA82AB83120FA375F006E508A4F51E
:105413000B740C121755AC82AD837A107424250BD0
:1054230012600F70387C1079FF740C121755125DDF
:1054330010702A741C121755AC82AD837A0474253C
:10544300250BF9121327740C121755AC82AD83E5A3
:1054530009A2E0E433F9EEFAEFFB12049385188214
:10546300851983AC82AD837A0C7470250812600FA2
:105473007055851882851983AA82AB8312112F7503
:105483000800E50875F003A4F8A9F08518828519CA
:1054930083E58228F8E583125D4C125B78EC4D605E
:1054A3001D88828983A3A3E0F50C750D00780C1287
:1054B3001974EEFAEFFB1207217402121720050884
:1054C300E508C3940440BBE509A2E15046900DDB17
:1054D300E0F9EEFAEFFB12072780387408650B70CA
:1054E300329012B5E06402702A7C007D00A90AEEB6
:1054F300FAEFFB12118312551D6018125B7E88822E
:105503008983E5824583600B7C007900EEFAEFFB2B
:1055130012175F7900742602639F900DF5E0F8A3DC
:10552300E0F9E8492274F0121761EAFEEBFF8C08F8
:105533008D09750A0AE9600C14600914602E146061
:105543007F0255CE121147E9F50AC3940A507CE550
:105553000845096076750E06750F00780E121974EA
:10556300EEFCEFFD125F56121720805F750B00757E
:105573000E06750F00780E121974EEFCEFFDE50BA5
:1055830075F00EA4F8A9F074FD28FA740D39FB1216
:105593000F9D7402121720E9601B850B0AE50AC3ED
:1055A300940A5027E50845096021AA08AB09A90A0E
:1055B3001211418016050BE50BC3940A500D80AF01
:1055C30012114DE9F50AC3940A40D9A90A7F0802CA
:1055D300183374F4121761890875091574FF6A701A
:1055E3000374FF6B70277E00AC087A027B00EEF930
:1055F30012111DE960037509000EEEC3940A40E819
:10560300E50860497A777B1112092B804012090D56
:105613008A0A8B0BAE0AAF0BEE4F602E7C007D0027
:10562300EE2405FAEF3400FB8E828F831256CC50A2
:105633000CAC087A027B0012111D750900E50860A5
:105643000CEEFAEFFB1211778003750914A9090216
:10565300538674F2121761ECFEEDFF740E121755A8
:10566300125B6575081574FF6A700374FF6B702114
:10567300750900AC0AAD0BEEFAEFFBA90912112371
:10568300E960037508000509E509C3940A503580EC
:10569300E212090D8A828B83E582458360237C00B5
:1056A3007D00E5822405FAE5833400FB1256CC50D5
:1056B30013AC0AAD0BEEFAEFFB1211237508008051
:1056C30003750814A9080263A2A3A3A3A3125B4F43
:1056D300C3940A22C082C083900DF5EAF0A3EBF0D5
:1056E300900DDBE0FC7D007A257B001203FD900D1D
:1056F300DBE0F91206A3D083D08202012274EC12FC
:1057030017618A088B09E9FE7414121755780C1275
:1057130015DA7F00EE702E78081219749091A27832
:10572300101215DA780C7910121485AA10AB11AC8B
:1057330012AD131204A57402121720E9FF60097950
:1057430001AA08AB0912049FEFF97F0C0218337406
:10575300EA12176174EC12170AEAFEEBFFEE240C4F
:10576300F514EF3400F5158E828F83A3858212859D
:105773008313EE240AF510EF3400F511EE2403F53C
:1057830008EF3400F5098E828F83A3A3E024FA7017
:1057930003025B2724FD7003025A4A147003025864
:1057A3003E146010147003025A7C24FE70030259E5
:1057B300CA025B45EE2409F50AEF3400F50B1255D6
:1057C3001D604AE0F5838882125B6D880C890DE8C1
:1057D300450D6039851482851583E0F50E780E1228
:1057E3001978EE240BF582EF3400F583E0F9850A8E
:1057F30082850B83125B780A0A0AAB09850C8285C2
:105803000D8312175F7401121720025B45850A820C
:10581300850B8312198B900DF11215F81204A574E0
:1058230002121720E97003025B457901850A82851C
:105833000B831263AD12049F025B458512828513AD
:1058430083E0600302599DEE2405F50CEF3400F567
:105853000D850C82F583E0A2E0400302599D7C0E86
:105863007D007900851882851983AA82AB83120F84
:10587300A3EE2408F50AEF3400F50B850A82F583BD
:105883001255206019750E06750F00780E121974E3
:10589300850A82850B83E02410FCA3E0801A125B47
:1058A30056EA4B7003025B45750E06750F00780EC2
:1058B300121974EA2405FCEB3400FD740212175527
:1058C300AA82AB83125F5A121720850C82850D833F
:1058D300E0A2E25004D2F08002C2F0A2F0E433F876
:1058E300740C121755E048F0851082851183125508
:1058F300206015851082851183E02410F8A3E0341D
:1059030000F98882898380039091BE780C1215DA9E
:10591300851082851183125520600F8510828511B1
:1059230083E0F510A3E0F5118006751000751100F2
:10593300850A82850B83125520600B850A82850BAD
:1059430083125B658006750A00750B00780C1219CB
:10595300707810121974780A1219748514828515D7
:105963008312198B8E828F83A3125B73740A1217AF
:1059730055AA82AB83121135740A12172085088247
:10598300850983125B6D900E85E8F0A3E9F07A0137
:105993007B00900DDBE0F9120FE512551D70030239
:1059A3005B45125B7EE8FEE9FFEE4F7003025B4549
:1059B300851282851383E0FC79011263A78E828F9F
:1059C3008312175F025B45851282851383E06406A9
:1059D300704C125B568A0A8B0BEA450B604090129F
:1059E300BBE014600814602814601880317C007DCB
:1059F300008A828B83A3A3A3A3E0F91263A71211E6
:105A030083801B7C007D0079007A097B041210EDF2
:105A13001263A7850A82850B83E0F912048D125560
:105A23001D7003025B45125B7E890BE8450B700317
:105A3300025B458E828F83A3E0FC79021263A78801
:105A430082850B830259C47C007D00EE2404FAEFA7
:105A53003400FB850882850983125B4FF8C3940ADF
:105A63004003025B45AC10AD117A0475F006E8A45F
:105A73002425F9121321025B45850882850983E0F9
:105A8300F508A3E0F509740E121755AC82AD8375C2
:105A9300839175823D740612161DAA08AB0912097B
:105AA3000D8A0A8B0BA80AA90BE8497003025B4510
:105AB3009012B5E064027003025B45E82404FEE93A
:105AC3003400FF740E121755AC82AD83E82405FA37
:105AD300E93400FB8E828F83125B4FF50AC3940A6D
:105AE300501C750B01780B12197812113BE9FC74E9
:105AF30008FDA90AAA08AB091211890258089012D5
:105B0300B5E070097905AA08AB0902583864017039
:105B1300317C007D008E828F83E0F9AA08AB0912E5
:105B23001183801E120517E97018900E84E064013A
