:020000040000FA
:0600000002010A02201CAF
:03002B0002228925
:03003B000222AAF4
:0300430002223462
:03005300022092F6
:03005B0002231469
:03006B0002225A14
:10008300021ECBE5C754F84401F5C77901220000ED
:100093000080FB120086B900030200F4E4791A78A9
:1000A30002B800028004F709D8FCE4791C7802B88E
:1000B30000028004F709D8FCE4900281785E79108D
:1000C3008002F0A3D8FCD9FA9011DEAA82AB839008
:1000D300013A78E779018015E493A3AC82AD838A72
:1000E300828B83F0A3AA82AB838C828D83D8E9D9D8
:1000F300E77582717583C8740312011C758291754B
:100103008300740012011C75D00075813F7518813E
:10011300751902759F00020096C09FF59FE473D086
:100123009F22D083D082C09FE493C0E0740193C028
:10013300E0740293F59F22A603B803E203AC03FF26
:100143000000B4000028002800283075A000A0009B
:10015300A000A00000080008E001F000100010005B
:10016300100010001000100050005000500010004C
:100173001000D0070000000000000F000100050080
:10018300307507001000010081FF00000000FF022E
:100193000202E691010000D49102E09101000036D1
:1001A3001202DC91010000B20202E091010000376B
:1001B3001202DA91010000C802FFFF0100FF2002D2
:1001C300E691010000D79102E0910100006512025F
:1001D300E491000000000002DE91030000A50392F9
:1001E3000B920B920B920B920B920B920B920B9224
:1001F3000B920B920B920B920BA80DC60DA20DFF47
:10020300FF01E803053F10020AFF000B7C0CD781B6
:1002130038F3102C02E2900D152FDE033412012562
:10022300BABF03120125D0BF03120125FFBF03127A
:10023300012535C0031201254CC00312012563C0FB
:10024300031201259AC003120125EDC003120125F3
:1002530004C1031201252DB90312012544B9031268
:10026300012575B903120125B0B903120125DAB9C5
:100273000312012504BA031201251BBA0312012537
:1002830032BA0312012549BA0312012572BA0312C5
:10029300012585BA031201259BBA03120125C5BAAC
:1002A30003120125619C02120125659D021201259D
:1002B300929D02120125E89D021201250B9E021256
:1002C30001251F9E02120125219E02120125449E33
:1002D30002120125539F0212012517A002120125C4
:1002E300ECA0021201255DA102120125E9A102126F
:1002F3000125ECA10212012574A202120125AFA26D
:100303000212012516A30212012519A302120125C7
:1003130050A30212012579A30212012524A402127B
:100323000125AEA402120125FDA4021201250AA58E
:10033300021201250DA5021201256DA50212012548
:1003430078A502120125F7A502120125FAA50212CA
:1003530001250DA60212012510A6021201259FA652
:1003630002120125B9A602120125C9A6021201250E
:10037300F9A60212012506A70212012509A70212F6
:1003830001258AA70212012578A8021201252AA9AC
:1003930002120125C6BF02120125C3C002120125A4
:1003A30045C10212012565C102120125ADC1021228
:1003B300012500C20212012564C202120125F1C205
:1003C30002120125ABC302120125BAC6021201258E
:1003D30045C80212012568C802120125E29A0312D8
:1003E30001257F9C03120125E39C03120125429DF5
:1003F30003120125509D03120125799D0312012546
:100403004CF60212012574F602120125A2F602121D
:100413000125D9F60212012537F70212012582F7C9
:1004230002120125CDF7021201250DF80212012552
:1004330053F80212012581F8021201253EF9021236
:10044300012548F90212012555F90212012588F9FF
:100453000212012554FA0212012560FA0212012543
:1004630078FA0212012582FA0212012500FB021218
:100473000125117F001201251F7F00120125377FFF
:10048300001201254F7F00120125677F001201250D
:10049300B9E80112012565E901120125E0E901121C
:1004A300012501EB011201253DEB01120125E6EBCC
:1004B30001120125CDEC0112012531EE01120125B6
:1004C30088EE0112012509EF01120125F9EF01124E
:1004D300012546F001120125CCF001120125FEF0A1
:1004E3000112012512F30112012554F30112012512
:1004F30072F30112012514F401120125DCF4011237
:100503000125E9F6011201258D9E03120125A39E03
:1005130003120125C99E03120125E59F031201253C
:10052300EF9F0312012524A1031201251CA203122C
:1005330001257E8E03120125228F03120125558F7B
:10054300031201259F8F03120125629103120125D6
:10055300A5A6011201251EA7011201252EA701122E
:1005630001251CA80112012526A8011201254BA86B
:100573000112012556A80112012540A901120125E6
:10058300A3A90112012559AA0112012540AC0112A8
:100593000125F9AD01120125D5AE0112012589AF5F
:1005A30001120125C6B20112012574B301120125FE
:1005B300E3B40112012563B6011201250AB7011242
:1005C300012553B7011201258AB70112012527B866
:1005D30001120125B2B801120125BECA011201257B
:1005E30013CB0112012572CC0112012582CC011219
:1005F3000125AFCC0112012506CD01120125AFCD96
:1006030001120125B6CE0112012580CF0112012569
:10061300E0D00112012523D101120125C8D1011215
:100623000125EED101120125FCD30112012501D4CC
:100633000112012506D60112012553D60112012507
:10064300C6D601120125F9D6011201259BD7011245
:10065300012544D8011201257CD8011201257FD838
:1006630001120125C7D80112012509D9011201255B
:1006730060D90112012534AC0312012547AC0312E2
:10068300012555AC031201259DAC03120125B3AC22
:1006930003120125FAAC031201250EAE0312012544
:1006A3009BAE03120125E6AE03120125BC23001203
:1006B3000125CC23001201252F24001201257424C7
:1006C300001201252A250012012505260012012505
:1006D3002E26001201255E26001201259E280012F7
:1006E3000125852A001201255D2C00120125A12D6B
:1006F30000120125083000120125163100120125D0
:10070300683200120125723300120125B43300123E
:100713000125EC33001201250E340012012571343A
:1007230000120125333900120125C83900120125B1
:100733001C3A00120125433A00120125813A0012A6
:100743000125A03A00120125FA3A00120125FA3BCD
:10075300001201257F3C0012012578F002120125C9
:1007630082F0021201252AF1021201256DF1021213
:10077300012588F10212012518F20212012540F227
:100783000212012578F202120125AFF202120125AD
:10079300D8F20212012512F30212012527F30212E5
:1007A3000125F4F30212012517F40212012539F48D
:1007B300021201254EF402120125D4F4021201257E
:1007C3000EF50212012586F502120125CFF502125C
:1007D3000125F9F50212012524F6021201258CC325
:1007E300031201250080021201252E800212012529
:1007F300898102120125698202120125888202126F
:100803000125058302120125488302120125C384B1
:10081300021201253285021201255D87021201258C
:10082300E18902120125928A02120125888B0212A4
:100833000125288C02120125268D02120125B18D76
:10084300021201251BC10312012584C103120125D4
:10085300D8C10312012507C20312012528C20312BE
:10086300012588FB02120125F5FB021201253CFC40
:100873000212012554FD0212012550FE0212012528
:1008830033FF02120125EBE2021201252DE30212CE
:10089300012506E40212012500E502120125E2E525
:1008A300021201254BE60212012567E70212012518
:1008B300D3E702120125D6E702120125FFE7021250
:1008C300012579E8021201251EE90212012533E907
:1008D3000212012579E90212012592E9021201258A
:1008E30095E90212012526A20312012562A2031231
:1008F3000125A0A2031201256AA303120125D9A38E
:100903000312012514A40312012552A40312012585
:1009130082A403120125A9A40312012517A503121A
:10092300012559A503120125F99101120125BC9353
:1009330001120125879501120125C3950112012595
:10094300F09501120125B29601120125F9960112C3
:1009530001253D97011201254F97011201258F971C
:1009630001120125BC97011201250A9801120125E4
:10097300449801120125679801120125B9980112C3
:1009830001254799011201251D9A01120125079B93
:1009930001120125D69C01120125D7A101120125BF
:1009A30026A2011201256DA201120125A0A40112A4
:1009B300012596B40312012508B5031201255EB57E
:1009C30003120125A2B503120125C2B503120125A5
:1009D3000FB60312012557B603120125AAB6031257
:1009E3000125FBB603120125E63C001201252F3D2C
:1009F300001201255C3D001201258F3D00120125E7
:100A03009F3D00120125AB3D00120125BC3D0012A4
:100A13000125A33E00120125013F00120125363FA7
:100A230000120125794000120125CB400012012557
:100A33001B41001201256E41001201256D42001277
:100A43000125E84300120125BF4400120125CF44CC
:100A530000120125F14400120125F444001201257E
:100A6300C245001201259346001201256247001278
:100A73000125B647001201251648001201257A48C0
:100A8300001201252B4900120125F6490012012508
:100A9300984A001201250D4B00120125794B0012D3
:100AA3000125CE4B00120125FF4B001201259A4C64
:100AB300001201257E4E00120125CD4E00120125A4
:100AC300104F00120125924F0012012530500012E1
:100AD30001257750001201259B5000120125E25099
:100AE3000012012510510012012558510012012551
:100AF300D251001201251652001201252353001270
:100B03000125D253001201253354001201258F54BD
:100B130000120125A8540012012593C902120125D0
:100B2300E6C902120125F2C902120125C7CA02123F
:100B33000125EECA0212012529CB0212012595CB0C
:100B430002120125D1CB021201250ACC0212012582
:100B530022CC0212012577CC0212012590CC02127D
:100B63000125D9CC02120125ECCC0212012506CDB8
:100B7300021201251CCD021201254FCE02120125BE
:100B830096CF0212012598D00212012592D10212AA
:100B93000125F8FF011201250080031201256F834F
:100BA30003120125A884031201259BA90212012522
:100BB30011AC0212012517AC021201257FAE0212FD
:100BC3000125E6B002120125F3840312012589856C
:100BD300031201254086031201256A8603120125AB
:100BE3005D88031201258589031201256D6B0012AF
:100BF3000125A16B001201258E7500120125E276F5
:100C030000120125ED77001201256D7900120125EF
:100C13004E7A00120125887A00120125AB7A001260
:100C23000125ED7A00120125377B00120125417B56
:100C330000120125EB7B00120125C47C0012012563
:100C4300187D001201257A7D00120125CD7D001249
:100C53000125FC7D00120125397E001201250BA917
:100C63000312012581A90312012597A90312012566
:100C7300D8A90312012512AA031201258BAA031274
:100C83000125C6AA0312012539AB0312012577AB4F
:100C93000312012580AB031201258CAB031201253E
:100CA300A8AB03120125D3AB0312012504AC031235
:100CB3000125B9E902120125CCE902120125E6E971
:100CC300021201250FEA0212012552EA021201253E
:100CD30091EA02120125CFEA0212012534EB021236
:100CE300012549EB0212012560EB021201256EEB8F
:100CF300021201257DEB0212012592EB021201255E
:100D0300A7EB02120125B2EB02120125BEEB021280
:100D13000125CBEB02120125DEEB02120125E9EBE3
:100D2300021201250EEC02120125B5EC0212012577
:100D3300CAEC02120125DFEC02120125F9EC0212C2
:100D4300012514ED0212012531ED021201253CEDBE
:100D530002120125F8ED02120125E4EE021201252B
:100D630009EF0212012514EF0212012529EF0212E5
:100D730001253DEF021201259EEF02120125A4EF8A
:100D830002120125AAEF02120125B0EF021201257A
:100D9300C8EF02120125FBEF0212012570B5021202
:100DA300012592B50212012572B60212012549B935
:100DB3000212012575BA0212012599BB02120125FF
:100DC3004BBC02120125ECBC02120125378E021224
:100DD3000125BB8E021201256A8F02120125C990DB
:100DE30002120125EA9202120125D693021201256D
:100DF3000B94021201252D9402120125DC94021298
:100E03000125D49602120125FD96021201258F9722
:100E130002120125C19702120125CE970212012564
:100E23002598021201254B9802120125B89A021245
:100E33000125BB9B02120125139C021201254DDAE9
:100E43000112012557DB011201253EDC01120125A8
:100E530048DC011201256ADC0112012576DC01124E
:100E630001250FDE011201253EDE011201255ADFA5
:100E730001120125B3DF0112012519E10112012538
:100E8300F8E10112012554E201120125C1E2011228
:100E93000125FCE2011201253BE301120125F4E5E2
:100EA300011201250EE6011201259AE60112012520
:100EB300A8E60112012501E7011201250FE701123E
:100EC300012582E701120125E6E70112012530E839
:100ED30001120125D7BA03120125FCBA0312012519
:100EE3006EBB031201259FDB02120125A8DB021250
:100EF3000125B1DB0212012588DC0212012539DE4E
:100F0300021201256FDE02120125A9DE021201255C
:100F1300DFDE0212012519DF021201254DDF021265
:100F2300012579DF02120125C2DF02120125FCDF50
:100F33000212012545E0021201259DE0021201255E
:100F4300D2E0021201252DE10212012567E102120E
:100F53000125B8E102120125EEE10212012528E282
:100F6300021201254BE202120125ABC70312012530
:100F7300D7C70312012532C8031201253CC8031247
:100F830001254CC80312012502F7011201250CF7B4
:100F9300011201254AF70112012593F701120125D8
:100FA300CDF70112012527F80112012548F8011296
:100FB300012520FB0112012529FB0112012576FBE6
:100FC300011201259FFB01120125A9FB0112012535
:100FD30015FC01120125A7FC01120125F1FC0112E8
:100FE300012527FD01120125B3FD01120125F4FDA1
:100FF300011201252BFE011201253DFE01120125DF
:101003005CFE0112012565FE011201252DFF01126F
:101013000125B4C6031201253CB70312012572B79B
:1010230003120125A8B703120125F3B80312012502
:1010330039C9031201254FC90312012559C90312E6
:101043000125FF9203120125149303120125C7936F
:10105300031201250794031201252094031201258D
:101063005B9403120125A89403120125DA94031259
:1010730001251C9503120125279703120125A3C9F6
:10108300031201251EBE0312012547BE03120125CB
:1010930076BE031201250EBF0312012526BF0312DC
:1010A300012568BF03120125BC8903120125FE89AE
:1010B30003120125878A03120125D88A0312012509
:1010C3001D8B03120125788B03120125C78B031295
:1010D30001251D8C03120125128D03120125098E92
:1010E30003120125468E03120125CAC803120125E6
:1010F300DA54001201255B5700120125F55800123E
:101103000125A959001201253C5A00120125C15A93
:1011130000120125E65A00120125385B0012012551
:10112300ED5E00120125735F00120125A660001217
:101133000125E06000120125156100120125D2622C
:1011430000120125066300120125636300120125C5
:10115300AC63001201251364001201258C64001294
:101163000125BB6400120125D364001201251C660E
:10117300001201252C66001201254A670012012581
:101183006C6700120125A267001201255169001244
:101193000125DE69001201251D6A00120125366B47
:1011A3000012012506CB0312012502CA03120125F1
:1011B30041CA03120125F3CA031201255BFF011281
:1011C30001256BFF0112012586FF01120125EEFFA8
:1011D30001120125B0C50312012535C603120125ED
:1011E3009BC603120125A5C403120125CCC4031217
:1011F300012522C50312012572C503120125A1A5EC
:1012030003120125B6A503120125FAA6031201252F
:1012130076A703120125EAA70312012504A80312E6
:1012230001251BA8031201252EA80312012548A896
:10123300031201255FA80312012585A803120125C6
:10124300D6A80312012534970312012548970312E8
:101253000125C29703120125A698031201257D9A41
:1012630003120125DCB1031201256CB2031201251F
:1012730005B30312012596B3031201259FB303128D
:1012830001251DB40312012533B40312012593B4C0
:10129300031201256EC203120125DEC203120125CA
:1012A300EEC2031201250AC3031201257CBC0312FB
:1012B3000125CEBC0312012558BD03120125BFBD74
:1012C3000312012510AF031201253AAF03120125C2
:1012D30008B003120125E3B0031201256AB103121A
:1012E30001255DD30212012524D4021201255BD40A
:1012F3000212012585D402120125E5D4021201252B
:101303003BD502120125A0D50212012538D60212BF
:10131300012547D702120125DED8021201256BD918
:1013230002120125D2D902120125E9D9021201259F
:1013330003DB0212012541DB021201258FB90112E1
:10134300012594BA01120125F6BB0112012583BDC3
:10135300011201254DBE01120125B6BE0112012560
:101363004BC0011201256EC00112012534C50112C3
:10137300012588C50112012526C60112012570C861
:101383000112012515C9011201259CC9011201256C
:101393009FC90112012556C8031201255EC8031215
:1013A300012581CA031201254BCA03120125ADCAC7
:1013B30003120125D5CA03E066701008A3E0667026
:1013C3000A08A3E066700408A3E06622C3E7960850
:1013D30009E7960809E7960809E79622C3E0960805
:1013E300A3E09608A3E09608A3E09622C008C3E012
:1013F30096F50808A3E096420808A3E09642080879
:10140300A3E09645087001D3D00822080808EAC073
:10141300E0EBC0E086F0E7A4FA180986F0E7A42A17
:10142300FA180986F0E7A42AFA180986F0E7A42A2D
:10143300FA1986F0E7A4FBE5F02AFA190886F0E723
:10144300A42BFBE5F03AFA190886F0E7A42BFBE599
:10145300F03AFA18180986F0E7A4C5F02BFBE43A32
:10146300FA1908E7C5F0C6A426F6E5F03BFBE43A13
:10147300FA1886F0E7A4F6E5F00826F6E43B08F64A
:10148300E43A08F6D0E0FBD0E0FA22E4CFC0E0E48F
:10149300CEC0E0E4CDC0E0E4CCC0E075F020C3E60C
:1014A30033F608E633F608E633F608E633F618189B
:1014B30018EC33FCED33FDEE33FEEF33FFC3EC9753
:1014C30009ED9709EE9709EF97191919400FFFECEA
:1014D30097FC09ED97FD09EE97FE191906D5F0BEA5
:1014E300ECF709EDF709EEF709EFF7191919D0E051
:1014F300FCD0E0FDD0E0FED0E0FF22601608080833
:10150300C6C313C618C613C618C613C618C613C651
:10151300D5E0EA227009080808226016181818C6D0
:10152300C333C608C633C608C633C608C633C6D5D2
:10153300E0EA22E627F60809E637F60809E637F671
:101543000809E637F622E026F608A3E036F608A3F4
:10155300E036F608A3E036F622E026F008A3E036EC
:10156300F008A3E036F008A3E036F022C3E697F6CE
:101573000809E697F60809E697F60809E697F622BA
:10158300C3E096F008A3E096F008A3E096F008A362
:10159300E096F022E657F60809E657F60809E657FB
:1015A300F60809E657F622E056F608A3E056F608D1
:1015B300A3E056F608A3E056F622E056F008A3E0AF
:1015C30056F008A3E056F008A3E056F022E066F6D2
:1015D30008A3E066F608A3E066F608A3E066F62231
:1015E300E0F608A3E0F608A3E0F608A3E0F622E697
:1015F300F008A3E6F008A3E6F008A3E6F022E0FA79
:10160300A3E0FBA3E0FCA3E0FD22EAF0A3EBF0A33D
:10161300ECF0A3EDF022CAC0E0E6F0A308DAFAD0BA
:10162300E0FA22CAC0E0E0A3C582CCC582C583CD5F
:10163300C583F0A3C582CCC582C583CDC583DAE655
:10164300D0E0CA22C3E498F8E499F91216888026F8
:10165300C3E49AFAE49BFBE920E7E9121688E498CD
:10166300F8E499F922C3E498F8E499F9121688E4A6
:1016730098F8E499F9C3E49AFAE49BFB22EB20E798
:10168300CFE920E7E0B90010BB0008E88AF084F84E
:10169300AAF022E4FBC8FA22EB70227B10C833C8FD
:1016A300C933C9335007C39AC3DBF280069A50018A
:1016B3002ADBEAC833F4C8C933F4C9FA2275F0083F
:1016C300E4C833C8C933C933C99AC99B5004C92A6A
:1016D300C93BD5F0ECFBC833F4C8E4C9FA22600D6A
:1016E30008C6A2E713C618C613C6D5E0F322600CDA
:1016F30008C6C313C618C613C6D5E0F42270042265
:10170300600D18C6C333C608C633C6D5E0F4182225
:10171300251810AF08F518400215198008F5184070
:10172300021519D2AF22C0D0251810AF08F51850F2
:101733000205198008F51850020519D2AFD0D0223E
:101743002518F58210AF08F518400215198008F521
:101753001840021519D2AF851983222518F582E4A2
:101763003519F58322E4732518C582C0E0E51934E1
:10177300FFC583C0E0E518C3958224F810AF088540
:1017830083198582188008858319858218D2AFCE84
:10179300F0A3E520F0A37808E608F0A3DEFAEFF063
:1017A300A3E58124FAF8E608F0A3E608F0A3E60827
:1017B300F0A30808E608F0A3E608F0A31581158155
:1017C300D0E0FED0E0F8158115811581E8C0E0EE88
:1017D300C0E0222518C582C0E0E51934FFC583C0E7
:1017E300E0E518C3958224F910AF08858319858233
:1017F300188008858319858218D2AFCEF0A3E5201F
:10180300F0A37808E608F0A3DEFAEFF0A3E581245D
:10181300FBF8E608F0A3E608F0A30808E608F0A33F
:10182300E608F0A315811581D0E0FED0E0F815811C
:101833001581E8C0E0EEC0E022851983851882E0B7
:10184300A3FEE0A3F5207808E0A3F608DFFAE0A3FF
:10185300FFE0A3C0E0E0A3C0E0E0A3C0E0E0A3C0DA
:10186300E0E0A3C0E010AF088582188583198008E3
:10187300858218858319D2AFD083D0820201228555
:101883001983851882E0A3FEE0A3F5207808E0A37E
:10189300F608DFFAE0A3FFE0A3C0E0E0A3C0E0E0C6
:1018A300A3C0E0E0A3C0E010AF08858218858319C8
:1018B3008008858218858319D2AFD083D08222C055
:1018C300D02518C582C0E0E51934FFC583C0E0E523
:1018D30018C3958224F310AF088583198582188075
:1018E30008858319858218D2AFC8F0A3E9F0A3EA6B
:1018F300F0A3EBF0A37908E709F0A3D8FAECF0A37F
:10190300EDF0A3EEF0A3EFF0A3D0E0F0A3D0E0F06E
:10191300A3D0E0F0A3E520F0A3E5F0F0A32285191E
:1019230083851882E0C0E0A3E0F9A3E0FAA3E0FB1B
:10193300A37808E0F608A3DFFAE0FCA3E0FDA3E048
:10194300FEA3E0FFA3E0C0E0A3E0C0E0A3E0F5D086
:10195300A3E0F520A3E0A3F5F010AF088583198574
:1019630082188008858319858218D2AFD082D083EC
:10197300D0E0F8D0E032740480067402800274016F
:10198300C0E0F404121743D0E01216192274048045
:101993000474028000CCC0E0EDC0E0E518C39CCC29
:1019A300AD1950011D10AF068C188D1980068C18C7
:1019B3008D19D2AF121626D0E0FDD0E0FC22D083E1
:1019C300D082E9C0E0E493A3C386F0C5F095F0F9B3
:1019D30008E493A386F0C5F095F0700BE493A3C3DA
:1019E300994005E9048002A3E475F002A42582F579
:1019F30082E5F03583F583D0E0F9E493A3C0E0E416
:101A030093C0E022D083D082ECC0E0EDC0E0E49349
:101A1300A3FCE493A3FDED4C600D121A53EC24FFD9
:101A2300FCED34FFFD80EFE493A3FCE493A3FDED11
:101A33004C600D121A92EC24FFFCED34FFFD80EF95
:101A4300D0E0FDD0E0FCE493A3C0E0E493C0E02247
:101A5300C0E0C3E49396087401939618400FE4938F
:101A630066700808740193661870007019A3A3C305
:101A7300E49396087401939618A3A3400DD0E0D085
:101A8300E0D0E0021A43A3A3A3A3A3A3D0E022C000
:101A9300E0C0F088F0E49366700808740193661858
:101AA3007000A8F0A3A3700BD0F0D0E0D0E0D0E09A
:0A1AB300021A43A3A3D0F0D0E022F2
:101AC00074F51217D6EAFEEBFFEE2434F8EF34007B
:101AD000F988088909EE2435121BECF8EE24371238
:101AE0001BECF50AEC850AF0A4FCAAF0850AF0EDDF
:101AF000A42AFDE82CF8E43DF97A257B001216882B
:101B0000EA850882850983F074075AF87401B800E1
:101B1000028004C333D8FCFBEA131313541FF8EEFE
:101B200028F8EF3400F9E8245DF582E9121BEF5B39
:101B30006003EA801CEE2436121BECF5F0EA84A860
:101B4000F0EE28F8EF3400F9E82438F582E9121BAA
:101B5000EFF97F0402188274F51217D6EAFEEBFF44
:101B6000EE2434121BECC0E0EE2435F582EF340095
:101B7000F583D0E0F08E828F83A3A3A3A3A3E0FA22
:101B8000A3E0FB8E828F83A3A3A3A3A3A3A3E0FC64
:101B9000A3E0FDECC39AF50AED9BF50BEE247FF56F
:101BA00008EF3400F509850882F583E06401702BA5
:101BB000EE2480F582EF3400F583121994121BF5A0
:101BC0007402121729E960137CBF7D07EEFAEFFB60
:101BD000120AA8850882850983E4F0AC0AAD0BEEF1
:101BE000FAEFFB121AC0122220021B52F582EF34C8
:101BF00000F583E022C082C083851882851983E0C6
:101C0000F8A3E0F9C3EA9CEB9D5010C3EC98ED9962
:101C1000401BC3EA98EB995014800EC3EA98EB99E5
:101C20004007C3EC98ED994004790180027900D017
:101C300083D0822274ED1217D6900479E064086094
:101C400005E06407702C9061C8E060269004A7E06E
:101C5000F874FF68601CE875F005A4C8AAF02AF9BA
:101C600074A928FE740439FF8E828F83A3A3A3E096
:101C700070057900021DD4EE2468F510EF3400F5EC
:101C800011906060E0851082851183F0750AFB7504
:101C90000B07750800750900E5D914F50EE5D95450
:101CA00003F50F601CEE2482F50CEF3400F50D7483
:101CB00003650F6058E50E6013EE2467121BEC708D
:101CC0000B793DEEFAEFFB120AD280A69007F6E000
:101CD00064016026850C82850D83E06004780480B1
:101CE000027800850E08E508C398FA95E0FB120912
:101CF0003A8A088B09EA45097006120D7E021C72A9
:101D0000850C82850D83E070048A0A8B0B78008035
:101D100016E5D9C0E08812E50A2512F582E50B34F4
:101D200000F583D0E0F008E8C3950E40E4850C820E
:101D3000850D83E0602874FC250EF50E780A1219D3
:101D40007DAC0EA90FEEFAEFFB120B8C740212178A
:101D500029E9700AAA08AB091212B2021CC1740365
:101D6000650F6058850E0C750D00780C12197DAC4E
:101D70000AAD0BAA08AB09120B5074021217298581
:101D80001082851183E0F87480687005750C7F807F
:101D900002880CE50CF50A780A121981E50FF50A9C
:101DA000780A121981A90EAC08AD099004A7E0FACF
:101DB0007B001207DE74021217298013900479E069
:101DC0006408700BAC0AAD0BEEFAEFFB120BBC1201
:101DD0000D8A79017F0C02188274F31217D674FCF5
:101DE000121713EAFEEBFF8908A2AFE433F509C22C
:101DF000AFEE2463F50AEF3400F50B8010AA0AABAE
:101E00000B120B081212B29007C6E004F0850A828A
:101E1000850B83E0F8A3E0F9E849602FE82402FA93
:101E2000E93400FBEA2402F50CEB3400F50D780CE4
:101E300012197D8A828B83E0FCA3E0F9EEFAEFFBB6
:101E4000120AFC7402121729E960B29007C6E0601A
:101E5000579007C7E0F89007C6E0C398500C74028B
:101E6000650870449007C8E0603E8E828F83A3A30C
:101E7000A3A3E0851882851983121EB87402121775
:101E80005EE8121EB89007C5E028F0740212175ED3
:101E9000AC82AD83851882851983AA82AB837901D0
:101EA0001207EA9007C6E4F0E509A2E092AF7404D5
:101EB0001217297F06021882F0A3E4F09007C6E00B
:101EC000F8220000851A87851BC622C0E074EF1235
:101ED00018C2A2AFE433FEC2AF759B00906182E0EE
:101EE000A2E05012E591A2E0500C7591FE740165DC
:101EF0001A7003121C34E0A2E55051E591A2E5509E
:101F00004B7591DF900479E064076005E064087028
:101F1000237401651A703579019004A7E0FA75F011
:101F200005A4CAA8F028FB74A92AFA74043BFB1282
:101F30001DD98018E0640D701390049BE004F064D8
:101F4000287002E4F07A00E0F9120D90906182E0CE
:101F5000A2E64003021FF2E591A2E64003021FF24F
:101F60007591BF900479E064057008120C8E120C14
:101F70009A8003120C94751A00120D00E990047AED
:101F8000F07900120CE2120A0C7A017B00900478BE
:101F9000E0F9120FE8907803E0644270559007FA78
:101FA000E014F0704DC2AF121FAA00781DD0E0F609
:101FB00018D0E0F6E59F540770057509FF8003759A
:101FC000097FC4C0E0781CE6F50808E65509F50964
:101FD000740B78081216F1D0E02508F8906270E0D2
:101FE000A2E740F8E8C333906272F0906270E0D2EA
:101FF000E0F0906181E0A2E35009E5E9A2E350033B
:1020000075E9F7A3E0A2E75009E591A2E75003754F
:10201000917FEEA2E092AF7F04021921C0E0C0D010
:10202000C082C083906183E0A2E05009E5BFA2E0D6
:10203000500375BFFEE0A2E15009E5BFA2E15003E5
:1020400075BFFDE0A2E25009E5BFA2E2500375BFF3
:10205000FBE0A2E35009E5BFA2E3500375BFF7E040
:10206000A2E45009E5BFA2E4500375BFEFE0A2E58A
:102070005009E5BFA2E5500375BFDFE0A2E65009B5
:10208000E5BFA2E6500375BFBFD083D082D0D0D0C9
:10209000E032C0E074F21218C2E5A7A2E4500FE5E6
:1020A000A1A2E4500953A7EF75A1EF1220E6E5A71E
:1020B000A2E5500CE5A1A2E5500653A7DF75A1DF0C
:1020C000E5A7A2E15009E5A1A2E1500375A1FDE554
:1020D000A7A2E2500CE5A1A2E2500653A7FB75A10E
:1020E000FB7F0102192174F81217D6751A019004AA
:1020F00079E0640670077A007B00120C76A2AFE4E8
:1021000033FED2AF90047FE0640170187A207B0028
:10211000900478E0F91210667A207B00900478E051
:10212000F9120FEE906182E0D2E6F09007F7E060DE
:102130002185C61B801690047EE064017008E5C608
:1021400054F84405F5C653BEFC121EC47401651A4A
:1021500060E4EEA2E092AF7F0102188274F11217E0
:10216000D68A088B098C0A8D0B90918878081215F5
:10217000AA740F12175E780C1215E3909188780CF0
:102180001215AA7808790C1213CF90918450107808
:1021900008790C12156F78081213EF4014800E782E
:1021A0000C790812156F780C1213EF500479018026
:1021B0000279007F0802188274ED1217D68A088B04
:1021C000098C0A8D0B90918878081215AA74131245
:1021D000175E780C1215E3909188780C1215AA7886
:1021E0000C79081213CF40117808790C12156FAAD8
:1021F00008AB09AC0AAD0B80227510007511007593
:1022000012007513017810790C12156F7810790887
:10221000121536AA10AB11AC12AD137F0C02188246
:10222000C082C083E9906000F0D083D08222C2AF28
:1022300002000022C0E074F21218C2A2AFE433FE22
:10224000D2AFC2C0E5D1A2E4500653D1EF12128E34
:10225000EEA2E092AF7F01021921C0E074F21218E1
:10226000C2A2AFE433FED2AFE589A2E04006E58921
:10227000A2E150031211F8758900758900C2C5EEFC
:10228000A2E092AF7F01021921C0E0C0D0E8C0E017
:10229000E9C0E0E5A8D2AFC2C7A2E7A2E792AFD0FB
:1022A000E0F9D0E0F8D0D0D0E032C0E0C0D0E8C053
:1022B000E0E9C0E0C008C009C082C083A2AFE43337
:1022C000F9D2AF901052E0F8A3E0687008539AFB7F
:1022D000A374018026C2E9901052E0F5087401252C
:1022E00008F074D22508F582740F3400F583E0F508
:1022F000C1901052E0C394804002E4F0E9A2E09261
:10230000AFD083D082D009D008D0E0F9D0E0F8D0A7
:10231000D0D0E032C0E074EF1218C275C0001223B2
:102320009994D1E99407402E9010DEE06403702662
:10233000790A9011CB78081215E3AC08AD097A162A
:102340007B901212A69011C7E4F0A3F09011CBF08D
:10235000A3F0A3F0A3F01223999459E9941B4034FD
:102360009011C7E4F0A3F09011C9E064017002A3DA
:10237000E070219010DDE0701B9010DEE0C394034C
:10238000501290109BE4F09010DD04F07B00FA797D
:10239000031210BA7F040219219011C7E0F8A3E0DC
:1023A000F9E82401FAE93400FB9011C7EAF0A3EB45
:1023B000F0C3E822FFFFFFFFFFFFFFFFC082C083E3
:1023C000E9901264F0D083D08202012274F61217D1
:1023D0006AE9900365F07CA57D037AFF7BFF120715
:1023E000367A008A0875090074027808121700749A
:1023F000662508F87403350912241BA3F00AEAC302
:10240000940340DF79051206C4900365E0F91205D4
:10241000E67A4E7B071208EC023A17F98882898324
:1024200074FF122428E4F022F0A31238C2A322740D
:10243000F412176A8A088B09EB54806030900365A8
:10244000E0F9120FD08A0A8B0BAE0AAF0BEE4F6089
:10245000138E828F83E064B070031206D6EEFAEF1B
:10246000FB120FBEAA08E5096480FB80047A007B9A
:102470000002260074F212176A74FC121713EAFEA7
:10248000EBFFEE4F6038740212175EEEF0A3EF120E
:102490002885ECF0A3ED122885AA82AB831205E013
:1024A000E9F5087071741212175E123469E50A4575
:1024B0000B60638E828F83122520EE4F70057508A6
:1024C0000280537A067B001210248A0C8B0DA80C14
:1024D000A90DE8497005750813803B88828983E45B
:1024E000122428EEF0A3EF12390AE50AF0A3E50B57
:1024F000F09003731225F89003736017E0FCA3E0DB
:102500008003EAFCEBFD8C828D831225F870F38C3E
:10251000828D8312336CA9087404121729023AF5CC
:10252000A3A3A3A3E0FEA3E0FF2274F212176A891B
:102530000AE975F045A4FEAFF0900372E4F0900351
:10254000681225F8602812102A7900890875090098
:102550007402780812170074682508F58274033530
:1025600009F583E4F0A3F009E9C3940340DDEEFA32
:10257000EFFB1210248A088B09EA45096075EEFC0E
:10258000EFFD7900120FA67D008D0C750D00740211
:10259000780C1217007468250CF87403350DF9E5F2
:1025A0000AF5F0EDA475F017A4FAABF0E5082AFAE5
:1025B000E5093BFB88828983EAF0A3EBF07E00808B
:1025C0001BEE75F017A4FAABF088828983E02AFC31
:1025D000A3E03B8C82F583E4F0A3F00EEEC3950AF2
:1025E00040DF0DEDC3940340A0E50A900372F0793B
:1025F0000080027913023AF5E0FAA3E0FBEA4B22ED
:102600007F0402183C74F412176A7900EAA2E050C1
:102610001B75084D750991780812197D7C047D00A1
:102620007A667B121206BE740212172980D2C0820B
:10263000C0839003731238FC49601C88828983A38D
:10264000A3E06A7003A3E06B8882898370E7A3A389
:10265000A3A312311080047A007B000223C574EE1C
:1026600012176A74FC121713EAFEEBFF85188285B5
:102670001983E4F0A3F0EE2402123357EE2405127E
:102680002873EE2404F50EEF122C4FE024FE60397F
:1026900024FC604624FE605224FE605E24FE70032B
:1026A00002277824FE70030227F024FE700302271D
:1026B000FF24FE700302280E24FC700302281D2450
:1026C000FE700302282C02286990038C7417F0A373
:1026D000E412288D12025C0228698518828519830C
:1026E000AC82AD831206DC022839851882851983F5
:1026F000AC82AD831206E2022839850C08850D09EB
:10270000740212175EAC82AD83850882850983123C
:1027100031101206048A0C8B0DAC0CAD0DEC4D6023
:1027200042E4F50CF50D780C12197D750C8C750DC5
:1027300003780C12197D750C8D750D03780C121928
:102740007D740812175E121994791612310A120755
:102750001E7408121729E9F50C700B1231061202CB
:1027600074800F750C0185088285098312287B12FD
:10277000336C850C0802283C740212175EAC82ADE3
:1027800083850C82850D831231101206048A108B0A
:1027900011AC10AD11EC4D6043850C82850D83A307
:1027A000A312199475108C751103781012197D7588
:1027B000108D751103781012197D740812175E12AE
:1027C0001994791612310A12071E7408121729E992
:1027D000F509700B12310612027A800F7509018516
:1027E0000C82850D8312287B12336C850908804C7E
:1027F000851882851983AC82AD831206E8803A85FC
:102800001882851983AC82AD831206EE802B851861
:1028100082851983AC82AD831206F4801C851882F0
:10282000851983AC82AD831206FA800D85188285E6
:102830001983AC82AD83120700E9F508E508602929
:102840008E828F83A3E06414601F850E82850F83C0
:10285000E090038C122885123BC490038D12336CD8
:10286000E508A312288D120256EEFAEFFB1206823B
:1028700002325EF50CEF3400F50D22123BC88518CC
:102880008285198322F085188285198322F07C8C39
:102890007D03850A82850B83E0FAA3E0FB2274EEB8
:1028A00012176A74FC1217138A0A8B0B8C0E8D0F89
:1028B000EA2405F508EB3400F5097C157D00790064
:1028C0007A8C7B03120FA6E5082402F50CE50912A9
:1028D0002876851882851983858210858311781062
:1028E00012197D850882850983A3A3A3A3122D98BD
:1028F00012197DE5082405F510E5093400F5117875
:102900001012197D850C82850D831230FA12311058
:102910001205FE74061217298A108B11AE10AF1122
:10292000E50A2402F50AE50B12335AEE4F70030252
:102930002A678017740212175E1231108882898309
:10294000EAF0A3EBF090038CE004F090038CE0C37A
:1029500094054003022A67E4F510F5117810121966
:102960007D751075751103781012197D75107675C7
:102970001103781012197D740612175E12199479DA
:1029800010EEFCEFFD12310A12071E74081217290F
:10299000E9705E850882850983A3A3A3A3A3A3A3EB
:1029A000E0F8900375E0687048122D9812197D7C4C
:1029B000767D03E5082408FAE5093400FB120FA030
:1029C0007402121729E960298E828F83A3A3A3A31F
:1029D00012311090038CE0F5107402781012170079
:1029E000748D2510F58274033511F583EAF0A3EB9D
:1029F000F0740212175E8582108583117810121907
:102A00007D740212175E121994850C82850D831253
:102A10003BD912060A74041217298A108B11AE10C2
:102A2000AF1190038CE0F51075110074027810124C
:102A30001700748C2510F874033511F98882898386
:102A4000A31225F8700302292BE82403F8E93400C7
:102A5000F9EE4F60030229348882898374FFF0A362
:102A6000F090038CE004F090038CE0600A123106D1
:102A70001202687900800B8508828509831233630E
:102A8000790A02325E74EA12176A74FE1217138C06
:102A9000128D13EA2405F50CEB123BE31225247585
:102AA0000800750900EA2402F510EB3400F51185E1
:102AB000188285198385820A85830B780A12197D0D
:102AC000850C82850D83A3A3A3A3122C5912197D13
:102AD000E50C2405F50AE50D12335A780A12197D22
:102AE000850C82850D83123BD71205FE74061217E2
:102AF000298A0A8B0BEA450B7003022C1AEA24047C
:102B0000F50EEB122C4F1225248A828B83A3A3A3EC
:102B1000E0F98510828511831231101205ECE9F578
:102B2000096003022C1AE4F514F515781412197DC6
:102B3000751475751503781412197D75147675154D
:102B400003781412197D740612175E121994791302
:102B5000AC0AAD0B85108285118312311012071E4D
:102B60007408121729E9F5096003022C1A900375FD
:102B7000E0F8E5087009E0240290038DF0801790DA
:102B8000038DE0FCE82402FAE43400FBEA6C7001F7
:102B9000EB6003022C1E850882AA82122D8F9414EA
:102BA000122D875075850E82850F83E0C0E0122FAD
:102BB000C6D0E0F00508850E82850F83A3E0C0E053
:102BC00085080A748E250AF58274033400F583D0D3
:102BD000E0F00508900375122C5912197D7C767D62
:102BE0000385080A748E250AFA74033400FB120F59
:102BF0008E7402121729900375E02508F50874FFFA
:102C00006E700374FF6F6012EE24010EEF3400FF4C
:102C1000E508C394145003022AAFE5086013122F8D
:102C2000EC85108285118312311012026E790080BA
:102C300014E509700375090A851282851383EEF085
:102C4000A3EFF0A90974021217297F0E02183C3471
:102C500000F50F850E82F583221239192274EE12C7
:102C6000176A74FE1217138C0E8D0FEA2405F50CEB
:102C7000EB122876750B0090038CE4F0F50AEA2439
:102C800002F508EB3400F509804990038CE0FA90D6
:102C90000375E0F8122D8F9417122D87400D9003C5
:102CA0008CE0F87416C398900375F0122D981219E1
:102CB0007D7C767D03748D2AFA74033400FB120F39
:102CC0008E7402121729900375E0F890038CE028A7
:102CD000F0050AE50C2416F582E50D3400F583E0D5
:102CE000F8E50AC3984003022D7090038CE0C3946A
:102CF00016507DE50AC333F8E433F9E50C28FEE508
:102D00000D39FF851882851983AC82AD838E828F41
:102D1000831231101206048A108B11AC10AD11EC25
:102D20004D7005750B018043E4F510F51178101214
:102D3000197D751075751103781012197D7510764F
:102D4000751103781012197D740612175E1219940A
:102D5000791685088285098312311012071E7408BE
:102D6000121729E9F50B7003022C8A12335F8010C9
:102D70007C8C7D03850882850983123110120280C4
:102D8000A90B7402023260E99400C365D03322EAD1
:102D900028F8E43400F9E822E0F510751100781005
:102DA0002274EA12176A74FC1217138A0C8B0D8CAA
:102DB000128D13EA2405F50AEB12335A75080075D3
:102DC0000900E50A2402F510E50B3400F511740240
:102DD00012175E85820E85830F780E12197D850A83
:102DE00082850B83A3A3A3A31238C912197DE50A18
:102DF0002405F50EE50B3400F50F780E12197D85CC
:102E0000108285118312325812310A1205FE74069F
:102E10001217298A0E8B0FAE0EAF0FE50C2402F5A8
:102E20000EE50D3400F50F80408882898374FFF031
:102E30000508122FD274FFF00508900375E0F50C19
:102E4000750D00780C12197D7C767D0385080C7455
:102E50008E250CFA74033400FB120F8E74021217C5
:102E600029900375E02508F508EE4F60718E828F7A
:102E700083A3A3A3E0F9850E82850F83123110127C
:102E800005ECE9F509EE2404122873E97044E4F531
:102E900014F515781412197D7514757515037814C9
:102EA00012197D751476751503781412197D74083E
:102EB00012175E1219947911EEFCEFFD850E8285D2
:102EC0000F8312311012071E7408121729E9F50931
:102ED0006027850C82850D83122FE212336CE50882
:102EE0007003022FAC122FEC850E82850F831231F6
:102EF000101202867900022FC1850882AA82EA9008
:102F000003757009E0240490038DF08022E0F890AE
:102F1000038DE0F514E82404FCE43400FDEC6514B2
:102F20007001ED70C0122D8F9412122D8750B6854E
:102F30000C82850D83E0C0E0122FC6D0E0F00508BA
:102F4000850C82850D83A3E0C0E0122FD2D0E01261
:102F50002FFE85820C85830D780C12197D74041266
:102F6000175E121994851082851183123BD91206BF
:102F70000A74041217298A0C8B0DAE0CAF0D85084C
:102F80000C748E250CF874033400F9EE4F700302B4
:102F90002E29851882851983E088828983122FFE65
:102FA000A3E0C0E0122FD2D0E0022E37E509700373
:102FB00075090A850A82850B83122FE212336CA9E8
:102FC000097404022C47748E2AF58274033400F5C8
:102FD000832285080C748E250CF58274033400F569
:102FE0008322123BC88512828513832290038DE0D1
:102FF000F5F0E5088490038CF07C8C7D0322F005CD
:10300000088518828519832274EC12176A74FE12DF
:1030100017138A088B098C0E8D0FEA2405FEEB34FA
:1030200000FF851882851983AC82AD838E828F83E1
:103030001231101206048A0A8B0BEE241812287320
:10304000EA450B70030230D51232405032851882A7
:103050008519831231101207128A108B11EA45115B
:10306000606E7912AC0AAD0B850882850983123136
:1030700010851082851183121768E9F50A705BE4E8
:10308000F50AF50B780A12197D8E828F83A3A3E0CF
:10309000F50A780A12197DEE2403123357780A12C2
:1030A000197D8E828F831230FA1231101207247428
:1030B00006121729E9F50A7021850C82850D83E037
:1030C000701F85088285098312311012028C8011CD
:1030D000750A0E8009750A018004E50A600312333F
:1030E0005F850C82850D83E0600479008002A90A67
:1030F00074021217297F0C02183CE0FCA3E0FD8546
:103100000882850983227C8C7D03850A82850B8356
:10311000E0FAA3E0FB2274EE12176A74FE12171392
:103120008A088B098C0C8D0DEA2405FEEB3400FF18
:10313000750E00851882851983AC82AD838E828FCF
:10314000831231101206048A0A8B0BEA450B7003B6
:1031500002322C1232405035851882851983123183
:10316000101207128A0E8B0FEA450F605E7912ACBF
:103170000AAD0B850882850983123110850E828580
:103180000F83121768E9F50E600302322F8508825B
:10319000850983123469AA0AFB1207068A108B116B
:1031A000A810A911E849701E7AFF7BFF1207068A52
:1031B000108B11A810A911E849606C88828983E5F9
:1031C0000AF0A3E50BF0750A008007750E0E805F0C
:1031D000050A900372E0FAE50AC39A504AE50A75B7
:1031E000F017A4FAABF088828983A3A3E02AFAA39C
:1031F000E03BFB8A828B83123258EC4D70D2750A09
:1032000017750B00780A12197DEEFCEFFD120F8E78
:103210007402121729EEFCEFFD85088285098312DE
:1032200031101202928014750E098003750E01127E
:103230003BC0850C82850D8312336CA90E022D8252
:10324000E5082402F508E5093400F5098A828B8334
:10325000A3A3A3E0A2E522A3E0FCA3E0FD22740463
:103260001217297F0A02183C74EC12176A8C108D11
:1032700011EA2405F50CEB122876750F00EA2402FA
:10328000F50AEB12335A850A82F5831231101207C0
:10329000068A088B09EA4509700302334C750E0053
:1032A0008071850C82850D83E06401704F8E828F62
:1032B00083A3A31219948E828F83A3A3A3A3E0F503
:1032C00012751300781212197DEE2405F512EF34F1
:1032D00000F513781212197D12310A1207247406B0
:1032E000121729E9F50F6014850C82850D83E4F02F
:1032F000123BC085108285118312336C7C177D00D0
:103300007900EEFAEFFB120FA68E828F83E4F0A312
:10331000F0050E900372E0F8E50EC398501FE50E1D
:1033200075F017A4F8A9F0850882850983A3A31274
:103330003BEDFCA3E0FDEC4D60030232A285088268
:1033400085098374FFF0A3F0E50F700612310A12AD
:103350000298A90F0230F5F50AEF3400F50B228E22
:10336000828F83123BC8850E82850F83E8F0A3E924
:10337000F02274F612176A7C008C0875090074023A
:1033800078081217001233A46A7003A3E06B70066A
:10339000E8FAE9FB800B0CECC3940340DC7A007B79
:1033A00000023A1774662508F874033509F9888213
:1033B0008983E02274F712176A7F00EF75F003A487
:1033C000F8A9F0EC28F8ED39F988828983E06A7071
:1033D00003A3E06B7006E8FAE9FB800B0FEFC394E0
:1033E0000440D87A007B007F0102183C74F6121763
:1033F0006A1206D08A828B83E582458370067A0042
:103400007B008007A3A3A3A3123110023A1774F222
:1034100012176AE9FE740E12175E123469741012E4
:10342000175E1238E48C828D83E064027036A3123A
:103430003BCEF50CA3E0F9A80C7402687003742964
:10344000697021750C02750D00780C12197D7808D1
:1034500012197D780A12197DEEF9120748740612C6
:10346000172980027901023AF5E0F50AA3E0F50B8D
:103470002274E812176A74FB121713E98518828503
:103480001983F08A168B17ECFEEDFF751000741D82
:1034900012175E123BC4741D12175E12336C8E82BB
:1034A0008F83A3A3A3E0A2E4502D741D12175E1214
:1034B00031101207128A828B83E5824583700302E2
:1034C00038B3790AEEFCEFFDAA16AB17121768E9BC
:1034D000F51060030238B6741F12175E1238E474D8
:1034E0002112175E123469742312175EE0F50EA3E1
:1034F000E0F50F8E828F83E064026003023861A3DF
:10350000123BC4850882850983A3858212858313B3
:10351000EE240612287388828983E0FAA3E0F9EA90
:103520002400F514E439F5157814121A0701000087
:103530002801285535070002281A36032887350048
:1035400029513701297C3702291D370329513704B6
:1035500029FB376138E50E450F600302385C850CA6
:1035600082850D831238FCFAE9FB8A828B83E08521
:103570000A82850B8312391012197D8A828B83A3EC
:10358000E0FCA3E00237E5E50E450F600302385C7E
:10359000850A82850B837401F01238EC85088285D8
:1035A0000983F07C007D008E828F83A3A3A3A3E018
:1035B0002401FAA3E03400FB120604EA4B60418ABE
:1035C000828B83E02402F8850A82850B83E028F051
:1035D000EA2404F8EB3400F988828983E0851282BA
:1035E00085138312392212391012197D8A828B8336
:1035F000123257E5082403FAE5093400FB0237EAE2
:10360000850A82850B83E02404F07C047D00790028
:10361000AA12AB13120FA60238B6E50E450F6003CF
:1036200002385C1238ECFEA3E0FF850A82850B832A
:103630007404F0EE850882850983F0EF8512828597
:103640001383F0740312175EAC82AD83EEFAEFFBC6
:103650001206048A0C8B0DEA450D70030236FE8AB1
:10366000828B83A3A3122520740112175E85820E1C
:1036700085830F780E12197D740512175E12199446
:103680007CFF7DFF12060A74041217298B0FEA458E
:103690000F7033850C82850D831238C912197D8510
:1036A0000C82850D83A31219947C027D007AF27B33
:1036B000911203887404121729E9700A7401121711
:1036C0005E74FFF0A3F08E828F83E0640270397520
:1036D0000C02750D00780C12197D8E828F831232C8
:1036E00057E5082404FAE5093400FB120F8E740232
:1036F000121729850A82850B83E024028009740150
:1037000012175EEEF0A3EFF0740112175E1238DAB2
:10371000F0740112175EA31238D2023856E50E4536
:103720000F600302385C850C82850D83123258AA23
:1037300016AB1712073C850A82850B837402F0EAE8
:10374000850882850983F0851282851383EB023810
:1037500059E50E450F600302385C1238ECF8A3E01F
:10376000F9850A82850B837402F0E8850882850951
:1037700083F0E9851282851383023859850C82858E
:103780000D83123110120F88EAFC8C82A882C39537
:103790000EE4950F405FE8650E7002E50F70047C43
:1037A000008022851882851983E0FAE50E2AFAE561
:1037B0000F3400FBC3EA98EB94005003E08005E56A
:1037C0000ECCC39CFCEC850A82850B83F08C0A75B9
:1037D0000B00780A12197D850C82850D83E0250E79
:1037E000FCA3E0350FFDAA08AB09120F8E7402127C
:1037F00017290238B67510070238B6E50E450F7066
:103800005B850C82850D83123BC4850A82850B8300
:103810007407F0888289831238D21238C2E0851288
:1038200082851383F0E82402FAE93400FB8A828B54
:10383000831238D21239011238DAA312390A123837
:10384000DEF0E82405F8E93400F98882898312382B
:10385000DEA3123922A3A3A3A3F0805A75100B8014
:1038600055741D12175E1231101206D08A828B8396
:10387000E5824583603D123BC4880C890DE8450D07
:103880006031780E12197D780A12197D78081219A4
:103890007D740612175EE0F9EEFCEFFDAA16AB1779
:1038A000850C82850D831217687406121729E9F5B5
:1038B00010800375100EA91074051217297F1002CD
:1038C000183CF088828983A322E0F50E750F0078FA
:1038D0000E22E085088285098322123929221239B5
:1038E00029A3A322E0F508A3E0F50922850C82852F
:1038F0000D83E0F8A3E0F5838882E022123BC8E85C
:1039000022A3A3F08A828B83A32212242AA3A322B8
:10391000F08A828B8312391922E0F50A750B007840
:103920000A221238C212392922E0850882850983C9
:10393000A3A32274EE12176A74FE1217138A0A8B5D
:103940000BECFAEDFB741412175EE0F510A3E0F532
:1039500011741612175EE0FE741812175EE0F50E71
:10396000A3E0F50F851882851983AC82AD8312061A
:10397000048A0C8B0DEA450D6049851882851983F0
:103980001231101206D08A828B83E5824583602F24
:10399000A3A31238E4E50845096024780E12197DC6
:1039A000781012197DEEF9AC0CAD0DAA0AAB0B859F
:1039B0000882850983121768740412172980067912
:1039C0000E80027901022D8274F612176A74FE12BB
:1039D0001713740C12175E1238FC85188285198330
:1039E000F0740112175EE9F0E4F508F509780812A1
:1039F000197D750802780812197D740412175E8506
:103A00008208858309780812197D1207247406122A
:103A1000172974021217297F0202183C74F7121733
:103A20006AEAFEEBFF89087CA57D0312073CEA5495
:103A300002600BA908EEFAEFFB1205F8800279018B
:103A40000233E774F612176A74FF6A700374FF6B2F
:103A5000701B7B00EB75F003A4F8A9F0EC28F8EDDF
:103A60003912241B0BEBC39404501480E712070C8B
:103A70008A088B09A808A909E849600312241C8058
:103A80009674F612176A12070C8A828B83E58245B8
:103A9000836006A3A3E0FA80027A007B00023A1753
:103AA00074F212176A8A088B09ECFEEDFF740E128D
:103AB000175EE0F50A12070C8A0C8B0DA80CA90DF5
:103AC000E8497026EEFCEFFD7AFF7BFF12070C8AB7
:103AD0000C8B0DA80CA90DE849700479118016888B
:103AE000828983E508F0A3E509F088828983A3A38E
:103AF000E50AF079007F0602183C74EE12176AEAB4
:103B0000FEEBFF8C088D09890C741412175E123BB2
:103B1000C4741612175E123110750D00E849600367
:103B2000023BB87402650C6003023BB374121217B7
:103B30005E123BCEFCA3E0F9EC2400F50EE439F56F
:103B40000FEAF4F8EBF4F9EC58F8E50F59F9E84905
:103B5000705CE5082406F8ED3400F9880A890B88C2
:103B600082F583123BD912073C8A108B11E50E6552
:103B7000107004E50F65116042780E12197D850AF8
:103B800082850B83123BD91207427402121729E96E
:103B9000F50D7027780E12197D850882850983A39B
:103BA000A3123BD71207547402121729800D750D0A
:103BB000808008750D0D8003750D0BA90D02326311
:103BC0008E828F83123BC822E0F8A3E0F922123BD9
:103BD000C888828983E022A3A3E0FCA3E0FDEEFA7B
:103BE000EFFB223400F50D850C82F58322E028FEE0
:103BF000A3E039FF8E828F83E02274F212176AEA03
:103C0000FEEBFF890B7401650B600E7402650B708F
:103C10006B790112090AE97063EEFAEFFB120706ED
:103C20008A088B09EA45096048750A00800B7C17F1
:103C30007D007900120FA6050A900372E0F8E50AEC
:103C4000C3985022E50A75F017A4F8A9F0850882F8
:103C5000850983A3A3E028FAA3E039FB8A828B833A
:103C60001238FC4970C885088285098374FFF0A367
:103C7000F07CA57D03EEFAEFFB120736023AF574ED
:103C8000F212176A8A088B09ECFEEDFF740E121708
:103C90005E123469901264E0F4603D7A097B001290
:103CA0000FB8EA4B60328A828B8374B1F0A3E412BE
:103CB0003903A3123901A3E508F0A3E509123CDB9F
:103CC000EEF0A3EF123CDBA3A3E50AF0A3E50BF0B3
:103CD000901264E0F9120FC4023AF5F08A828B83E5
:103CE000A3A3A3A3A322C082C0839061907404F015
:103CF000A37448F0A3E4F09061807440F09061BC3C
:103D00007407F09061877469F09061B67416F07969
:103D100000120A127902120A189023B4E493F46094
:103D200006E493F91209EE7905120D72024107C0FB
:103D300082C083E9540FF9906185E0696012E5C69D
:103D400054804449F5C6E59E547F644970F8E9F013
:103D500053C680E59E547F70FA02410774F712172C
:103D60006AE5A8FE53A87E1209FAC2BA539AFEC2A7
:103D700089759B00C2C2120A0075A91175B9051296
:103D80000A06D2BA439A0174805E42A802502BC040
:103D900082C083906181E4F0A3F0A3F00241077533
:103DA000E90075910075BF00020122C082C08390B6
:103DB0006181E4F0A374C0F0A3E480DFC082C0831B
:103DC00074F812171390047B12547A7003023E9B0E
:103DD00090047BE05440602379088518828519831C
:103DE000AA82AB83120B26851882851983AA82AB1F
:103DF000831207C690047BE054BFF0E0548060104B
:103E0000790C7A1B7B08120B2690047BE0547FF020
:103E1000E0A2E0500F7900120A121207CC90047B46
:103E2000E054FEF0E05402600F7901120A1212070A
:103E3000CC90047BE054FDF0E05404600F79001254
:103E40000A181207D290047BE054FBF0E05408609B
:103E50000F7901120A181207D290047BE054F7F090
:103E6000E05410600F7902120A181207D290047BF6
:103E7000E054EFF0E05420600F7903120A181207A3
:103E8000D290047BE054DFF0A3E05401600D120AED
:103E9000241207D890047CE054FEF074081217290D
:103EA000024107C082C083E9600514602A804F90F8
:103EB000619A7433F0A37455F09061A0743AF09055
:103EC00007F5E064017009C29190047D7467802D4C
:103ED00090047D7461802690619A743FF0A3745AB7
:103EE000F09061A0747FF09007F5E064017009D252
:103EF0009190047D7471800590047D746AF0024194
:103F000007C082C083E9600B14600D146017146051
:103F10000C80209023B880159023B980109007F56D
:103F2000E0640170059023BA80039023BBE4939072
:103F30006186F002410774EE12176A74F4121713C7
:103F4000851882851983AC82AD83758391758278DB
:103F500074041216269023B893F460030240609014
:103F60007808E0C394025003024040740412175EC4
:103F7000AC82AD837583917582277408121626FC76
:103F80007EFF7FFF8E0C7D008C8285820E800F74F9
:103F9000086D606D74096D6068740A6D60638D08EA
:103FA0007509007402780812170012406A1215E3AE
:103FB000A909E50AC9F88810741878081214FEE5F2
:103FC000104508FAE9FBE50EC333F8E433F974044D
:103FD00012175EE58228F582E5833912475CC3E853
:103FE0009AE99B4008E8C39AF8E99B8006EAC398DF
:103FF000F8EB99F9C3E89EE99F5006E8FEE9FF8DCA
:104000000C0DEDC39413408774FF6E700374FF6F43
:104010006024850C087402780812170012406A1296
:1040200015E3851882851983E582250EF582E583DF
:10403000124B75E508F00CECC394045003023F806A
:10404000750801750900780812197D740212175E4F
:10405000AC82AD837AEE7B081211DA740212172952
:10406000740C1217297F0A02183C74482508F5823F
:1040700074783509F583780822C082C08390618600
:10408000E0F89023BBE4936870099023BAE493901E
:104090006186F09061AE7468F0A3746AF090624536
:1040A00074FBF0A304F053F4FD43FE029007F57493
:1040B00001F09061A0E0643A700479008002790117
:1040C000120A120241077F0402183CC082C083908A
:1040D00007D3E0640170139007D9E0F874016860B9
:1040E00019E87006A3E0640160109007EAE064013B
:1040F000700C9007F0E064017004790C8002790084
:104100008005E0F9122220D083D0820201221248D9
:1041100002940622E0C4333354C022C082C083908C
:1041200007DD7425F09007DB7401F0A3E4F07A0159
:10413000FB120CEE1241672416F582E8124B7574DF
:1041400048F0A3740AF09007DAE064017016900753
:10415000D9E070107901120D4E120D1E120D487922
:1041600000120D5A0241079007C91244EB2274F65F
:1041700012176A74FA1217139007D2E064017008DC
:10418000120A309007D2E4F075E1F112416724156C
:10419000F582E8124B757401F09007D4E064017069
:1041A0005390912FC082851882851983AC82AD838C
:1041B000758391D082740612162675D90D9007CB9F
:1041C0001241144403F5D97800880874CC125104C4
:1041D000740712410E40F27800880885188285190C
:1041E00083E582125104E58312410E40EC75E1959E
:1041F000790180027900120CF490128612426474E4
:10420000CEF0A3740BF0A31242641242641243B8BE
:1042100074D4F0A3740B1243CD9007CBE0F97ACCA1
:104220007B07120CD09007DDE0F9122220790112F1
:104230000CFA909174121601120D129091C8121678
:1042400001120CDC7900120D661241672414F5820C
:10425000E8124B757416F09004797405F004121787
:104260002902486C74C8F0A3740BF0A32274F412F2
:10427000176A8908A808124F709007E2E0F97AE3FC
:104280007B07120CD09007F0E0701A7900120D3005
:104290009007B8E070047900800279017AB97B0751
:1042A000120CD680057901120D3075E1F175D92314
:1042B0009007E21241144405F5D97800880A74E3A6
:1042C000250AF582740712410E40F175D90075D99F
:1042D0000075D90075D90075D90075D9007A00121A
:1042E00053C6242212471B40F67A001253C62426D6
:1042F000F582E91248740AEAC3940340EEEE242BD7
:104300001248717A001253C6242C12472140F67AC3
:10431000001253C6242E12472140F67A001253C6CB
:10432000243012472140F67A001253C62432124735
:104330002140F67A008A0AEE250AF8EF124C8D1217
:10434000472D940540EFEE2437F582EF124EC4540A
:104350001FF8EE242AF582EF124EC4C43354E0480D
:10436000F5D975E1959012867498F0A3740BF0A3BB
:10437000749EF0A3740B1243AF74A4F0A3740B12D9
:1043800043CD9007EFE0F9122220909174121601AC
:10439000120D129091C8121601120CDC90600DE4FF
:1043A000F07901120D669004797406F00240C6F0AF
:1043B000A31243B81243B8221243BC227492F0A352
:1043C000740BF0A37492F0A3740BF0A3221243D1E8
:1043D00022F09012941243DDA31243DD221243BC5B
:1043E0007492F0A3740BF02274EC12176A9007E039
:1043F000124F8778101215E39007F1E0FAF875F084
:1044000005A4C8ACF02CF974D728F582740439F5EA
:1044100083E0FEA3E0FFEEC333FEEF33FF8E0CF527
:104420000D750E00750F0085100885110985120A9B
:1044300085130B9091BC78081215497808121979E8
:1044400085100885110985120A85130B7808790CE7
:104450001215367810790C12148EE4F50EF50F78DB
:1044600008790C12156F8A0C750D007403780C1204
:1044700017007808790C1215369091887808121573
:10448000AAAA08AB09AC0AAD0B1221B87404121722
:10449000298A088B09A808A909C3EE98EF99500644
:1044A000E82EF8E93FF9E890600EF0E9A3F0EEA3FA
:1044B000F0EFA3F090600D74C1F07F0C02183CC0C7
:1044C00082C0839007C91244DF9007DD024102C019
:1044D00082C0839007E01244DF9007EF024102128E
:1044E00044EB2406F582E812490D22E0F8A3E0C867
:1044F0002202012274F212176A12465EF50AEF12C6
:1045000049EB6004780480027800E8240EF8EAC3DE
:104510009850030245BB75080C9007FBE4F0EE24AD
:1045200076F582EF124EC49007FCF07902EE247704
:10453000FCEF3400FD7AFD7B07120B147902EE24A8
:1045400079FCEF3400FD120B147902EE247BFCEFB2
:104550003400FD120B147902EE247DFCEF3400FDD3
:10456000120B14EE2474124674120B14850A828501
:104570000B83E0601E7508FB750907780812197D2A
:104580007C0C7903EEFAEFFB120B867402121729EA
:1045900075081074012508F5D975D90378008009CC
:1045A000880A74FB250A124653E8C3950840F17542
:1045B000E1957904120D187901800279007F0602D5
:1045C000183C74F212176A12465EF508EF3400F5D3
:1045D00009850882F583E06004780480027800E8A9
:1045E000240AF8EAC3984060750A089007FB740132
:1045F000F079057CBF7D077AFC7B07120B14EE2453
:1046000080124674120B14850882850983E0601EAF
:104610007508FB750907780812197D7C087903EE87
:10462000FAEFFB120B867402121729750A0C124856
:10463000EA800312464DE8C3950A40F775E1957983
:1046400004120D187901800279000245BD880874B2
:10465000FB2508F5827407124EC8F5D908221246C8
:104660006222EAFEEBFF9061D0E0F87480C398FA12
:10467000EE248222FCEF3400FD8E828F83A3A3A35D
:10468000A3A31254898C828D83E028F0A3E039F033
:1046900079022274F612176AEAFEEBFF9061D0E00D
:1046A000707475D91875D90375D9037A008A08EE24
:1046B00025081253CB249B12473440F17A008A0814
:1046C000EE25081253CB24A312472140F17A008A29
:1046D00008EE25081253CB249312473440F17A0098
:1046E0008A08EE25081253CB248712471B40F17528
:1046F000E1957908EE2493FAEF3400FB120B1A7956
:1047000004EE2487FAEF3400FB120B1A7904120D21
:104710001812473D8002790002486C124727940422
:1047200022124727940222F582E9125020E0F5D99F
:104730000AEAC32212472794082275E195EE246FF6
:10474000F582EF12501C125489EE2471F582EF129B
:10475000501CE8F0A3E9F07901223400F5831254EB
:10476000892274F612176AEAFEEBFF9007FB7406C3
:1047700012480C12197D7C017903120B8674021207
:10478000172975D90675D90378001247F240FB75D1
:10479000E195900479E064087017EE246FF582EFDC
:1047A00012475AEE2471F582EF124B75E8F0A3E937
:1047B000F0790102486C74F612176AEAFEEBFF907A
:1047C00061D0E070299007FB740A12480C12197D21
:1047D0007C017903120B86740212172975D90675AC
:1047E000D90378001247F240FB12473A8002790061
:1047F000807A880874FB2508F582740712480294B1
:104800000522125020E0F5D908E8C322F07508FB14
:1048100075090778082274F612176AEAFEEBFF9012
:1048200061D0E0704279019007FB740BF09004793D
:10483000E0640770197508FB750907780812197D7F
:104840007C010909120B867402121729790574017B
:1048500029F5D975D9037800800312464DE8C3992C
:1048600040F812473A800279008001F07F02021876
:104870003CF582EF124EC8F5D92274F512176A1270
:1048800049156004780480027800E8240BF8EAC334
:10489000984052750A099007FB7408F0F91248F61F
:1048A000120B14850882850983E0601E7508FB756C
:1048B0000907780812197D7C097903EEFAEFFB12DB
:1048C0000B867402121729750A0D1248EA8003122A
:1048D000464DE8C3950A40F775E1957904120D1825
:1048E00012473D80027900024B6B7401250AF5D90D
:1048F00075D903780022EE24E4FCEF3400FD7AFC45
:104900007B0722EE241DF582EF12490D2212502062
:10491000E4F0A3F022124662F8EF12491E2234009E
:10492000F9880889098882F583E02274F312176AEE
:104930008A088B09124A81FAE5082482F50AEB12EB
:1049400049EB6004780480027800E82408F8EAC3A0
:104950009850030249E4750C069007FB740CF09024
:104960000496E09007FCF07402C0E0F97C977D04A7
:104970007AFD7B07120B14D0E0F97C997D04120BB1
:1049800014850A82850B83E0601E750AFB750B0790
:10499000780A12197D7C067903AA08AB09120B86E6
:1049A0007402121729750C0A7401250CF5D975D9F2
:1049B0000378008009880A74FB250A124653E8C36D
:1049C000950C40F175E1957904120D18E508246FF6
:1049D000F582E50912475AE5082471F582E50912C6
:1049E000474F800279007F0502183C3400F50B85A3
:1049F0000A82F583E02274F612176AEAFEEBFF12D0
:104A00004A81FCEE2482F8EF124B0460047A0480A1
:104A1000027A00EA2404FAECC39A40607A02900712
:104A2000FBEAF0EE24F6F582EF124A8B601B750864
:104A3000FB750907780812197D7C027903EEFA12DA
:104A40000B8674021217297A0674012AF5D975D9D2
:104A5000037800800312464DE8C39A40F875E1954B
:104A6000EE2473125109EE247F1251091249037981
:104A700004120D18EE240D124740800279000248FE
:104A80006C9061D0E0F87480C39822124EC89007F1
:104A9000FCF088828983E02274F612176A124A8138
:104AA000FEEA2482F8EB124B0460047C0480027C52
:104AB00000EC2404FCEEC39C40457C029007FB7490
:104AC00007F0EA24F7F582EB124A8B60177508FBB2
:104AD000750907780812197D7903120B8674021282
:104AE00017297C0674012CF5D975D9037800800349
:104AF00012464DE8C39C40F875E195790180027932
:104B00000002486C3400F988828983E02274F5122F
:104B1000176AE9FEA2AFE433F50AC2AF7F00EA24C8
:104B20006EF8EB3400F980010F88828983E0F50884
:104B3000EFC3950850188F08EA2508FCEB3400FDF8
:104B4000EC246AF582ED124EC46E70DC8017EA2503
:104B500008FAEB3400FBEA246AF582EB124B75EE9F
:104B6000124A9104F0E50AA2E092AF7F0302183CDA
:104B7000246AF582E912501C2274F612176AA2AF59
:104B8000E433FFC2AFEA246EF8EB1251B8E014F040
:104B90007E0080198E08EA2508F8EB1253CD246BAD
:104BA000124EC1C0E0E8124B70D0E0F00E8C828D46
:104BB00083E0F8EEC39840DCEA246DF582EB124BFB
:104BC0007574FF124BEEEFA2E092AF02486CC08208
:104BD000C083E5A8F8C2AFEA246AF582EB124B75F0
:104BE000E9124BEEE8A2E7A2E792AF024107F0EA32
:104BF0002469124BF622F582EB125020E4F0227465
:104C0000F212176A8C828D83A3A3A3A3E0541FF032
:104C1000EA24361251AE8E828F83E4F0F50C850CB7
:104C20008285820AEC250AF8ED12491EC0E0EA25C9
:104C30000AF8EB124C8DD0E0F0750D0085088285E6
:104C40000983E0F50A750B00E50D780A1216E1E517
:104C50000AA2E05023E50C33333354F8250DC0E0AD
:104C60008E828F83E0F8124E612438124B72D0E0AE
:104C7000F08E828F83E004F0050DE50DC3940840AB
:104C8000BB050CE50CC3940540940245BD3400F906
:104C9000E8245DF582E912501C2274F412176A9020
:104CA00004A5E064037003024E477E00EEF875F041
:104CB00005A4C8AAF02AF974AB28F582740439F562
:104CC00083E06003024E3D74A928FA740439FB8A1C
:104CD000828B83A3A37401125420A3A3A3E4F0EA5C
:104CE0002404F8EB1253CDFCE9FDEE8C828D83F0A9
:104CF000EA2462124E4E2467F582EB124B75740162
:104D0000124E73E4F0A3124E73A3A3124E6E240F3F
:104D1000124E4E2435F582EB12510CF508F509F5CB
:104D20000AF50BEA2418124E561215F2EA241C1248
:104D30004E5C241D124E6A247F124E5C2473124E68
:104D40005C2468F582EB124B757480124BEEEA24FA
:104D50006E124E5C24EC124E5C24ED124E5C24EE7E
:104D6000124E5C24EF124E5C24F0124E6A24F212B2
:104D70004E6A24F5124E5C2482124E5C24D2124EEE
:104D80005C24D3124E5C24D4124E561215F2EA243F
:104D9000D8124E561215F2EA24DE124E5C24E012AE
:104DA0004E5C24DC124E5C24E1124E5C24E2124E76
:104DB0005C24F8124E6A24FA124E6A24FC124E6ADF
:104DC00024FEF582EB124909FE8E08EA2508F8EB6D
:104DD0001253CD124B7074FFF00EEEC3940440E9F1
:104DE0007E008E82A88274BF28F5827407124EC49A
:104DF000C0E0124E61245D124B72D0E0F00EEEC3A3
:104E0000940540DE7E008E82A882748D28F582741F
:104E100004124EC4C0E0124E6124E4124B72D0E082
:104E2000F00EEEC3940840DE9004A5E004F06401A7
:104E300070198C828D83E09004A7F0800E0EEEC373
:104E400094035003024CAC7A007B000240C612501F
:104E5000197401F0EA22125019780822124BF6EA6E
:104E600022EA28F8EB3400F9E822125019E4F0A302
:104E7000F0EA22F08A828B83A3A3A3A3A322C08299
:104E8000C083EA2403F582EB124EC46008E4F0907C
:104E900004A6E014F09004A5E014F070069004A7B6
:104EA00074FFF08A828B83A3A3E4F09007C4E070C0
:104EB0000D9004A6E0640170057900120CE2024135
:104EC00007F582E9124EC822125020E022C082C0AB
:104ED000837B00EBF875F005A4C8AAF02AF974A545
:104EE00028F874041250D8A3A3A3A3E4F0888289FD
:104EF00083A3A3A3A3A3A3F00BEBC3940340D49079
:104F000004A5E4F0A3F0A374FFF075E1F1024107FA
:104F100074F512176A750800750900750A00A80A69
:104F2000124F708E828F83A3A3A3E0602BE5084508
:104F300009601D850882850983124F871219901216
:104F40004F8312160112215C7404121729E97008AC
:104F5000EEF8EFF988088909050AE50AC3940340C9
:104F6000BD850882850983A3A3A3A3E0F9024B6B47
:104F7000E875F005A4C8AAF02AF974A928FE7404FB
:104F800039FF228E828F83E0F8A3E0F5838882A325
:104F9000A32274F712176A78FF79FF7F00EFFC7580
:104FA000F005A4CCAEF02EFD74A92CFC74043DFDDC
:104FB0008C828D83A3A3A3E0603EEC2473F582ED85
:104FC000124EC4FE74FF68700374FF6970077401A9
:104FD0006E701C800D74016E700DEC247912500CF3
:104FE0005016EC2479800BEC242E12500C5009EC56
:104FF000242EF582ED12475A0FEFC39403409EC34F
:10500000EA98EB994004E8FAE9FB801FF582ED127B
:10501000501CC3E098A3E09922F582EB12502022A5
:105020003400F58322A2E092AF79007F0102183CA0
:1050300074F612176AEAFEEBFFEE2463F508EF340C
:1050400000F5098016AA08AB09120B081212B290DB
:1050500007C5E004F09007C6E004F08508828509E2
:105060008312547A70DFEEFAEFFB120AB4EEFAEF15
:10507000FB120C1002486C74F712176AEAFEEBFF81
:105080008E828F83A3A3A3A3E0FA7B00120820EEF5
:10509000FAEFFB120ACC120BF28090C082C0837B25
:1050A00000EBF875F005A4C8AAF02AF974A928F84D
:1050B00074041250D8E06014E8246E124EC1600CE3
:1050C000E8246A124EC17004790180090BEBC39485
:1050D0000340CE790002410739F988828983A3A36E
:1050E000A32274F612176A78008808748D1251048E
:1050F000740412510C08E8C3940840ED90048D74B8
:105100000102486B2508F58222F582EF124BF92245
:1051100074F712176A74FC121713851882851983A5
:10512000E4F0A3F0A3F0A3F0120B20E98518828528
:105130001983F0120B20740112175EE9F0120B2094
:10514000740212175EE9F085188285198312160120
:10515000740412172902502B74F612176AEA240DF0
:105160001251AEEC2403F8ED3400F988088909ECFB
:105170002407F8ED1251B812475E8508828509832D
:10518000E0FAA3E0FB1216888E828F83E8F0A3E991
:10519000125480850882850983E0FAA3E0FB121689
:1051A000888B09EA450960031251C402486CF8EB88
:1051B0003400F9E8FEE9FF223400F9E8FCE9FD8C4F
:1051C000828D83228E828F83E02401F0A3E034005D
:1051D000F02274F612176AEA242EF582EB124EC4FE
:1051E000FCA3E0FDEA246F1251AE780079FAECFAE4
:1051F000EDFB1216888E828F83E8F0A3E9F0780029
:1052000079FAECFAEDFB1216888B09EA450960037E
:105210001251C402486C74F012176AEAFEEBFF7474
:105220001012175E78081215E3120CA68A0C8B0D6B
:105230008C0E8D0F9091CC780C1215499091887836
:105240000C1215AA780C121979124F83121601123A
:10525000215C7404121729E960030252FE8E828FCA
:1052600083E02402F8A3E01253CDFAE9FB8A828B93
:1052700083780812155C90918878081215E38A8269
:105280008B8378081215BDEE240BF582EF124B7557
:10529000C082C0838E828F83A3A3A3A3A3E0240133
:1052A000F8A3E03400F9D083D082E0687003A3E073
:1052B00069700479018049EE2407F8EF3400F98819
:1052C0008289831251C8EE24731253057014EE24A0
:1052D0007412530E7003A3E06D70078A828B8312E1
:1052E00051C8EE247F1253057014EE248012530E21
:1052F0007003A3E06D70078A828B831251C8790016
:105300007F0802183CF582EF124EC8640122FAEFC2
:105310003400FB8A828B83E0FCA3E0FD88828983D2
:10532000E06C2274F312176AE9FEECFFEA2462F5DE
:1053300082EB12530860030253C19061D0E0F5087C
:10534000EA2482F582EB124EC4F50C6004780480E6
:105350000278007480C39508FC95E0FDEF28F8E41E
:105360001253CD2402F8E93400F9EC98ED99A2D259
:1053700065D0334048740D12175EE0F50AA3E0F5DE
:105380000BE50C6015780A12197DEFFCEEF9120B93
:1053900086740212172974042FFF74012FF5D98E19
:1053A000D97800800C8808E50A125104E50B1246F2
:1053B00057E8C39F40EF75E1957900800679078033
:1053C0000279FF0249E68A0AEE250AF8EF3400F96D
:1053D000E82274F712176AA2AFE433F508C2AFEA05
:1053E0002402F8EB3400F98A828B83E0FEA3E0FF0D
:1053F000EE4F600E88828983E0FAA3E0F5838A820B
:1054000080048A828B83ECF0A3EDF088828983127A
:105410005426F0E5080250258C828D83E8F0A3E93C
:10542000F08A828B8322ECF0A3EDF08C828D83E4F2
:10543000F0A32274F712176AEAFCEBFD7A007B00F6
:10544000A2AFE433FEC2AF8C828D8312547A602205
:10545000E8FAE9FB8A828B8312475E125418E4F063
:10546000A3125480E849700A8C828D83A3A3E4F0D0
:10547000A3F0EEA2E092AF02502B125489E8492229
:10548000F08C828D8312548922E0F8A3E0F922C0C7
:1054900082C08380031254BDE9F874FF2819047098
:1054A000F4ECFAEDFB024107C082C0838003125482
:1054B000BDE9F874FF28190470F40241078C828D4D
:1054C00083E08A828B83F08C828D83A3AC82AD8350
:1054D0008A828B83A3AA82AB832274F012176A7428
:1054E000FA121713890BECFEEDFF750A008A088B80
:1054F0000978081219C100041024571D553B555551
:10550000556D558B55A355C655DE55F2551C56A401
:1055100056B556CC56E65624570757325674016591
:105520000B600302571F8E828F83E0F8C394034001
:105530000302571FE89012A802571C7402650B6003
:105540000302571F8E828F83125EDC9012A9E8F04F
:10555000A3E902571C7401650B600302571F125721
:1055600051400302571FE8900DBF02571C7401659C
:105570000B600302571F8E828F83E0F8C3940540AF
:105580000302571FE8900DC002571C7401650B60A1
:105590000302571F125751400302571FE8900DC1D5
:1055A00002571C7410650B600302571F75081075B5
:1055B0000900780812197D7AC27B0D120F8E7402D1
:1055C0001217290257457401650B600302571F1219
:1055D0005751400302571FE8900DD202571C740127
:1055E000650B600302571F8E828F83E09012AC021E
:1055F000571C7404650B600302571F8E828F8378DB
:105600000C1215E3909180780C1213EF500302579F
:105610001F900DD4780C1215F2025745E960030271
:10562000571F12051AE970051211628060900E670B
:10563000806E7407650B600302571F7508067509B5
:1056400000780812197D8E828F83A3AC82AD83749B
:105650000212175EAA82AB83120F947402121729EA
:105660007C007D00851882851983AA82AB838E8297
:105670008F83E0F91210FCE9F508C3940A40030295
:10568000574212051AE9700CA908121168795012D4
:105690001336806E74682508F582740E3400F58325
:1056A000740180787401650B70751257515070E861
:1056B000900DD380677401650B70648E828F83E0D8
:1056C000F8C3940A5059E89012AB80507401650BEE
:1056D000704D8E828F83E0F874F928C3940A503F8E
:1056E000E89012AD80367401650B7033900E66E061
:1056F000F88E828F83E0900E66F0E87048E06401D7
:105700007043121156803E7401650B70128E828FA9
:1057100083E0F8C394045007E89012AEF080267539
:105720000A188021C3EA9427EB940050157402658F
:105730000B700F8E828F831262CC120400E9F50A7F
:105740008003750A02A90A74061217297F08021835
:105750003C8E828F83E0F8C394022274F212176A9F
:1057600074DA121713890AECFEEDFF742012175E2B
:10577000AC82AD83758391758247740612162674C8
:105780002012175EAC82AD831210FCE9F508743468
:1057900012175EE0F50BE9C3940A40030258B612F3
:1057A000113EE9F5099012A8E064027004740180CA
:1057B00001E4F50C780C121981AD0BAC09A908EEC7
:1057C000FAEFFB12118C74011217297C147D0079F9
:1057D00000740C12175EAA82AB83120FA675F00636
:1057E000E508A4F50B740C12175EAC82AD837A1039
:1057F0007424250BF9121330E9703D7C1079FF7485
:105800000C12175EAA82AB8312100CE9702A741C6A
:1058100012175EAC82AD837A047425250BF912133E
:1058200030740C12175EAC82AD83E509A2E0E4335C
:10583000F9EEFAEFFB120496851882851983AC8283
:10584000AD837A0C74702508F9121330E970538512
:105850001882851983AA82AB83121132750800E57C
:105860000875F003A4F8A9F0851882851983E582EC
:1058700028F8E5831260D91262C6601D8882898388
:10588000A3A3E0F50C750D00780C12197DEEFAEF6C
:10589000FB12072A74021217290508E508C39404AD
:1058A00040BDE509A2E15046900DBEE0F9EEFAEFE9
:1058B000FB12073080387408650B70329012A8E034
:1058C0006402702A7C007D00A90AEEFAEFFB121137
:1058D00086126B5B6018125EE188828983E58245DF
:1058E00083600B7C007900EEFAEFFB1217687900F9
:1058F00074260262A274F012176AEAFEEBFF8C08AB
:105900008D09750A0AE9600C146009146037146087
:10591000790259A412114AE9F50AC3940A40030214
:1059200059A4E5084509607C750E06750F00780ED0
:1059300012197DEEFCEFFDAA08AB09120F8E74025E
:10594000121729805F750B00750E06750F00780E13
:1059500012197DEEFCEFFDE50B75F00EA4F8A9F031
:1059600074E028FA740D39FB120FA0740212172983
:10597000E9600C850B0AE50AC3940A5027801605D6
:105980000BE50BC3940A501C80BE121150E9F50AB6
:10599000C3940A500FE50845096009AA08AB09A994
:1059A0000A121144A90A02574C74F412176A8908A2
:1059B00075091574FF6A700374FF6B70277E00AC65
:1059C000087A027B00EEF9121120E96003750900E4
:1059D0000EEEC3940A40E8E50860537A7A7B111210
:1059E000091C804A1208FE8A0A8B0BAE0AAF0BEE26
:1059F0004F60387C007D00EE2405FAEF3400FB8E0A
:105A0000828F83A3A3A3A3E0F91210FCE9C3940A35
:105A1000500CAC087A027B00121120750900E508D1
:105A2000600CEEFAEFFB12117A8003750914A909D4
:105A30008005740E1217297F0402183C74F21217A5
:105A40006AECFEEDFF750815740E12175EE0F50A9C
:105A5000A3E0F50B74FF6A700374FF6B7021750986
:105A600000AC0AAD0BEEFAEFFBA909121126E960B2
:105A7000037508000509E509C3940A503F80E21246
:105A800008FE8A828B83E5824583602D7C007D0041
:105A9000E5822405FAE5833400FBA3A3A3A3E0F980
:105AA0001210FCE9C3940A5013AC0AAD0BEEFAEFE6
:105AB000FB1211267508008003750814A9080262FC
:105AC000A5C082C083900DD8EAF0A3EBF0900DBE84
:105AD000E0FC7D007A267B00120400900DBEE0F908
:105AE0001206AC02679B74EC12176A8A088B09E9EC
:105AF000FE741412175E780C1215E37F00EE702E00
:105B0000780812197D90918078101215E3780C793D
:105B10001012148EAA10AB11AC12AD131204A8749B
:105B200002121729E9FF60097901AA08AB091204DA
